{"contracts/TimeCapsule.sol":{"TimeCapsule":{"abi":[{"inputs":[{"internalType":"address","name":"_daoTreasury","type":"address"}],"stateMutability":"nonpayable","type":"constructor"},{"inputs":[],"name":"ReentrancyGuardReentrantCall","type":"error"},{"anonymous":false,"inputs":[{"indexed":true,"internalType":"uint256","name":"id","type":"uint256"},{"indexed":true,"internalType":"address","name":"creator","type":"address"},{"indexed":false,"internalType":"uint256","name":"unlockTime","type":"uint256"},{"indexed":false,"internalType":"bool","name":"isPublic","type":"bool"}],"name":"CapsuleCreated","type":"event"},{"anonymous":false,"inputs":[{"indexed":true,"internalType":"uint256","name":"id","type":"uint256"},{"indexed":true,"internalType":"address","name":"unlocker","type":"address"},{"indexed":false,"internalType":"enum TimeCapsule.Category","name":"actualCategory","type":"uint8"}],"name":"CapsuleUnlocked","type":"event"},{"anonymous":false,"inputs":[{"indexed":true,"internalType":"uint256","name":"capsuleId","type":"uint256"},{"indexed":true,"internalType":"address","name":"predictor","type":"address"},{"indexed":false,"internalType":"enum TimeCapsule.Category","name":"guess","type":"uint8"},{"indexed":false,"internalType":"uint256","name":"stakeAmount","type":"uint256"}],"name":"PredictionMade","type":"event"},{"anonymous":false,"inputs":[{"indexed":true,"internalType":"uint256","name":"capsuleId","type":"uint256"},{"indexed":true,"internalType":"address","name":"predictor","type":"address"},{"indexed":false,"internalType":"uint256","name":"reward","type":"uint256"}],"name":"RewardClaimed","type":"event"},{"inputs":[],"name":"GRACE_PERIOD","outputs":[{"internalType":"uint256","name":"","type":"uint256"}],"stateMutability":"view","type":"function"},{"inputs":[],"name":"MIN_PREDICTION_STAKE","outputs":[{"internalType":"uint256","name":"","type":"uint256"}],"stateMutability":"view","type":"function"},{"inputs":[{"internalType":"uint256","name":"","type":"uint256"}],"name":"capsules","outputs":[{"internalType":"uint256","name":"id","type":"uint256"},{"internalType":"address","name":"creator","type":"address"},{"internalType":"address","name":"recipient","type":"address"},{"internalType":"string","name":"ipfsCID","type":"string"},{"internalType":"bytes","name":"encryptedKey","type":"bytes"},{"internalType":"uint256","name":"unlockTime","type":"uint256"},{"internalType":"uint256","name":"stakeAmount","type":"uint256"},{"internalType":"bool","name":"isUnlocked","type":"bool"},{"internalType":"bool","name":"stakeReleased","type":"bool"},{"internalType":"string","name":"hint","type":"string"},{"internalType":"enum TimeCapsule.Category","name":"actualCategory","type":"uint8"},{"internalType":"bool","name":"isPublic","type":"bool"},{"internalType":"uint256","name":"predictionPool","type":"uint256"}],"stateMutability":"view","type":"function"},{"inputs":[{"internalType":"uint256","name":"_id","type":"uint256"}],"name":"claimReward","outputs":[],"stateMutability":"nonpayable","type":"function"},{"inputs":[{"internalType":"address","name":"_recipient","type":"address"},{"internalType":"uint256","name":"_unlockTime","type":"uint256"},{"internalType":"string","name":"_ipfsCid","type":"string"},{"internalType":"bytes","name":"_encryptedKey","type":"bytes"},{"internalType":"string","name":"_hint","type":"string"},{"internalType":"enum TimeCapsule.Category","name":"_category","type":"uint8"},{"internalType":"bool","name":"_isPublic","type":"bool"}],"name":"createCapsule","outputs":[],"stateMutability":"payable","type":"function"},{"inputs":[],"name":"daoTreasury","outputs":[{"internalType":"address","name":"","type":"address"}],"stateMutability":"view","type":"function"},{"inputs":[{"internalType":"uint256","name":"_id","type":"uint256"}],"name":"getCapsule","outputs":[{"components":[{"internalType":"uint256","name":"id","type":"uint256"},{"internalType":"address","name":"creator","type":"address"},{"internalType":"address","name":"recipient","type":"address"},{"internalType":"string","name":"ipfsCID","type":"string"},{"internalType":"bytes","name":"encryptedKey","type":"bytes"},{"internalType":"uint256","name":"unlockTime","type":"uint256"},{"internalType":"uint256","name":"stakeAmount","type":"uint256"},{"internalType":"bool","name":"isUnlocked","type":"bool"},{"internalType":"bool","name":"stakeReleased","type":"bool"},{"internalType":"string","name":"hint","type":"string"},{"internalType":"enum TimeCapsule.Category","name":"actualCategory","type":"uint8"},{"internalType":"bool","name":"isPublic","type":"bool"},{"internalType":"uint256","name":"predictionPool","type":"uint256"}],"internalType":"struct TimeCapsule.Capsule","name":"","type":"tuple"}],"stateMutability":"view","type":"function"},{"inputs":[{"internalType":"uint256","name":"_id","type":"uint256"},{"internalType":"uint256","name":"_idx","type":"uint256"}],"name":"getPrediction","outputs":[{"components":[{"internalType":"address","name":"predictor","type":"address"},{"internalType":"enum TimeCapsule.Category","name":"guess","type":"uint8"},{"internalType":"uint256","name":"stakeAmount","type":"uint256"},{"internalType":"bool","name":"claimed","type":"bool"}],"internalType":"struct TimeCapsule.Prediction","name":"","type":"tuple"}],"stateMutability":"view","type":"function"},{"inputs":[{"internalType":"uint256","name":"_id","type":"uint256"}],"name":"getPredictionCount","outputs":[{"internalType":"uint256","name":"","type":"uint256"}],"stateMutability":"view","type":"function"},{"inputs":[{"internalType":"uint256","name":"","type":"uint256"},{"internalType":"address","name":"","type":"address"}],"name":"hasPredicted","outputs":[{"internalType":"bool","name":"","type":"bool"}],"stateMutability":"view","type":"function"},{"inputs":[{"internalType":"uint256","name":"_id","type":"uint256"},{"internalType":"enum TimeCapsule.Category","name":"_guess","type":"uint8"}],"name":"makePrediction","outputs":[],"stateMutability":"payable","type":"function"},{"inputs":[],"name":"nextCapsuleId","outputs":[{"internalType":"uint256","name":"","type":"uint256"}],"stateMutability":"view","type":"function"},{"inputs":[{"internalType":"uint256","name":"_id","type":"uint256"}],"name":"unlockCapsule","outputs":[],"stateMutability":"nonpayable","type":"function"}],"evm":{"bytecode":{"linkReferences":{},"object":"60a0346100ad57601f61186438819003918201601f19168301916001600160401b038311848410176100b2578084926020946040528339810103126100ad57516001600160a01b0381168082036100ad576001600055156100755760805260405161179b90816100c98239608051816108180152f35b60405162461bcd60e51b815260206004820152601060248201526f496e76616c696420547265617375727960801b6044820152606490fd5b600080fd5b634e487b7160e01b600052604160045260246000fdfe608080604052600436101561001357600080fd5b60003560e01c9081631b0a102c146113a9575080632178c0a2146111e15780632c76d39514610c235780633aac3858146109dc5780634a098c77146109ba578063517bbf46146108735780635d45dcf51461084757806379022a9f1461080257806385d6b426146107b0578063ae169a50146103e7578063ae3cfaed146103c9578063c1a287e2146103aa5763ec3bc06b146100ae57600080fd5b60403660031901126103a5576024803560043560098210156103a5576100d26116cb565b8060005260019260209084825260406000209060018060a01b036100fc81888501541615156116ee565b60ff600984015460081c1680610396575b15610361576005830154421015610332578460005260038452604060002033600052845260ff604060002054166102fa5766038d7ea4c6800034106102c657846000526002845260406000209060405192610167846115ba565b33845285840190610178898361166b565b6040850192348452606086019460008652805490680100000000000000008210156102b157906101ac918d82018155611726565b96909661029c57511690855492826bffffffffffffffffffffffff60a01b85161787555190600982101561028857506001600160a81b03199092161760a09190911b60ff60a01b16178355518783015551600291909101805491151560ff1660ff1992909216919091179055600a908360005260038352604060002033600052835260406000208660ff1982541617905501610249348254611758565b9055610258604051809461146f565b34908301527fda30f73a3e960b5ac088351f9267cabe93697fa1626149956fb9a54bc6d07b9560403393a3600055005b634e487b7160e01b60009081526021600452fd5b82634e487b7160e01b60005260006004526000fd5b83634e487b7160e01b60005260416004526000fd5b60405162461bcd60e51b815260048101859052600d818401526c5374616b6520746f6f206c6f7760981b6044820152606490fd5b60405162461bcd60e51b81526004810185905260118184015270105b1c9958591e481c1c99591a58dd1959607a1b6044820152606490fd5b60405162461bcd60e51b81526004810185905260088184015267546f6f206c61746560c01b6044820152606490fd5b60405162461bcd60e51b815260048101859052600e818401526d10d85b9b9bdd081c1c99591a58dd60921b6044820152606490fd5b5060ff6007840154161561010d565b600080fd5b346103a55760003660031901126103a55760206040516301e133808152f35b346103a55760003660031901126103a5576020600454604051908152f35b346103a55760203660031901126103a5576104006116cb565b6004356000526001602052604060002060ff6007820154161561077c57600435600052600360205260406000203360005260205260ff604060002054161561074757600435600052600260205260406000206000906000808254905b81811061070f575b5050156106d35760ff60026104798484611726565b5001541661069c57600960ff61048f8484611726565b505460a01c1693019260ff84541690600982101561065357600981101561065357036106695760026104c18383611726565b5001600160ff1982541617905560009060009360009060ff8354915416905b8083106105e25750505060016104f68483611726565b500154928215918215806105d9575b610575575b505050508091506000811561056c575b600080809381933390f1156105605760405190815233907f24b5efa61dd1cfc659205a97fb8ed868f3cb8c81922bab2b96423e5de1de2cb7602060043592a36001600055005b6040513d6000823e3d90fd5b506108fc61051a565b60019161058191611726565b5001548481029481860414901517156105c3576105ad576105a3920490611758565b808280808061050a565b634e487b7160e01b600052601260045260246000fd5b634e487b7160e01b600052601160045260246000fd5b50851515610505565b90919360ff6105f18686611726565b505460a01c1660098410156106535760098110156106535783036106385761062b6106319160016106228888611726565b50015490611758565b94611615565b91906104e0565b939561064d6106319160016106228a88611726565b96611615565b634e487b7160e01b600052602160045260246000fd5b60405162461bcd60e51b815260206004820152600b60248201526a57726f6e6720677565737360a81b6044820152606490fd5b60405162461bcd60e51b815260206004820152600f60248201526e105b1c9958591e4818db185a5b5959608a1b6044820152606490fd5b60405162461bcd60e51b8152602060048201526014602482015273141c99591a58dd1a5bdb881b9bdd08199bdd5b9960621b6044820152606490fd5b6107198185611726565b50546001600160a01b031633146107385761073390611615565b61045c565b92935050509060018480610464565b60405162461bcd60e51b815260206004820152600d60248201526c273790383932b234b1ba34b7b760991b6044820152606490fd5b60405162461bcd60e51b815260206004820152600c60248201526b139bdd081d5b9b1bd8dad95960a21b6044820152606490fd5b346103a55760403660031901126103a5576024356001600160a01b038116908190036103a5576004356000526003602052604060002090600052602052602060ff604060002054166040519015158152f35b346103a55760003660031901126103a5576040517f00000000000000000000000000000000000000000000000000000000000000006001600160a01b03168152602090f35b346103a55760203660031901126103a55760043560005260026020526020604060002054604051908152f35b346103a55760203660031901126103a557600435600052600160205260406000208054600160a01b60019003918260018201541692600282015416604051808060038501906108c191611524565b036108cc90826115f3565b604051806108dd8160048701611524565b036108e890826115f3565b600584015490600685015460078601549160405194858060088a019061090d91611524565b0361091890876115f3565b600988015497600a0154966040519a8b9a8b5260208b015260408a01526101a08060608b01528901610949916114aa565b88810360808a015261095a916114aa565b9260a088015260c087015260ff8116151560e087015260081c60ff161515610100860152848103610120860152610990916114aa565b916109a2610140850160ff831661146f565b60081c60ff1615156101608401526101808301520390f35b346103a55760003660031901126103a557602060405166038d7ea4c680008152f35b346103a55760203660031901126103a55760006101806040516109fe816115d6565b828152826020820152826040820152606080820152606060808201528260a08201528260c08201528260e08201528261010082015260606101208201528261014082015282610160820152015260043560005260016020526040600020600a60405191610a6a836115d6565b8054835260018101546001600160a01b03908116602085015260028201541660408085019190915251610aab81610aa48160038601611524565b03826115f3565b6060840152604051610ac481610aa48160048601611524565b6080840152600581015460a0840152600681015460c084015260ff6007820154818116151560e086015260081c161515610100840152604051610b0e81610aa48160088601611524565b61012084015260ff6009820154610b2b828216610140870161166b565b60081c16151561016084015201546101808201526040518091602082528051602083015260018060a01b03602082015116604083015260018060a01b036040820151166060830152610180610bf6610b9460608401516101a060808701526101c08601906114aa565b610bb0608085015191601f1992838883030160a08901526114aa565b9060a085015160c087015260c085015160e087015260e08501511515610100870152610100850151151561012087015261012085015190868303016101408701526114aa565b91610c0b61014082015161016086019061146f565b61016081015115158285015201516101a08301520390f35b60e03660031901126103a5576004356001600160a01b03811690036103a55760443567ffffffffffffffff81116103a557610c6290369060040161147c565b9060643567ffffffffffffffff81116103a557610c8390369060040161147c565b929060843567ffffffffffffffff81116103a557610ca590369060040161147c565b600960a43510156103a55760c4359586151587036103a557610cc56116cb565b4260243511156111a357841561116f57610d6393610d3a91610d2e60045498610ced8a611615565b6004908155356001600160a01b03166111665733985b60405199610d108b6115d6565b8b8b523360208c01526001600160a01b031660408b01523691611624565b60608801523691611624565b608085015260243560a08501523460c0850152600060e085015260006101008501523691611624565b610120820152610d7960a435610140830161166b565b8215156101608201526000610180820152816000526001602052604060002090805182556001820160018060a01b03602083015116906bffffffffffffffffffffffff60a01b9182825416179055600283019060018060a01b0360408401511690825416179055606081015180519067ffffffffffffffff8211611056578190610e1382610e0a60038801546114ea565b60038801611677565b602090601f83116001146110f4576000926110e9575b50508160011b916000199060031b1c19161760038301555b608081015180519067ffffffffffffffff8211611056578190610e7482610e6b60048801546114ea565b60048801611677565b602090601f83116001146110775760009261106c575b50508160011b916000199060031b1c19161760048301555b60a0810151600583015560c08101516006830155610ef560078301610ed960e08401511515829060ff801983541691151516179055565b610100830151815461ff00191690151560081b61ff0016179055565b61012081015180519067ffffffffffffffff8211611056578190610f2982610f2060088801546114ea565b60088801611677565b602090601f8311600114610fe457600092610fd9575b50508160011b916000199060031b1c19161760088301555b6009820161014082015191600983101561065357815461016082015161ff0090151560081b1660ff9490941661ffff1990911617929092179055600a906101800151910155604051916024358352151560208301527ff72b5f29d907c4cdb318378fca996a1404acf683c3add631b8c4abf1f319226560403393a36001600055005b015190508680610f3f565b9250600885016000526020600020906000935b601f198416851061103b576001945083601f19811610611022575b505050811b016008830155610f57565b015160001960f88460031b161c19169055868080611012565b81810151835560209485019460019093019290910190610ff7565b634e487b7160e01b600052604160045260246000fd5b015190508680610e8a565b9250600485016000526020600020906000935b601f19841685106110ce576001945083601f198116106110b5575b505050811b016004830155610ea2565b015160001960f88460031b161c191690558680806110a5565b8181015183556020948501946001909301929091019061108a565b015190508680610e29565b9250600385016000526020600020906000935b601f198416851061114b576001945083601f19811610611132575b505050811b016003830155610e41565b015160001960f88460031b161c19169055868080611122565b81810151835560209485019460019093019290910190611107565b60043598610d03565b60405162461bcd60e51b815260206004820152600c60248201526b10d251081c995c5d5a5c995960a21b6044820152606490fd5b60405162461bcd60e51b815260206004820152601660248201527554696d65206d75737420626520696e2066757475726560501b6044820152606490fd5b346103a5576020806003193601126103a557600435906111ff6116cb565b8160005260018152604060002060018060a01b0392836001830154166112268115156116ee565b6005830154421061137a573314801561136b575b1561133757600782019081549360ff851661130057600160ff19861617918284557f94b202b76e66f9b1a5a934d9335701186b3b52632f9a4da8763da9ef4d2854f460ff60098701541692611292604051809561146f565b3393a3600683015490811590811590816112f1575b506112b4575b6001600055005b6000956002879695879695610101889761ffff19161790550154169083906112e8575bf115610560578080808080806112ad565b506108fc6112d7565b60ff915060081c1615876112a7565b6064906040519062461bcd60e51b82526004820152601060248201526f105b1c9958591e481d5b9b1bd8dad95960821b6044820152fd5b60405162461bcd60e51b815260048101849052600c60248201526b155b985d5d1a1bdc9a5e995960a21b6044820152606490fd5b5083600283015416331461123a565b60405162461bcd60e51b8152600481018590526007602482015266139bdd081e595d60ca1b6044820152606490fd5b346103a55760403660031901126103a5576060816113c86000936115ba565b8281528260208201528260408201520152600435600052600260205260806113f66024356040600020611726565b5060405190611404826115ba565b80546001600160a01b038082168452919061145f90602085019061142e9060a01c60ff168261166b565b60ff60026001850154946040880195865201541693606086019415158552604051955116855251602085019061146f565b5160408301525115156060820152f35b9060098210156106535752565b9181601f840112156103a55782359167ffffffffffffffff83116103a557602083818601950101116103a557565b919082519283825260005b8481106114d6575050826000602080949584010152601f8019910116010190565b6020818301810151848301820152016114b5565b90600182811c9216801561151a575b602083101461150457565b634e487b7160e01b600052602260045260246000fd5b91607f16916114f9565b9060009291805491611535836114ea565b9182825260019384811690816000146115975750600114611557575b50505050565b90919394506000526020928360002092846000945b838610611583575050505001019038808080611551565b80548587018301529401938590820161156c565b9294505050602093945060ff191683830152151560051b01019038808080611551565b6080810190811067ffffffffffffffff82111761105657604052565b6101a0810190811067ffffffffffffffff82111761105657604052565b90601f8019910116810190811067ffffffffffffffff82111761105657604052565b60001981146105c35760010190565b92919267ffffffffffffffff8211611056576040519161164e601f8201601f1916602001846115f3565b8294818452818301116103a5578281602093846000960137010152565b60098210156106535752565b90601f811161168557505050565b600091825260208220906020601f850160051c830194106116c1575b601f0160051c01915b8281106116b657505050565b8181556001016116aa565b90925082906116a1565b6002600054146116dc576002600055565b604051633ee5aeb560e01b8152600490fd5b156116f557565b60405162461bcd60e51b8152602060048201526009602482015268139bdd08199bdd5b9960ba1b6044820152606490fd5b8054821015611742576000526003602060002091020190600090565b634e487b7160e01b600052603260045260246000fd5b919082018092116105c35756fea2646970667358221220a4054cd5e27bf5fcda9bf5e799df9af217f9a6853fa4177ac7f592213f1c297564736f6c63430008140033","opcodes":"PUSH1 0xA0 CALLVALUE PUSH2 0xAD JUMPI PUSH1 0x1F PUSH2 0x1864 CODESIZE DUP2 SWAP1 SUB SWAP2 DUP3 ADD PUSH1 0x1F NOT AND DUP4 ADD SWAP2 PUSH1 0x1 PUSH1 0x1 PUSH1 0x40 SHL SUB DUP4 GT DUP5 DUP5 LT OR PUSH2 0xB2 JUMPI DUP1 DUP5 SWAP3 PUSH1 0x20 SWAP5 PUSH1 0x40 MSTORE DUP4 CODECOPY DUP2 ADD SUB SLT PUSH2 0xAD JUMPI MLOAD PUSH1 0x1 PUSH1 0x1 PUSH1 0xA0 SHL SUB DUP2 AND DUP1 DUP3 SUB PUSH2 0xAD JUMPI PUSH1 0x1 PUSH1 0x0 SSTORE ISZERO PUSH2 0x75 JUMPI PUSH1 0x80 MSTORE PUSH1 0x40 MLOAD PUSH2 0x179B SWAP1 DUP2 PUSH2 0xC9 DUP3 CODECOPY PUSH1 0x80 MLOAD DUP2 PUSH2 0x818 ADD MSTORE RETURN JUMPDEST PUSH1 0x40 MLOAD PUSH3 0x461BCD PUSH1 0xE5 SHL DUP2 MSTORE PUSH1 0x20 PUSH1 0x4 DUP3 ADD MSTORE PUSH1 0x10 PUSH1 0x24 DUP3 ADD MSTORE PUSH16 0x496E76616C6964205472656173757279 PUSH1 0x80 SHL PUSH1 0x44 DUP3 ADD MSTORE PUSH1 0x64 SWAP1 REVERT JUMPDEST PUSH1 0x0 DUP1 REVERT JUMPDEST PUSH4 0x4E487B71 PUSH1 0xE0 SHL PUSH1 0x0 MSTORE PUSH1 0x41 PUSH1 0x4 MSTORE PUSH1 0x24 PUSH1 0x0 REVERT INVALID PUSH1 0x80 DUP1 PUSH1 0x40 MSTORE PUSH1 0x4 CALLDATASIZE LT ISZERO PUSH2 0x13 JUMPI PUSH1 0x0 DUP1 REVERT JUMPDEST PUSH1 0x0 CALLDATALOAD PUSH1 0xE0 SHR SWAP1 DUP2 PUSH4 0x1B0A102C EQ PUSH2 0x13A9 JUMPI POP DUP1 PUSH4 0x2178C0A2 EQ PUSH2 0x11E1 JUMPI DUP1 PUSH4 0x2C76D395 EQ PUSH2 0xC23 JUMPI DUP1 PUSH4 0x3AAC3858 EQ PUSH2 0x9DC JUMPI DUP1 PUSH4 0x4A098C77 EQ PUSH2 0x9BA JUMPI DUP1 PUSH4 0x517BBF46 EQ PUSH2 0x873 JUMPI DUP1 PUSH4 0x5D45DCF5 EQ PUSH2 0x847 JUMPI DUP1 PUSH4 0x79022A9F EQ PUSH2 0x802 JUMPI DUP1 PUSH4 0x85D6B426 EQ PUSH2 0x7B0 JUMPI DUP1 PUSH4 0xAE169A50 EQ PUSH2 0x3E7 JUMPI DUP1 PUSH4 0xAE3CFAED EQ PUSH2 0x3C9 JUMPI DUP1 PUSH4 0xC1A287E2 EQ PUSH2 0x3AA JUMPI PUSH4 0xEC3BC06B EQ PUSH2 0xAE JUMPI PUSH1 0x0 DUP1 REVERT JUMPDEST PUSH1 0x40 CALLDATASIZE PUSH1 0x3 NOT ADD SLT PUSH2 0x3A5 JUMPI PUSH1 0x24 DUP1 CALLDATALOAD PUSH1 0x4 CALLDATALOAD PUSH1 0x9 DUP3 LT ISZERO PUSH2 0x3A5 JUMPI PUSH2 0xD2 PUSH2 0x16CB JUMP JUMPDEST DUP1 PUSH1 0x0 MSTORE PUSH1 0x1 SWAP3 PUSH1 0x20 SWAP1 DUP5 DUP3 MSTORE PUSH1 0x40 PUSH1 0x0 KECCAK256 SWAP1 PUSH1 0x1 DUP1 PUSH1 0xA0 SHL SUB PUSH2 0xFC DUP2 DUP9 DUP6 ADD SLOAD AND ISZERO ISZERO PUSH2 0x16EE JUMP JUMPDEST PUSH1 0xFF PUSH1 0x9 DUP5 ADD SLOAD PUSH1 0x8 SHR AND DUP1 PUSH2 0x396 JUMPI JUMPDEST ISZERO PUSH2 0x361 JUMPI PUSH1 0x5 DUP4 ADD SLOAD TIMESTAMP LT ISZERO PUSH2 0x332 JUMPI DUP5 PUSH1 0x0 MSTORE PUSH1 0x3 DUP5 MSTORE PUSH1 0x40 PUSH1 0x0 KECCAK256 CALLER PUSH1 0x0 MSTORE DUP5 MSTORE PUSH1 0xFF PUSH1 0x40 PUSH1 0x0 KECCAK256 SLOAD AND PUSH2 0x2FA JUMPI PUSH7 0x38D7EA4C68000 CALLVALUE LT PUSH2 0x2C6 JUMPI DUP5 PUSH1 0x0 MSTORE PUSH1 0x2 DUP5 MSTORE PUSH1 0x40 PUSH1 0x0 KECCAK256 SWAP1 PUSH1 0x40 MLOAD SWAP3 PUSH2 0x167 DUP5 PUSH2 0x15BA JUMP JUMPDEST CALLER DUP5 MSTORE DUP6 DUP5 ADD SWAP1 PUSH2 0x178 DUP10 DUP4 PUSH2 0x166B JUMP JUMPDEST PUSH1 0x40 DUP6 ADD SWAP3 CALLVALUE DUP5 MSTORE PUSH1 0x60 DUP7 ADD SWAP5 PUSH1 0x0 DUP7 MSTORE DUP1 SLOAD SWAP1 PUSH9 0x10000000000000000 DUP3 LT ISZERO PUSH2 0x2B1 JUMPI SWAP1 PUSH2 0x1AC SWAP2 DUP14 DUP3 ADD DUP2 SSTORE PUSH2 0x1726 JUMP JUMPDEST SWAP7 SWAP1 SWAP7 PUSH2 0x29C JUMPI MLOAD AND SWAP1 DUP6 SLOAD SWAP3 DUP3 PUSH12 0xFFFFFFFFFFFFFFFFFFFFFFFF PUSH1 0xA0 SHL DUP6 AND OR DUP8 SSTORE MLOAD SWAP1 PUSH1 0x9 DUP3 LT ISZERO PUSH2 0x288 JUMPI POP PUSH1 0x1 PUSH1 0x1 PUSH1 0xA8 SHL SUB NOT SWAP1 SWAP3 AND OR PUSH1 0xA0 SWAP2 SWAP1 SWAP2 SHL PUSH1 0xFF PUSH1 0xA0 SHL AND OR DUP4 SSTORE MLOAD DUP8 DUP4 ADD SSTORE MLOAD PUSH1 0x2 SWAP2 SWAP1 SWAP2 ADD DUP1 SLOAD SWAP2 ISZERO ISZERO PUSH1 0xFF AND PUSH1 0xFF NOT SWAP3 SWAP1 SWAP3 AND SWAP2 SWAP1 SWAP2 OR SWAP1 SSTORE PUSH1 0xA SWAP1 DUP4 PUSH1 0x0 MSTORE PUSH1 0x3 DUP4 MSTORE PUSH1 0x40 PUSH1 0x0 KECCAK256 CALLER PUSH1 0x0 MSTORE DUP4 MSTORE PUSH1 0x40 PUSH1 0x0 KECCAK256 DUP7 PUSH1 0xFF NOT DUP3 SLOAD AND OR SWAP1 SSTORE ADD PUSH2 0x249 CALLVALUE DUP3 SLOAD PUSH2 0x1758 JUMP JUMPDEST SWAP1 SSTORE PUSH2 0x258 PUSH1 0x40 MLOAD DUP1 SWAP5 PUSH2 0x146F JUMP JUMPDEST CALLVALUE SWAP1 DUP4 ADD MSTORE PUSH32 0xDA30F73A3E960B5AC088351F9267CABE93697FA1626149956FB9A54BC6D07B95 PUSH1 0x40 CALLER SWAP4 LOG3 PUSH1 0x0 SSTORE STOP JUMPDEST PUSH4 0x4E487B71 PUSH1 0xE0 SHL PUSH1 0x0 SWAP1 DUP2 MSTORE PUSH1 0x21 PUSH1 0x4 MSTORE REVERT JUMPDEST DUP3 PUSH4 0x4E487B71 PUSH1 0xE0 SHL PUSH1 0x0 MSTORE PUSH1 0x0 PUSH1 0x4 MSTORE PUSH1 0x0 REVERT JUMPDEST DUP4 PUSH4 0x4E487B71 PUSH1 0xE0 SHL PUSH1 0x0 MSTORE PUSH1 0x41 PUSH1 0x4 MSTORE PUSH1 0x0 REVERT JUMPDEST PUSH1 0x40 MLOAD PUSH3 0x461BCD PUSH1 0xE5 SHL DUP2 MSTORE PUSH1 0x4 DUP2 ADD DUP6 SWAP1 MSTORE PUSH1 0xD DUP2 DUP5 ADD MSTORE PUSH13 0x5374616B6520746F6F206C6F77 PUSH1 0x98 SHL PUSH1 0x44 DUP3 ADD MSTORE PUSH1 0x64 SWAP1 REVERT JUMPDEST PUSH1 0x40 MLOAD PUSH3 0x461BCD PUSH1 0xE5 SHL DUP2 MSTORE PUSH1 0x4 DUP2 ADD DUP6 SWAP1 MSTORE PUSH1 0x11 DUP2 DUP5 ADD MSTORE PUSH17 0x105B1C9958591E481C1C99591A58DD1959 PUSH1 0x7A SHL PUSH1 0x44 DUP3 ADD MSTORE PUSH1 0x64 SWAP1 REVERT JUMPDEST PUSH1 0x40 MLOAD PUSH3 0x461BCD PUSH1 0xE5 SHL DUP2 MSTORE PUSH1 0x4 DUP2 ADD DUP6 SWAP1 MSTORE PUSH1 0x8 DUP2 DUP5 ADD MSTORE PUSH8 0x546F6F206C617465 PUSH1 0xC0 SHL PUSH1 0x44 DUP3 ADD MSTORE PUSH1 0x64 SWAP1 REVERT JUMPDEST PUSH1 0x40 MLOAD PUSH3 0x461BCD PUSH1 0xE5 SHL DUP2 MSTORE PUSH1 0x4 DUP2 ADD DUP6 SWAP1 MSTORE PUSH1 0xE DUP2 DUP5 ADD MSTORE PUSH14 0x10D85B9B9BDD081C1C99591A58DD PUSH1 0x92 SHL PUSH1 0x44 DUP3 ADD MSTORE PUSH1 0x64 SWAP1 REVERT JUMPDEST POP PUSH1 0xFF PUSH1 0x7 DUP5 ADD SLOAD AND ISZERO PUSH2 0x10D JUMP JUMPDEST PUSH1 0x0 DUP1 REVERT JUMPDEST CALLVALUE PUSH2 0x3A5 JUMPI PUSH1 0x0 CALLDATASIZE PUSH1 0x3 NOT ADD SLT PUSH2 0x3A5 JUMPI PUSH1 0x20 PUSH1 0x40 MLOAD PUSH4 0x1E13380 DUP2 MSTORE RETURN JUMPDEST CALLVALUE PUSH2 0x3A5 JUMPI PUSH1 0x0 CALLDATASIZE PUSH1 0x3 NOT ADD SLT PUSH2 0x3A5 JUMPI PUSH1 0x20 PUSH1 0x4 SLOAD PUSH1 0x40 MLOAD SWAP1 DUP2 MSTORE RETURN JUMPDEST CALLVALUE PUSH2 0x3A5 JUMPI PUSH1 0x20 CALLDATASIZE PUSH1 0x3 NOT ADD SLT PUSH2 0x3A5 JUMPI PUSH2 0x400 PUSH2 0x16CB JUMP JUMPDEST PUSH1 0x4 CALLDATALOAD PUSH1 0x0 MSTORE PUSH1 0x1 PUSH1 0x20 MSTORE PUSH1 0x40 PUSH1 0x0 KECCAK256 PUSH1 0xFF PUSH1 0x7 DUP3 ADD SLOAD AND ISZERO PUSH2 0x77C JUMPI PUSH1 0x4 CALLDATALOAD PUSH1 0x0 MSTORE PUSH1 0x3 PUSH1 0x20 MSTORE PUSH1 0x40 PUSH1 0x0 KECCAK256 CALLER PUSH1 0x0 MSTORE PUSH1 0x20 MSTORE PUSH1 0xFF PUSH1 0x40 PUSH1 0x0 KECCAK256 SLOAD AND ISZERO PUSH2 0x747 JUMPI PUSH1 0x4 CALLDATALOAD PUSH1 0x0 MSTORE PUSH1 0x2 PUSH1 0x20 MSTORE PUSH1 0x40 PUSH1 0x0 KECCAK256 PUSH1 0x0 SWAP1 PUSH1 0x0 DUP1 DUP3 SLOAD SWAP1 JUMPDEST DUP2 DUP2 LT PUSH2 0x70F JUMPI JUMPDEST POP POP ISZERO PUSH2 0x6D3 JUMPI PUSH1 0xFF PUSH1 0x2 PUSH2 0x479 DUP5 DUP5 PUSH2 0x1726 JUMP JUMPDEST POP ADD SLOAD AND PUSH2 0x69C JUMPI PUSH1 0x9 PUSH1 0xFF PUSH2 0x48F DUP5 DUP5 PUSH2 0x1726 JUMP JUMPDEST POP SLOAD PUSH1 0xA0 SHR AND SWAP4 ADD SWAP3 PUSH1 0xFF DUP5 SLOAD AND SWAP1 PUSH1 0x9 DUP3 LT ISZERO PUSH2 0x653 JUMPI PUSH1 0x9 DUP2 LT ISZERO PUSH2 0x653 JUMPI SUB PUSH2 0x669 JUMPI PUSH1 0x2 PUSH2 0x4C1 DUP4 DUP4 PUSH2 0x1726 JUMP JUMPDEST POP ADD PUSH1 0x1 PUSH1 0xFF NOT DUP3 SLOAD AND OR SWAP1 SSTORE PUSH1 0x0 SWAP1 PUSH1 0x0 SWAP4 PUSH1 0x0 SWAP1 PUSH1 0xFF DUP4 SLOAD SWAP2 SLOAD AND SWAP1 JUMPDEST DUP1 DUP4 LT PUSH2 0x5E2 JUMPI POP POP POP PUSH1 0x1 PUSH2 0x4F6 DUP5 DUP4 PUSH2 0x1726 JUMP JUMPDEST POP ADD SLOAD SWAP3 DUP3 ISZERO SWAP2 DUP3 ISZERO DUP1 PUSH2 0x5D9 JUMPI JUMPDEST PUSH2 0x575 JUMPI JUMPDEST POP POP POP POP DUP1 SWAP2 POP PUSH1 0x0 DUP2 ISZERO PUSH2 0x56C JUMPI JUMPDEST PUSH1 0x0 DUP1 DUP1 SWAP4 DUP2 SWAP4 CALLER SWAP1 CALL ISZERO PUSH2 0x560 JUMPI PUSH1 0x40 MLOAD SWAP1 DUP2 MSTORE CALLER SWAP1 PUSH32 0x24B5EFA61DD1CFC659205A97FB8ED868F3CB8C81922BAB2B96423E5DE1DE2CB7 PUSH1 0x20 PUSH1 0x4 CALLDATALOAD SWAP3 LOG3 PUSH1 0x1 PUSH1 0x0 SSTORE STOP JUMPDEST PUSH1 0x40 MLOAD RETURNDATASIZE PUSH1 0x0 DUP3 RETURNDATACOPY RETURNDATASIZE SWAP1 REVERT JUMPDEST POP PUSH2 0x8FC PUSH2 0x51A JUMP JUMPDEST PUSH1 0x1 SWAP2 PUSH2 0x581 SWAP2 PUSH2 0x1726 JUMP JUMPDEST POP ADD SLOAD DUP5 DUP2 MUL SWAP5 DUP2 DUP7 DIV EQ SWAP1 ISZERO OR ISZERO PUSH2 0x5C3 JUMPI PUSH2 0x5AD JUMPI PUSH2 0x5A3 SWAP3 DIV SWAP1 PUSH2 0x1758 JUMP JUMPDEST DUP1 DUP3 DUP1 DUP1 DUP1 PUSH2 0x50A JUMP JUMPDEST PUSH4 0x4E487B71 PUSH1 0xE0 SHL PUSH1 0x0 MSTORE PUSH1 0x12 PUSH1 0x4 MSTORE PUSH1 0x24 PUSH1 0x0 REVERT JUMPDEST PUSH4 0x4E487B71 PUSH1 0xE0 SHL PUSH1 0x0 MSTORE PUSH1 0x11 PUSH1 0x4 MSTORE PUSH1 0x24 PUSH1 0x0 REVERT JUMPDEST POP DUP6 ISZERO ISZERO PUSH2 0x505 JUMP JUMPDEST SWAP1 SWAP2 SWAP4 PUSH1 0xFF PUSH2 0x5F1 DUP7 DUP7 PUSH2 0x1726 JUMP JUMPDEST POP SLOAD PUSH1 0xA0 SHR AND PUSH1 0x9 DUP5 LT ISZERO PUSH2 0x653 JUMPI PUSH1 0x9 DUP2 LT ISZERO PUSH2 0x653 JUMPI DUP4 SUB PUSH2 0x638 JUMPI PUSH2 0x62B PUSH2 0x631 SWAP2 PUSH1 0x1 PUSH2 0x622 DUP9 DUP9 PUSH2 0x1726 JUMP JUMPDEST POP ADD SLOAD SWAP1 PUSH2 0x1758 JUMP JUMPDEST SWAP5 PUSH2 0x1615 JUMP JUMPDEST SWAP2 SWAP1 PUSH2 0x4E0 JUMP JUMPDEST SWAP4 SWAP6 PUSH2 0x64D PUSH2 0x631 SWAP2 PUSH1 0x1 PUSH2 0x622 DUP11 DUP9 PUSH2 0x1726 JUMP JUMPDEST SWAP7 PUSH2 0x1615 JUMP JUMPDEST PUSH4 0x4E487B71 PUSH1 0xE0 SHL PUSH1 0x0 MSTORE PUSH1 0x21 PUSH1 0x4 MSTORE PUSH1 0x24 PUSH1 0x0 REVERT JUMPDEST PUSH1 0x40 MLOAD PUSH3 0x461BCD PUSH1 0xE5 SHL DUP2 MSTORE PUSH1 0x20 PUSH1 0x4 DUP3 ADD MSTORE PUSH1 0xB PUSH1 0x24 DUP3 ADD MSTORE PUSH11 0x57726F6E67206775657373 PUSH1 0xA8 SHL PUSH1 0x44 DUP3 ADD MSTORE PUSH1 0x64 SWAP1 REVERT JUMPDEST PUSH1 0x40 MLOAD PUSH3 0x461BCD PUSH1 0xE5 SHL DUP2 MSTORE PUSH1 0x20 PUSH1 0x4 DUP3 ADD MSTORE PUSH1 0xF PUSH1 0x24 DUP3 ADD MSTORE PUSH15 0x105B1C9958591E4818DB185A5B5959 PUSH1 0x8A SHL PUSH1 0x44 DUP3 ADD MSTORE PUSH1 0x64 SWAP1 REVERT JUMPDEST PUSH1 0x40 MLOAD PUSH3 0x461BCD PUSH1 0xE5 SHL DUP2 MSTORE PUSH1 0x20 PUSH1 0x4 DUP3 ADD MSTORE PUSH1 0x14 PUSH1 0x24 DUP3 ADD MSTORE PUSH20 0x141C99591A58DD1A5BDB881B9BDD08199BDD5B99 PUSH1 0x62 SHL PUSH1 0x44 DUP3 ADD MSTORE PUSH1 0x64 SWAP1 REVERT JUMPDEST PUSH2 0x719 DUP2 DUP6 PUSH2 0x1726 JUMP JUMPDEST POP SLOAD PUSH1 0x1 PUSH1 0x1 PUSH1 0xA0 SHL SUB AND CALLER EQ PUSH2 0x738 JUMPI PUSH2 0x733 SWAP1 PUSH2 0x1615 JUMP JUMPDEST PUSH2 0x45C JUMP JUMPDEST SWAP3 SWAP4 POP POP POP SWAP1 PUSH1 0x1 DUP5 DUP1 PUSH2 0x464 JUMP JUMPDEST PUSH1 0x40 MLOAD PUSH3 0x461BCD PUSH1 0xE5 SHL DUP2 MSTORE PUSH1 0x20 PUSH1 0x4 DUP3 ADD MSTORE PUSH1 0xD PUSH1 0x24 DUP3 ADD MSTORE PUSH13 0x273790383932B234B1BA34B7B7 PUSH1 0x99 SHL PUSH1 0x44 DUP3 ADD MSTORE PUSH1 0x64 SWAP1 REVERT JUMPDEST PUSH1 0x40 MLOAD PUSH3 0x461BCD PUSH1 0xE5 SHL DUP2 MSTORE PUSH1 0x20 PUSH1 0x4 DUP3 ADD MSTORE PUSH1 0xC PUSH1 0x24 DUP3 ADD MSTORE PUSH12 0x139BDD081D5B9B1BD8DAD959 PUSH1 0xA2 SHL PUSH1 0x44 DUP3 ADD MSTORE PUSH1 0x64 SWAP1 REVERT JUMPDEST CALLVALUE PUSH2 0x3A5 JUMPI PUSH1 0x40 CALLDATASIZE PUSH1 0x3 NOT ADD SLT PUSH2 0x3A5 JUMPI PUSH1 0x24 CALLDATALOAD PUSH1 0x1 PUSH1 0x1 PUSH1 0xA0 SHL SUB DUP2 AND SWAP1 DUP2 SWAP1 SUB PUSH2 0x3A5 JUMPI PUSH1 0x4 CALLDATALOAD PUSH1 0x0 MSTORE PUSH1 0x3 PUSH1 0x20 MSTORE PUSH1 0x40 PUSH1 0x0 KECCAK256 SWAP1 PUSH1 0x0 MSTORE PUSH1 0x20 MSTORE PUSH1 0x20 PUSH1 0xFF PUSH1 0x40 PUSH1 0x0 KECCAK256 SLOAD AND PUSH1 0x40 MLOAD SWAP1 ISZERO ISZERO DUP2 MSTORE RETURN JUMPDEST CALLVALUE PUSH2 0x3A5 JUMPI PUSH1 0x0 CALLDATASIZE PUSH1 0x3 NOT ADD SLT PUSH2 0x3A5 JUMPI PUSH1 0x40 MLOAD PUSH32 0x0 PUSH1 0x1 PUSH1 0x1 PUSH1 0xA0 SHL SUB AND DUP2 MSTORE PUSH1 0x20 SWAP1 RETURN JUMPDEST CALLVALUE PUSH2 0x3A5 JUMPI PUSH1 0x20 CALLDATASIZE PUSH1 0x3 NOT ADD SLT PUSH2 0x3A5 JUMPI PUSH1 0x4 CALLDATALOAD PUSH1 0x0 MSTORE PUSH1 0x2 PUSH1 0x20 MSTORE PUSH1 0x20 PUSH1 0x40 PUSH1 0x0 KECCAK256 SLOAD PUSH1 0x40 MLOAD SWAP1 DUP2 MSTORE RETURN JUMPDEST CALLVALUE PUSH2 0x3A5 JUMPI PUSH1 0x20 CALLDATASIZE PUSH1 0x3 NOT ADD SLT PUSH2 0x3A5 JUMPI PUSH1 0x4 CALLDATALOAD PUSH1 0x0 MSTORE PUSH1 0x1 PUSH1 0x20 MSTORE PUSH1 0x40 PUSH1 0x0 KECCAK256 DUP1 SLOAD PUSH1 0x1 PUSH1 0xA0 SHL PUSH1 0x1 SWAP1 SUB SWAP2 DUP3 PUSH1 0x1 DUP3 ADD SLOAD AND SWAP3 PUSH1 0x2 DUP3 ADD SLOAD AND PUSH1 0x40 MLOAD DUP1 DUP1 PUSH1 0x3 DUP6 ADD SWAP1 PUSH2 0x8C1 SWAP2 PUSH2 0x1524 JUMP JUMPDEST SUB PUSH2 0x8CC SWAP1 DUP3 PUSH2 0x15F3 JUMP JUMPDEST PUSH1 0x40 MLOAD DUP1 PUSH2 0x8DD DUP2 PUSH1 0x4 DUP8 ADD PUSH2 0x1524 JUMP JUMPDEST SUB PUSH2 0x8E8 SWAP1 DUP3 PUSH2 0x15F3 JUMP JUMPDEST PUSH1 0x5 DUP5 ADD SLOAD SWAP1 PUSH1 0x6 DUP6 ADD SLOAD PUSH1 0x7 DUP7 ADD SLOAD SWAP2 PUSH1 0x40 MLOAD SWAP5 DUP6 DUP1 PUSH1 0x8 DUP11 ADD SWAP1 PUSH2 0x90D SWAP2 PUSH2 0x1524 JUMP JUMPDEST SUB PUSH2 0x918 SWAP1 DUP8 PUSH2 0x15F3 JUMP JUMPDEST PUSH1 0x9 DUP9 ADD SLOAD SWAP8 PUSH1 0xA ADD SLOAD SWAP7 PUSH1 0x40 MLOAD SWAP11 DUP12 SWAP11 DUP12 MSTORE PUSH1 0x20 DUP12 ADD MSTORE PUSH1 0x40 DUP11 ADD MSTORE PUSH2 0x1A0 DUP1 PUSH1 0x60 DUP12 ADD MSTORE DUP10 ADD PUSH2 0x949 SWAP2 PUSH2 0x14AA JUMP JUMPDEST DUP9 DUP2 SUB PUSH1 0x80 DUP11 ADD MSTORE PUSH2 0x95A SWAP2 PUSH2 0x14AA JUMP JUMPDEST SWAP3 PUSH1 0xA0 DUP9 ADD MSTORE PUSH1 0xC0 DUP8 ADD MSTORE PUSH1 0xFF DUP2 AND ISZERO ISZERO PUSH1 0xE0 DUP8 ADD MSTORE PUSH1 0x8 SHR PUSH1 0xFF AND ISZERO ISZERO PUSH2 0x100 DUP7 ADD MSTORE DUP5 DUP2 SUB PUSH2 0x120 DUP7 ADD MSTORE PUSH2 0x990 SWAP2 PUSH2 0x14AA JUMP JUMPDEST SWAP2 PUSH2 0x9A2 PUSH2 0x140 DUP6 ADD PUSH1 0xFF DUP4 AND PUSH2 0x146F JUMP JUMPDEST PUSH1 0x8 SHR PUSH1 0xFF AND ISZERO ISZERO PUSH2 0x160 DUP5 ADD MSTORE PUSH2 0x180 DUP4 ADD MSTORE SUB SWAP1 RETURN JUMPDEST CALLVALUE PUSH2 0x3A5 JUMPI PUSH1 0x0 CALLDATASIZE PUSH1 0x3 NOT ADD SLT PUSH2 0x3A5 JUMPI PUSH1 0x20 PUSH1 0x40 MLOAD PUSH7 0x38D7EA4C68000 DUP2 MSTORE RETURN JUMPDEST CALLVALUE PUSH2 0x3A5 JUMPI PUSH1 0x20 CALLDATASIZE PUSH1 0x3 NOT ADD SLT PUSH2 0x3A5 JUMPI PUSH1 0x0 PUSH2 0x180 PUSH1 0x40 MLOAD PUSH2 0x9FE DUP2 PUSH2 0x15D6 JUMP JUMPDEST DUP3 DUP2 MSTORE DUP3 PUSH1 0x20 DUP3 ADD MSTORE DUP3 PUSH1 0x40 DUP3 ADD MSTORE PUSH1 0x60 DUP1 DUP3 ADD MSTORE PUSH1 0x60 PUSH1 0x80 DUP3 ADD MSTORE DUP3 PUSH1 0xA0 DUP3 ADD MSTORE DUP3 PUSH1 0xC0 DUP3 ADD MSTORE DUP3 PUSH1 0xE0 DUP3 ADD MSTORE DUP3 PUSH2 0x100 DUP3 ADD MSTORE PUSH1 0x60 PUSH2 0x120 DUP3 ADD MSTORE DUP3 PUSH2 0x140 DUP3 ADD MSTORE DUP3 PUSH2 0x160 DUP3 ADD MSTORE ADD MSTORE PUSH1 0x4 CALLDATALOAD PUSH1 0x0 MSTORE PUSH1 0x1 PUSH1 0x20 MSTORE PUSH1 0x40 PUSH1 0x0 KECCAK256 PUSH1 0xA PUSH1 0x40 MLOAD SWAP2 PUSH2 0xA6A DUP4 PUSH2 0x15D6 JUMP JUMPDEST DUP1 SLOAD DUP4 MSTORE PUSH1 0x1 DUP2 ADD SLOAD PUSH1 0x1 PUSH1 0x1 PUSH1 0xA0 SHL SUB SWAP1 DUP2 AND PUSH1 0x20 DUP6 ADD MSTORE PUSH1 0x2 DUP3 ADD SLOAD AND PUSH1 0x40 DUP1 DUP6 ADD SWAP2 SWAP1 SWAP2 MSTORE MLOAD PUSH2 0xAAB DUP2 PUSH2 0xAA4 DUP2 PUSH1 0x3 DUP7 ADD PUSH2 0x1524 JUMP JUMPDEST SUB DUP3 PUSH2 0x15F3 JUMP JUMPDEST PUSH1 0x60 DUP5 ADD MSTORE PUSH1 0x40 MLOAD PUSH2 0xAC4 DUP2 PUSH2 0xAA4 DUP2 PUSH1 0x4 DUP7 ADD PUSH2 0x1524 JUMP JUMPDEST PUSH1 0x80 DUP5 ADD MSTORE PUSH1 0x5 DUP2 ADD SLOAD PUSH1 0xA0 DUP5 ADD MSTORE PUSH1 0x6 DUP2 ADD SLOAD PUSH1 0xC0 DUP5 ADD MSTORE PUSH1 0xFF PUSH1 0x7 DUP3 ADD SLOAD DUP2 DUP2 AND ISZERO ISZERO PUSH1 0xE0 DUP7 ADD MSTORE PUSH1 0x8 SHR AND ISZERO ISZERO PUSH2 0x100 DUP5 ADD MSTORE PUSH1 0x40 MLOAD PUSH2 0xB0E DUP2 PUSH2 0xAA4 DUP2 PUSH1 0x8 DUP7 ADD PUSH2 0x1524 JUMP JUMPDEST PUSH2 0x120 DUP5 ADD MSTORE PUSH1 0xFF PUSH1 0x9 DUP3 ADD SLOAD PUSH2 0xB2B DUP3 DUP3 AND PUSH2 0x140 DUP8 ADD PUSH2 0x166B JUMP JUMPDEST PUSH1 0x8 SHR AND ISZERO ISZERO PUSH2 0x160 DUP5 ADD MSTORE ADD SLOAD PUSH2 0x180 DUP3 ADD MSTORE PUSH1 0x40 MLOAD DUP1 SWAP2 PUSH1 0x20 DUP3 MSTORE DUP1 MLOAD PUSH1 0x20 DUP4 ADD MSTORE PUSH1 0x1 DUP1 PUSH1 0xA0 SHL SUB PUSH1 0x20 DUP3 ADD MLOAD AND PUSH1 0x40 DUP4 ADD MSTORE PUSH1 0x1 DUP1 PUSH1 0xA0 SHL SUB PUSH1 0x40 DUP3 ADD MLOAD AND PUSH1 0x60 DUP4 ADD MSTORE PUSH2 0x180 PUSH2 0xBF6 PUSH2 0xB94 PUSH1 0x60 DUP5 ADD MLOAD PUSH2 0x1A0 PUSH1 0x80 DUP8 ADD MSTORE PUSH2 0x1C0 DUP7 ADD SWAP1 PUSH2 0x14AA JUMP JUMPDEST PUSH2 0xBB0 PUSH1 0x80 DUP6 ADD MLOAD SWAP2 PUSH1 0x1F NOT SWAP3 DUP4 DUP9 DUP4 SUB ADD PUSH1 0xA0 DUP10 ADD MSTORE PUSH2 0x14AA JUMP JUMPDEST SWAP1 PUSH1 0xA0 DUP6 ADD MLOAD PUSH1 0xC0 DUP8 ADD MSTORE PUSH1 0xC0 DUP6 ADD MLOAD PUSH1 0xE0 DUP8 ADD MSTORE PUSH1 0xE0 DUP6 ADD MLOAD ISZERO ISZERO PUSH2 0x100 DUP8 ADD MSTORE PUSH2 0x100 DUP6 ADD MLOAD ISZERO ISZERO PUSH2 0x120 DUP8 ADD MSTORE PUSH2 0x120 DUP6 ADD MLOAD SWAP1 DUP7 DUP4 SUB ADD PUSH2 0x140 DUP8 ADD MSTORE PUSH2 0x14AA JUMP JUMPDEST SWAP2 PUSH2 0xC0B PUSH2 0x140 DUP3 ADD MLOAD PUSH2 0x160 DUP7 ADD SWAP1 PUSH2 0x146F JUMP JUMPDEST PUSH2 0x160 DUP2 ADD MLOAD ISZERO ISZERO DUP3 DUP6 ADD MSTORE ADD MLOAD PUSH2 0x1A0 DUP4 ADD MSTORE SUB SWAP1 RETURN JUMPDEST PUSH1 0xE0 CALLDATASIZE PUSH1 0x3 NOT ADD SLT PUSH2 0x3A5 JUMPI PUSH1 0x4 CALLDATALOAD PUSH1 0x1 PUSH1 0x1 PUSH1 0xA0 SHL SUB DUP2 AND SWAP1 SUB PUSH2 0x3A5 JUMPI PUSH1 0x44 CALLDATALOAD PUSH8 0xFFFFFFFFFFFFFFFF DUP2 GT PUSH2 0x3A5 JUMPI PUSH2 0xC62 SWAP1 CALLDATASIZE SWAP1 PUSH1 0x4 ADD PUSH2 0x147C JUMP JUMPDEST SWAP1 PUSH1 0x64 CALLDATALOAD PUSH8 0xFFFFFFFFFFFFFFFF DUP2 GT PUSH2 0x3A5 JUMPI PUSH2 0xC83 SWAP1 CALLDATASIZE SWAP1 PUSH1 0x4 ADD PUSH2 0x147C JUMP JUMPDEST SWAP3 SWAP1 PUSH1 0x84 CALLDATALOAD PUSH8 0xFFFFFFFFFFFFFFFF DUP2 GT PUSH2 0x3A5 JUMPI PUSH2 0xCA5 SWAP1 CALLDATASIZE SWAP1 PUSH1 0x4 ADD PUSH2 0x147C JUMP JUMPDEST PUSH1 0x9 PUSH1 0xA4 CALLDATALOAD LT ISZERO PUSH2 0x3A5 JUMPI PUSH1 0xC4 CALLDATALOAD SWAP6 DUP7 ISZERO ISZERO DUP8 SUB PUSH2 0x3A5 JUMPI PUSH2 0xCC5 PUSH2 0x16CB JUMP JUMPDEST TIMESTAMP PUSH1 0x24 CALLDATALOAD GT ISZERO PUSH2 0x11A3 JUMPI DUP5 ISZERO PUSH2 0x116F JUMPI PUSH2 0xD63 SWAP4 PUSH2 0xD3A SWAP2 PUSH2 0xD2E PUSH1 0x4 SLOAD SWAP9 PUSH2 0xCED DUP11 PUSH2 0x1615 JUMP JUMPDEST PUSH1 0x4 SWAP1 DUP2 SSTORE CALLDATALOAD PUSH1 0x1 PUSH1 0x1 PUSH1 0xA0 SHL SUB AND PUSH2 0x1166 JUMPI CALLER SWAP9 JUMPDEST PUSH1 0x40 MLOAD SWAP10 PUSH2 0xD10 DUP12 PUSH2 0x15D6 JUMP JUMPDEST DUP12 DUP12 MSTORE CALLER PUSH1 0x20 DUP13 ADD MSTORE PUSH1 0x1 PUSH1 0x1 PUSH1 0xA0 SHL SUB AND PUSH1 0x40 DUP12 ADD MSTORE CALLDATASIZE SWAP2 PUSH2 0x1624 JUMP JUMPDEST PUSH1 0x60 DUP9 ADD MSTORE CALLDATASIZE SWAP2 PUSH2 0x1624 JUMP JUMPDEST PUSH1 0x80 DUP6 ADD MSTORE PUSH1 0x24 CALLDATALOAD PUSH1 0xA0 DUP6 ADD MSTORE CALLVALUE PUSH1 0xC0 DUP6 ADD MSTORE PUSH1 0x0 PUSH1 0xE0 DUP6 ADD MSTORE PUSH1 0x0 PUSH2 0x100 DUP6 ADD MSTORE CALLDATASIZE SWAP2 PUSH2 0x1624 JUMP JUMPDEST PUSH2 0x120 DUP3 ADD MSTORE PUSH2 0xD79 PUSH1 0xA4 CALLDATALOAD PUSH2 0x140 DUP4 ADD PUSH2 0x166B JUMP JUMPDEST DUP3 ISZERO ISZERO PUSH2 0x160 DUP3 ADD MSTORE PUSH1 0x0 PUSH2 0x180 DUP3 ADD MSTORE DUP2 PUSH1 0x0 MSTORE PUSH1 0x1 PUSH1 0x20 MSTORE PUSH1 0x40 PUSH1 0x0 KECCAK256 SWAP1 DUP1 MLOAD DUP3 SSTORE PUSH1 0x1 DUP3 ADD PUSH1 0x1 DUP1 PUSH1 0xA0 SHL SUB PUSH1 0x20 DUP4 ADD MLOAD AND SWAP1 PUSH12 0xFFFFFFFFFFFFFFFFFFFFFFFF PUSH1 0xA0 SHL SWAP2 DUP3 DUP3 SLOAD AND OR SWAP1 SSTORE PUSH1 0x2 DUP4 ADD SWAP1 PUSH1 0x1 DUP1 PUSH1 0xA0 SHL SUB PUSH1 0x40 DUP5 ADD MLOAD AND SWAP1 DUP3 SLOAD AND OR SWAP1 SSTORE PUSH1 0x60 DUP2 ADD MLOAD DUP1 MLOAD SWAP1 PUSH8 0xFFFFFFFFFFFFFFFF DUP3 GT PUSH2 0x1056 JUMPI DUP2 SWAP1 PUSH2 0xE13 DUP3 PUSH2 0xE0A PUSH1 0x3 DUP9 ADD SLOAD PUSH2 0x14EA JUMP JUMPDEST PUSH1 0x3 DUP9 ADD PUSH2 0x1677 JUMP JUMPDEST PUSH1 0x20 SWAP1 PUSH1 0x1F DUP4 GT PUSH1 0x1 EQ PUSH2 0x10F4 JUMPI PUSH1 0x0 SWAP3 PUSH2 0x10E9 JUMPI JUMPDEST POP POP DUP2 PUSH1 0x1 SHL SWAP2 PUSH1 0x0 NOT SWAP1 PUSH1 0x3 SHL SHR NOT AND OR PUSH1 0x3 DUP4 ADD SSTORE JUMPDEST PUSH1 0x80 DUP2 ADD MLOAD DUP1 MLOAD SWAP1 PUSH8 0xFFFFFFFFFFFFFFFF DUP3 GT PUSH2 0x1056 JUMPI DUP2 SWAP1 PUSH2 0xE74 DUP3 PUSH2 0xE6B PUSH1 0x4 DUP9 ADD SLOAD PUSH2 0x14EA JUMP JUMPDEST PUSH1 0x4 DUP9 ADD PUSH2 0x1677 JUMP JUMPDEST PUSH1 0x20 SWAP1 PUSH1 0x1F DUP4 GT PUSH1 0x1 EQ PUSH2 0x1077 JUMPI PUSH1 0x0 SWAP3 PUSH2 0x106C JUMPI JUMPDEST POP POP DUP2 PUSH1 0x1 SHL SWAP2 PUSH1 0x0 NOT SWAP1 PUSH1 0x3 SHL SHR NOT AND OR PUSH1 0x4 DUP4 ADD SSTORE JUMPDEST PUSH1 0xA0 DUP2 ADD MLOAD PUSH1 0x5 DUP4 ADD SSTORE PUSH1 0xC0 DUP2 ADD MLOAD PUSH1 0x6 DUP4 ADD SSTORE PUSH2 0xEF5 PUSH1 0x7 DUP4 ADD PUSH2 0xED9 PUSH1 0xE0 DUP5 ADD MLOAD ISZERO ISZERO DUP3 SWAP1 PUSH1 0xFF DUP1 NOT DUP4 SLOAD AND SWAP2 ISZERO ISZERO AND OR SWAP1 SSTORE JUMP JUMPDEST PUSH2 0x100 DUP4 ADD MLOAD DUP2 SLOAD PUSH2 0xFF00 NOT AND SWAP1 ISZERO ISZERO PUSH1 0x8 SHL PUSH2 0xFF00 AND OR SWAP1 SSTORE JUMP JUMPDEST PUSH2 0x120 DUP2 ADD MLOAD DUP1 MLOAD SWAP1 PUSH8 0xFFFFFFFFFFFFFFFF DUP3 GT PUSH2 0x1056 JUMPI DUP2 SWAP1 PUSH2 0xF29 DUP3 PUSH2 0xF20 PUSH1 0x8 DUP9 ADD SLOAD PUSH2 0x14EA JUMP JUMPDEST PUSH1 0x8 DUP9 ADD PUSH2 0x1677 JUMP JUMPDEST PUSH1 0x20 SWAP1 PUSH1 0x1F DUP4 GT PUSH1 0x1 EQ PUSH2 0xFE4 JUMPI PUSH1 0x0 SWAP3 PUSH2 0xFD9 JUMPI JUMPDEST POP POP DUP2 PUSH1 0x1 SHL SWAP2 PUSH1 0x0 NOT SWAP1 PUSH1 0x3 SHL SHR NOT AND OR PUSH1 0x8 DUP4 ADD SSTORE JUMPDEST PUSH1 0x9 DUP3 ADD PUSH2 0x140 DUP3 ADD MLOAD SWAP2 PUSH1 0x9 DUP4 LT ISZERO PUSH2 0x653 JUMPI DUP2 SLOAD PUSH2 0x160 DUP3 ADD MLOAD PUSH2 0xFF00 SWAP1 ISZERO ISZERO PUSH1 0x8 SHL AND PUSH1 0xFF SWAP5 SWAP1 SWAP5 AND PUSH2 0xFFFF NOT SWAP1 SWAP2 AND OR SWAP3 SWAP1 SWAP3 OR SWAP1 SSTORE PUSH1 0xA SWAP1 PUSH2 0x180 ADD MLOAD SWAP2 ADD SSTORE PUSH1 0x40 MLOAD SWAP2 PUSH1 0x24 CALLDATALOAD DUP4 MSTORE ISZERO ISZERO PUSH1 0x20 DUP4 ADD MSTORE PUSH32 0xF72B5F29D907C4CDB318378FCA996A1404ACF683C3ADD631B8C4ABF1F3192265 PUSH1 0x40 CALLER SWAP4 LOG3 PUSH1 0x1 PUSH1 0x0 SSTORE STOP JUMPDEST ADD MLOAD SWAP1 POP DUP7 DUP1 PUSH2 0xF3F JUMP JUMPDEST SWAP3 POP PUSH1 0x8 DUP6 ADD PUSH1 0x0 MSTORE PUSH1 0x20 PUSH1 0x0 KECCAK256 SWAP1 PUSH1 0x0 SWAP4 JUMPDEST PUSH1 0x1F NOT DUP5 AND DUP6 LT PUSH2 0x103B JUMPI PUSH1 0x1 SWAP5 POP DUP4 PUSH1 0x1F NOT DUP2 AND LT PUSH2 0x1022 JUMPI JUMPDEST POP POP POP DUP2 SHL ADD PUSH1 0x8 DUP4 ADD SSTORE PUSH2 0xF57 JUMP JUMPDEST ADD MLOAD PUSH1 0x0 NOT PUSH1 0xF8 DUP5 PUSH1 0x3 SHL AND SHR NOT AND SWAP1 SSTORE DUP7 DUP1 DUP1 PUSH2 0x1012 JUMP JUMPDEST DUP2 DUP2 ADD MLOAD DUP4 SSTORE PUSH1 0x20 SWAP5 DUP6 ADD SWAP5 PUSH1 0x1 SWAP1 SWAP4 ADD SWAP3 SWAP1 SWAP2 ADD SWAP1 PUSH2 0xFF7 JUMP JUMPDEST PUSH4 0x4E487B71 PUSH1 0xE0 SHL PUSH1 0x0 MSTORE PUSH1 0x41 PUSH1 0x4 MSTORE PUSH1 0x24 PUSH1 0x0 REVERT JUMPDEST ADD MLOAD SWAP1 POP DUP7 DUP1 PUSH2 0xE8A JUMP JUMPDEST SWAP3 POP PUSH1 0x4 DUP6 ADD PUSH1 0x0 MSTORE PUSH1 0x20 PUSH1 0x0 KECCAK256 SWAP1 PUSH1 0x0 SWAP4 JUMPDEST PUSH1 0x1F NOT DUP5 AND DUP6 LT PUSH2 0x10CE JUMPI PUSH1 0x1 SWAP5 POP DUP4 PUSH1 0x1F NOT DUP2 AND LT PUSH2 0x10B5 JUMPI JUMPDEST POP POP POP DUP2 SHL ADD PUSH1 0x4 DUP4 ADD SSTORE PUSH2 0xEA2 JUMP JUMPDEST ADD MLOAD PUSH1 0x0 NOT PUSH1 0xF8 DUP5 PUSH1 0x3 SHL AND SHR NOT AND SWAP1 SSTORE DUP7 DUP1 DUP1 PUSH2 0x10A5 JUMP JUMPDEST DUP2 DUP2 ADD MLOAD DUP4 SSTORE PUSH1 0x20 SWAP5 DUP6 ADD SWAP5 PUSH1 0x1 SWAP1 SWAP4 ADD SWAP3 SWAP1 SWAP2 ADD SWAP1 PUSH2 0x108A JUMP JUMPDEST ADD MLOAD SWAP1 POP DUP7 DUP1 PUSH2 0xE29 JUMP JUMPDEST SWAP3 POP PUSH1 0x3 DUP6 ADD PUSH1 0x0 MSTORE PUSH1 0x20 PUSH1 0x0 KECCAK256 SWAP1 PUSH1 0x0 SWAP4 JUMPDEST PUSH1 0x1F NOT DUP5 AND DUP6 LT PUSH2 0x114B JUMPI PUSH1 0x1 SWAP5 POP DUP4 PUSH1 0x1F NOT DUP2 AND LT PUSH2 0x1132 JUMPI JUMPDEST POP POP POP DUP2 SHL ADD PUSH1 0x3 DUP4 ADD SSTORE PUSH2 0xE41 JUMP JUMPDEST ADD MLOAD PUSH1 0x0 NOT PUSH1 0xF8 DUP5 PUSH1 0x3 SHL AND SHR NOT AND SWAP1 SSTORE DUP7 DUP1 DUP1 PUSH2 0x1122 JUMP JUMPDEST DUP2 DUP2 ADD MLOAD DUP4 SSTORE PUSH1 0x20 SWAP5 DUP6 ADD SWAP5 PUSH1 0x1 SWAP1 SWAP4 ADD SWAP3 SWAP1 SWAP2 ADD SWAP1 PUSH2 0x1107 JUMP JUMPDEST PUSH1 0x4 CALLDATALOAD SWAP9 PUSH2 0xD03 JUMP JUMPDEST PUSH1 0x40 MLOAD PUSH3 0x461BCD PUSH1 0xE5 SHL DUP2 MSTORE PUSH1 0x20 PUSH1 0x4 DUP3 ADD MSTORE PUSH1 0xC PUSH1 0x24 DUP3 ADD MSTORE PUSH12 0x10D251081C995C5D5A5C9959 PUSH1 0xA2 SHL PUSH1 0x44 DUP3 ADD MSTORE PUSH1 0x64 SWAP1 REVERT JUMPDEST PUSH1 0x40 MLOAD PUSH3 0x461BCD PUSH1 0xE5 SHL DUP2 MSTORE PUSH1 0x20 PUSH1 0x4 DUP3 ADD MSTORE PUSH1 0x16 PUSH1 0x24 DUP3 ADD MSTORE PUSH22 0x54696D65206D75737420626520696E20667574757265 PUSH1 0x50 SHL PUSH1 0x44 DUP3 ADD MSTORE PUSH1 0x64 SWAP1 REVERT JUMPDEST CALLVALUE PUSH2 0x3A5 JUMPI PUSH1 0x20 DUP1 PUSH1 0x3 NOT CALLDATASIZE ADD SLT PUSH2 0x3A5 JUMPI PUSH1 0x4 CALLDATALOAD SWAP1 PUSH2 0x11FF PUSH2 0x16CB JUMP JUMPDEST DUP2 PUSH1 0x0 MSTORE PUSH1 0x1 DUP2 MSTORE PUSH1 0x40 PUSH1 0x0 KECCAK256 PUSH1 0x1 DUP1 PUSH1 0xA0 SHL SUB SWAP3 DUP4 PUSH1 0x1 DUP4 ADD SLOAD AND PUSH2 0x1226 DUP2 ISZERO ISZERO PUSH2 0x16EE JUMP JUMPDEST PUSH1 0x5 DUP4 ADD SLOAD TIMESTAMP LT PUSH2 0x137A JUMPI CALLER EQ DUP1 ISZERO PUSH2 0x136B JUMPI JUMPDEST ISZERO PUSH2 0x1337 JUMPI PUSH1 0x7 DUP3 ADD SWAP1 DUP2 SLOAD SWAP4 PUSH1 0xFF DUP6 AND PUSH2 0x1300 JUMPI PUSH1 0x1 PUSH1 0xFF NOT DUP7 AND OR SWAP2 DUP3 DUP5 SSTORE PUSH32 0x94B202B76E66F9B1A5A934D9335701186B3B52632F9A4DA8763DA9EF4D2854F4 PUSH1 0xFF PUSH1 0x9 DUP8 ADD SLOAD AND SWAP3 PUSH2 0x1292 PUSH1 0x40 MLOAD DUP1 SWAP6 PUSH2 0x146F JUMP JUMPDEST CALLER SWAP4 LOG3 PUSH1 0x6 DUP4 ADD SLOAD SWAP1 DUP2 ISZERO SWAP1 DUP2 ISZERO SWAP1 DUP2 PUSH2 0x12F1 JUMPI JUMPDEST POP PUSH2 0x12B4 JUMPI JUMPDEST PUSH1 0x1 PUSH1 0x0 SSTORE STOP JUMPDEST PUSH1 0x0 SWAP6 PUSH1 0x2 DUP8 SWAP7 SWAP6 DUP8 SWAP7 SWAP6 PUSH2 0x101 DUP9 SWAP8 PUSH2 0xFFFF NOT AND OR SWAP1 SSTORE ADD SLOAD AND SWAP1 DUP4 SWAP1 PUSH2 0x12E8 JUMPI JUMPDEST CALL ISZERO PUSH2 0x560 JUMPI DUP1 DUP1 DUP1 DUP1 DUP1 DUP1 PUSH2 0x12AD JUMP JUMPDEST POP PUSH2 0x8FC PUSH2 0x12D7 JUMP JUMPDEST PUSH1 0xFF SWAP2 POP PUSH1 0x8 SHR AND ISZERO DUP8 PUSH2 0x12A7 JUMP JUMPDEST PUSH1 0x64 SWAP1 PUSH1 0x40 MLOAD SWAP1 PUSH3 0x461BCD PUSH1 0xE5 SHL DUP3 MSTORE PUSH1 0x4 DUP3 ADD MSTORE PUSH1 0x10 PUSH1 0x24 DUP3 ADD MSTORE PUSH16 0x105B1C9958591E481D5B9B1BD8DAD959 PUSH1 0x82 SHL PUSH1 0x44 DUP3 ADD MSTORE REVERT JUMPDEST PUSH1 0x40 MLOAD PUSH3 0x461BCD PUSH1 0xE5 SHL DUP2 MSTORE PUSH1 0x4 DUP2 ADD DUP5 SWAP1 MSTORE PUSH1 0xC PUSH1 0x24 DUP3 ADD MSTORE PUSH12 0x155B985D5D1A1BDC9A5E9959 PUSH1 0xA2 SHL PUSH1 0x44 DUP3 ADD MSTORE PUSH1 0x64 SWAP1 REVERT JUMPDEST POP DUP4 PUSH1 0x2 DUP4 ADD SLOAD AND CALLER EQ PUSH2 0x123A JUMP JUMPDEST PUSH1 0x40 MLOAD PUSH3 0x461BCD PUSH1 0xE5 SHL DUP2 MSTORE PUSH1 0x4 DUP2 ADD DUP6 SWAP1 MSTORE PUSH1 0x7 PUSH1 0x24 DUP3 ADD MSTORE PUSH7 0x139BDD081E595D PUSH1 0xCA SHL PUSH1 0x44 DUP3 ADD MSTORE PUSH1 0x64 SWAP1 REVERT JUMPDEST CALLVALUE PUSH2 0x3A5 JUMPI PUSH1 0x40 CALLDATASIZE PUSH1 0x3 NOT ADD SLT PUSH2 0x3A5 JUMPI PUSH1 0x60 DUP2 PUSH2 0x13C8 PUSH1 0x0 SWAP4 PUSH2 0x15BA JUMP JUMPDEST DUP3 DUP2 MSTORE DUP3 PUSH1 0x20 DUP3 ADD MSTORE DUP3 PUSH1 0x40 DUP3 ADD MSTORE ADD MSTORE PUSH1 0x4 CALLDATALOAD PUSH1 0x0 MSTORE PUSH1 0x2 PUSH1 0x20 MSTORE PUSH1 0x80 PUSH2 0x13F6 PUSH1 0x24 CALLDATALOAD PUSH1 0x40 PUSH1 0x0 KECCAK256 PUSH2 0x1726 JUMP JUMPDEST POP PUSH1 0x40 MLOAD SWAP1 PUSH2 0x1404 DUP3 PUSH2 0x15BA JUMP JUMPDEST DUP1 SLOAD PUSH1 0x1 PUSH1 0x1 PUSH1 0xA0 SHL SUB DUP1 DUP3 AND DUP5 MSTORE SWAP2 SWAP1 PUSH2 0x145F SWAP1 PUSH1 0x20 DUP6 ADD SWAP1 PUSH2 0x142E SWAP1 PUSH1 0xA0 SHR PUSH1 0xFF AND DUP3 PUSH2 0x166B JUMP JUMPDEST PUSH1 0xFF PUSH1 0x2 PUSH1 0x1 DUP6 ADD SLOAD SWAP5 PUSH1 0x40 DUP9 ADD SWAP6 DUP7 MSTORE ADD SLOAD AND SWAP4 PUSH1 0x60 DUP7 ADD SWAP5 ISZERO ISZERO DUP6 MSTORE PUSH1 0x40 MLOAD SWAP6 MLOAD AND DUP6 MSTORE MLOAD PUSH1 0x20 DUP6 ADD SWAP1 PUSH2 0x146F JUMP JUMPDEST MLOAD PUSH1 0x40 DUP4 ADD MSTORE MLOAD ISZERO ISZERO PUSH1 0x60 DUP3 ADD MSTORE RETURN JUMPDEST SWAP1 PUSH1 0x9 DUP3 LT ISZERO PUSH2 0x653 JUMPI MSTORE JUMP JUMPDEST SWAP2 DUP2 PUSH1 0x1F DUP5 ADD SLT ISZERO PUSH2 0x3A5 JUMPI DUP3 CALLDATALOAD SWAP2 PUSH8 0xFFFFFFFFFFFFFFFF DUP4 GT PUSH2 0x3A5 JUMPI PUSH1 0x20 DUP4 DUP2 DUP7 ADD SWAP6 ADD ADD GT PUSH2 0x3A5 JUMPI JUMP JUMPDEST SWAP2 SWAP1 DUP3 MLOAD SWAP3 DUP4 DUP3 MSTORE PUSH1 0x0 JUMPDEST DUP5 DUP2 LT PUSH2 0x14D6 JUMPI POP POP DUP3 PUSH1 0x0 PUSH1 0x20 DUP1 SWAP5 SWAP6 DUP5 ADD ADD MSTORE PUSH1 0x1F DUP1 NOT SWAP2 ADD AND ADD ADD SWAP1 JUMP JUMPDEST PUSH1 0x20 DUP2 DUP4 ADD DUP2 ADD MLOAD DUP5 DUP4 ADD DUP3 ADD MSTORE ADD PUSH2 0x14B5 JUMP JUMPDEST SWAP1 PUSH1 0x1 DUP3 DUP2 SHR SWAP3 AND DUP1 ISZERO PUSH2 0x151A JUMPI JUMPDEST PUSH1 0x20 DUP4 LT EQ PUSH2 0x1504 JUMPI JUMP JUMPDEST PUSH4 0x4E487B71 PUSH1 0xE0 SHL PUSH1 0x0 MSTORE PUSH1 0x22 PUSH1 0x4 MSTORE PUSH1 0x24 PUSH1 0x0 REVERT JUMPDEST SWAP2 PUSH1 0x7F AND SWAP2 PUSH2 0x14F9 JUMP JUMPDEST SWAP1 PUSH1 0x0 SWAP3 SWAP2 DUP1 SLOAD SWAP2 PUSH2 0x1535 DUP4 PUSH2 0x14EA JUMP JUMPDEST SWAP2 DUP3 DUP3 MSTORE PUSH1 0x1 SWAP4 DUP5 DUP2 AND SWAP1 DUP2 PUSH1 0x0 EQ PUSH2 0x1597 JUMPI POP PUSH1 0x1 EQ PUSH2 0x1557 JUMPI JUMPDEST POP POP POP POP JUMP JUMPDEST SWAP1 SWAP2 SWAP4 SWAP5 POP PUSH1 0x0 MSTORE PUSH1 0x20 SWAP3 DUP4 PUSH1 0x0 KECCAK256 SWAP3 DUP5 PUSH1 0x0 SWAP5 JUMPDEST DUP4 DUP7 LT PUSH2 0x1583 JUMPI POP POP POP POP ADD ADD SWAP1 CODESIZE DUP1 DUP1 DUP1 PUSH2 0x1551 JUMP JUMPDEST DUP1 SLOAD DUP6 DUP8 ADD DUP4 ADD MSTORE SWAP5 ADD SWAP4 DUP6 SWAP1 DUP3 ADD PUSH2 0x156C JUMP JUMPDEST SWAP3 SWAP5 POP POP POP PUSH1 0x20 SWAP4 SWAP5 POP PUSH1 0xFF NOT AND DUP4 DUP4 ADD MSTORE ISZERO ISZERO PUSH1 0x5 SHL ADD ADD SWAP1 CODESIZE DUP1 DUP1 DUP1 PUSH2 0x1551 JUMP JUMPDEST PUSH1 0x80 DUP2 ADD SWAP1 DUP2 LT PUSH8 0xFFFFFFFFFFFFFFFF DUP3 GT OR PUSH2 0x1056 JUMPI PUSH1 0x40 MSTORE JUMP JUMPDEST PUSH2 0x1A0 DUP2 ADD SWAP1 DUP2 LT PUSH8 0xFFFFFFFFFFFFFFFF DUP3 GT OR PUSH2 0x1056 JUMPI PUSH1 0x40 MSTORE JUMP JUMPDEST SWAP1 PUSH1 0x1F DUP1 NOT SWAP2 ADD AND DUP2 ADD SWAP1 DUP2 LT PUSH8 0xFFFFFFFFFFFFFFFF DUP3 GT OR PUSH2 0x1056 JUMPI PUSH1 0x40 MSTORE JUMP JUMPDEST PUSH1 0x0 NOT DUP2 EQ PUSH2 0x5C3 JUMPI PUSH1 0x1 ADD SWAP1 JUMP JUMPDEST SWAP3 SWAP2 SWAP3 PUSH8 0xFFFFFFFFFFFFFFFF DUP3 GT PUSH2 0x1056 JUMPI PUSH1 0x40 MLOAD SWAP2 PUSH2 0x164E PUSH1 0x1F DUP3 ADD PUSH1 0x1F NOT AND PUSH1 0x20 ADD DUP5 PUSH2 0x15F3 JUMP JUMPDEST DUP3 SWAP5 DUP2 DUP5 MSTORE DUP2 DUP4 ADD GT PUSH2 0x3A5 JUMPI DUP3 DUP2 PUSH1 0x20 SWAP4 DUP5 PUSH1 0x0 SWAP7 ADD CALLDATACOPY ADD ADD MSTORE JUMP JUMPDEST PUSH1 0x9 DUP3 LT ISZERO PUSH2 0x653 JUMPI MSTORE JUMP JUMPDEST SWAP1 PUSH1 0x1F DUP2 GT PUSH2 0x1685 JUMPI POP POP POP JUMP JUMPDEST PUSH1 0x0 SWAP2 DUP3 MSTORE PUSH1 0x20 DUP3 KECCAK256 SWAP1 PUSH1 0x20 PUSH1 0x1F DUP6 ADD PUSH1 0x5 SHR DUP4 ADD SWAP5 LT PUSH2 0x16C1 JUMPI JUMPDEST PUSH1 0x1F ADD PUSH1 0x5 SHR ADD SWAP2 JUMPDEST DUP3 DUP2 LT PUSH2 0x16B6 JUMPI POP POP POP JUMP JUMPDEST DUP2 DUP2 SSTORE PUSH1 0x1 ADD PUSH2 0x16AA JUMP JUMPDEST SWAP1 SWAP3 POP DUP3 SWAP1 PUSH2 0x16A1 JUMP JUMPDEST PUSH1 0x2 PUSH1 0x0 SLOAD EQ PUSH2 0x16DC JUMPI PUSH1 0x2 PUSH1 0x0 SSTORE JUMP JUMPDEST PUSH1 0x40 MLOAD PUSH4 0x3EE5AEB5 PUSH1 0xE0 SHL DUP2 MSTORE PUSH1 0x4 SWAP1 REVERT JUMPDEST ISZERO PUSH2 0x16F5 JUMPI JUMP JUMPDEST PUSH1 0x40 MLOAD PUSH3 0x461BCD PUSH1 0xE5 SHL DUP2 MSTORE PUSH1 0x20 PUSH1 0x4 DUP3 ADD MSTORE PUSH1 0x9 PUSH1 0x24 DUP3 ADD MSTORE PUSH9 0x139BDD08199BDD5B99 PUSH1 0xBA SHL PUSH1 0x44 DUP3 ADD MSTORE PUSH1 0x64 SWAP1 REVERT JUMPDEST DUP1 SLOAD DUP3 LT ISZERO PUSH2 0x1742 JUMPI PUSH1 0x0 MSTORE PUSH1 0x3 PUSH1 0x20 PUSH1 0x0 KECCAK256 SWAP2 MUL ADD SWAP1 PUSH1 0x0 SWAP1 JUMP JUMPDEST PUSH4 0x4E487B71 PUSH1 0xE0 SHL PUSH1 0x0 MSTORE PUSH1 0x32 PUSH1 0x4 MSTORE PUSH1 0x24 PUSH1 0x0 REVERT JUMPDEST SWAP2 SWAP1 DUP3 ADD DUP1 SWAP3 GT PUSH2 0x5C3 JUMPI JUMP INVALID LOG2 PUSH5 0x6970667358 0x22 SLT KECCAK256 LOG4 SDIV 0x4C 0xD5 0xE2 PUSH28 0xF5FCDA9BF5E799DF9AF217F9A6853FA4177AC7F592213F1C29756473 PUSH16 0x6C634300081400330000000000000000 "},"methodIdentifiers":{"GRACE_PERIOD()":"c1a287e2","MIN_PREDICTION_STAKE()":"4a098c77","capsules(uint256)":"517bbf46","claimReward(uint256)":"ae169a50","createCapsule(address,uint256,string,bytes,string,uint8,bool)":"2c76d395","daoTreasury()":"79022a9f","getCapsule(uint256)":"3aac3858","getPrediction(uint256,uint256)":"1b0a102c","getPredictionCount(uint256)":"5d45dcf5","hasPredicted(uint256,address)":"85d6b426","makePrediction(uint256,uint8)":"ec3bc06b","nextCapsuleId()":"ae3cfaed","unlockCapsule(uint256)":"2178c0a2"}}}}}