{"contracts/TimeCapsule.sol":{"TimeCapsule":{"abi":[{"inputs":[{"internalType":"address","name":"_daoTreasury","type":"address"}],"stateMutability":"nonpayable","type":"constructor"},{"inputs":[],"name":"ReentrancyGuardReentrantCall","type":"error"},{"anonymous":false,"inputs":[{"indexed":true,"internalType":"uint256","name":"id","type":"uint256"},{"indexed":true,"internalType":"address","name":"creator","type":"address"},{"indexed":false,"internalType":"uint256","name":"unlockTime","type":"uint256"},{"indexed":false,"internalType":"bool","name":"isPublic","type":"bool"}],"name":"CapsuleCreated","type":"event"},{"anonymous":false,"inputs":[{"indexed":true,"internalType":"uint256","name":"id","type":"uint256"},{"indexed":true,"internalType":"address","name":"creator","type":"address"}],"name":"CapsuleDeleted","type":"event"},{"anonymous":false,"inputs":[{"indexed":true,"internalType":"uint256","name":"id","type":"uint256"},{"indexed":true,"internalType":"address","name":"unlocker","type":"address"},{"indexed":false,"internalType":"enum TimeCapsule.Category","name":"actualCategory","type":"uint8"}],"name":"CapsuleUnlocked","type":"event"},{"anonymous":false,"inputs":[{"indexed":true,"internalType":"uint256","name":"capsuleId","type":"uint256"},{"indexed":true,"internalType":"address","name":"predictor","type":"address"},{"indexed":false,"internalType":"enum TimeCapsule.Category","name":"guess","type":"uint8"},{"indexed":false,"internalType":"uint256","name":"stakeAmount","type":"uint256"}],"name":"PredictionMade","type":"event"},{"anonymous":false,"inputs":[{"indexed":true,"internalType":"uint256","name":"capsuleId","type":"uint256"},{"indexed":true,"internalType":"address","name":"predictor","type":"address"},{"indexed":false,"internalType":"uint256","name":"reward","type":"uint256"}],"name":"RewardClaimed","type":"event"},{"inputs":[],"name":"GRACE_PERIOD","outputs":[{"internalType":"uint256","name":"","type":"uint256"}],"stateMutability":"view","type":"function"},{"inputs":[],"name":"MIN_PREDICTION_STAKE","outputs":[{"internalType":"uint256","name":"","type":"uint256"}],"stateMutability":"view","type":"function"},{"inputs":[{"internalType":"uint256","name":"","type":"uint256"}],"name":"capsules","outputs":[{"internalType":"uint256","name":"id","type":"uint256"},{"internalType":"address","name":"creator","type":"address"},{"internalType":"address","name":"recipient","type":"address"},{"internalType":"string","name":"ipfsCID","type":"string"},{"internalType":"bytes","name":"encryptedKey","type":"bytes"},{"internalType":"uint256","name":"unlockTime","type":"uint256"},{"internalType":"uint256","name":"stakeAmount","type":"uint256"},{"internalType":"bool","name":"isUnlocked","type":"bool"},{"internalType":"bool","name":"stakeReleased","type":"bool"},{"internalType":"string","name":"hint","type":"string"},{"internalType":"enum TimeCapsule.Category","name":"actualCategory","type":"uint8"},{"internalType":"bool","name":"isPublic","type":"bool"},{"internalType":"uint256","name":"predictionPool","type":"uint256"}],"stateMutability":"view","type":"function"},{"inputs":[{"internalType":"uint256","name":"_id","type":"uint256"}],"name":"claimReward","outputs":[],"stateMutability":"nonpayable","type":"function"},{"inputs":[{"internalType":"address","name":"_recipient","type":"address"},{"internalType":"uint256","name":"_unlockTime","type":"uint256"},{"internalType":"string","name":"_ipfsCid","type":"string"},{"internalType":"bytes","name":"_encryptedKey","type":"bytes"},{"internalType":"string","name":"_hint","type":"string"},{"internalType":"enum TimeCapsule.Category","name":"_category","type":"uint8"},{"internalType":"bool","name":"_isPublic","type":"bool"}],"name":"createCapsule","outputs":[],"stateMutability":"payable","type":"function"},{"inputs":[],"name":"daoTreasury","outputs":[{"internalType":"address","name":"","type":"address"}],"stateMutability":"view","type":"function"},{"inputs":[{"internalType":"uint256","name":"_id","type":"uint256"}],"name":"deleteCapsule","outputs":[],"stateMutability":"nonpayable","type":"function"},{"inputs":[{"internalType":"uint256","name":"_id","type":"uint256"}],"name":"getCapsule","outputs":[{"components":[{"internalType":"uint256","name":"id","type":"uint256"},{"internalType":"address","name":"creator","type":"address"},{"internalType":"address","name":"recipient","type":"address"},{"internalType":"string","name":"ipfsCID","type":"string"},{"internalType":"bytes","name":"encryptedKey","type":"bytes"},{"internalType":"uint256","name":"unlockTime","type":"uint256"},{"internalType":"uint256","name":"stakeAmount","type":"uint256"},{"internalType":"bool","name":"isUnlocked","type":"bool"},{"internalType":"bool","name":"stakeReleased","type":"bool"},{"internalType":"string","name":"hint","type":"string"},{"internalType":"enum TimeCapsule.Category","name":"actualCategory","type":"uint8"},{"internalType":"bool","name":"isPublic","type":"bool"},{"internalType":"uint256","name":"predictionPool","type":"uint256"}],"internalType":"struct TimeCapsule.Capsule","name":"","type":"tuple"}],"stateMutability":"view","type":"function"},{"inputs":[{"internalType":"uint256","name":"_id","type":"uint256"},{"internalType":"uint256","name":"_idx","type":"uint256"}],"name":"getPrediction","outputs":[{"components":[{"internalType":"address","name":"predictor","type":"address"},{"internalType":"enum TimeCapsule.Category","name":"guess","type":"uint8"},{"internalType":"uint256","name":"stakeAmount","type":"uint256"},{"internalType":"bool","name":"claimed","type":"bool"}],"internalType":"struct TimeCapsule.Prediction","name":"","type":"tuple"}],"stateMutability":"view","type":"function"},{"inputs":[{"internalType":"uint256","name":"_id","type":"uint256"}],"name":"getPredictionCount","outputs":[{"internalType":"uint256","name":"","type":"uint256"}],"stateMutability":"view","type":"function"},{"inputs":[{"internalType":"uint256","name":"","type":"uint256"},{"internalType":"address","name":"","type":"address"}],"name":"hasPredicted","outputs":[{"internalType":"bool","name":"","type":"bool"}],"stateMutability":"view","type":"function"},{"inputs":[{"internalType":"uint256","name":"_id","type":"uint256"},{"internalType":"enum TimeCapsule.Category","name":"_guess","type":"uint8"}],"name":"makePrediction","outputs":[],"stateMutability":"payable","type":"function"},{"inputs":[],"name":"nextCapsuleId","outputs":[{"internalType":"uint256","name":"","type":"uint256"}],"stateMutability":"view","type":"function"},{"inputs":[{"internalType":"uint256","name":"_id","type":"uint256"}],"name":"unlockCapsule","outputs":[],"stateMutability":"nonpayable","type":"function"}],"evm":{"bytecode":{"linkReferences":{},"object":"60a0346100ad57601f611b5738819003918201601f19168301916001600160401b038311848410176100b2578084926020946040528339810103126100ad57516001600160a01b0381168082036100ad5760016000551561007557608052604051611a8e90816100c98239608051816108230152f35b60405162461bcd60e51b815260206004820152601060248201526f496e76616c696420547265617375727960801b6044820152606490fd5b600080fd5b634e487b7160e01b600052604160045260246000fdfe608080604052600436101561001357600080fd5b60003560e01c9081631b0a102c1461160a575080632178c0a21461147357806329d72336146111ec5780632c76d39514610c2e5780633aac3858146109e75780634a098c77146109c5578063517bbf461461087e5780635d45dcf51461085257806379022a9f1461080d57806385d6b426146107bb578063ae169a50146103f2578063ae3cfaed146103d4578063c1a287e2146103b55763ec3bc06b146100b957600080fd5b60403660031901126103b0576024803560043560098210156103b0576100dd611936565b8060005260019260209084825260406000209060018060a01b036101078188850154161515611959565b60ff600984015460081c16806103a1575b1561036c57600583015442101561033d578460005260038452604060002033600052845260ff604060002054166103055766038d7ea4c6800034106102d1578460005260028452604060002090604051926101728461181b565b3384528584019061018389836118cc565b6040850192348452606086019460008652805490680100000000000000008210156102bc57906101b7918d82018155611991565b9690966102a757511690855492826bffffffffffffffffffffffff60a01b85161787555190600982101561029357506001600160a81b03199092161760a09190911b60ff60a01b16178355518783015551600291909101805491151560ff1660ff1992909216919091179055600a908360005260038352604060002033600052835260406000208660ff19825416179055016102543482546119c3565b905561026360405180946116d0565b34908301527fda30f73a3e960b5ac088351f9267cabe93697fa1626149956fb9a54bc6d07b9560403393a3600055005b634e487b7160e01b60009081526021600452fd5b82634e487b7160e01b60005260006004526000fd5b83634e487b7160e01b60005260416004526000fd5b60405162461bcd60e51b815260048101859052600d818401526c5374616b6520746f6f206c6f7760981b6044820152606490fd5b60405162461bcd60e51b81526004810185905260118184015270105b1c9958591e481c1c99591a58dd1959607a1b6044820152606490fd5b60405162461bcd60e51b81526004810185905260088184015267546f6f206c61746560c01b6044820152606490fd5b60405162461bcd60e51b815260048101859052600e818401526d10d85b9b9bdd081c1c99591a58dd60921b6044820152606490fd5b5060ff60078401541615610118565b600080fd5b346103b05760003660031901126103b05760206040516301e133808152f35b346103b05760003660031901126103b0576020600454604051908152f35b346103b05760203660031901126103b05761040b611936565b6004356000526001602052604060002060ff6007820154161561078757600435600052600360205260406000203360005260205260ff604060002054161561075257600435600052600260205260406000206000906000808254905b81811061071a575b5050156106de5760ff60026104848484611991565b500154166106a757600960ff61049a8484611991565b505460a01c1693019260ff84541690600982101561065e57600981101561065e57036106745760026104cc8383611991565b5001600160ff1982541617905560009060009360009060ff8354915416905b8083106105ed5750505060016105018483611991565b500154928215918215806105e4575b610580575b5050505080915060008115610577575b600080809381933390f11561056b5760405190815233907f24b5efa61dd1cfc659205a97fb8ed868f3cb8c81922bab2b96423e5de1de2cb7602060043592a36001600055005b6040513d6000823e3d90fd5b506108fc610525565b60019161058c91611991565b5001548481029481860414901517156105ce576105b8576105ae9204906119c3565b8082808080610515565b634e487b7160e01b600052601260045260246000fd5b634e487b7160e01b600052601160045260246000fd5b50851515610510565b90919360ff6105fc8686611991565b505460a01c16600984101561065e57600981101561065e5783036106435761063661063c91600161062d8888611991565b500154906119c3565b94611876565b91906104eb565b939561065861063c91600161062d8a88611991565b96611876565b634e487b7160e01b600052602160045260246000fd5b60405162461bcd60e51b815260206004820152600b60248201526a57726f6e6720677565737360a81b6044820152606490fd5b60405162461bcd60e51b815260206004820152600f60248201526e105b1c9958591e4818db185a5b5959608a1b6044820152606490fd5b60405162461bcd60e51b8152602060048201526014602482015273141c99591a58dd1a5bdb881b9bdd08199bdd5b9960621b6044820152606490fd5b6107248185611991565b50546001600160a01b031633146107435761073e90611876565b610467565b9293505050906001848061046f565b60405162461bcd60e51b815260206004820152600d60248201526c273790383932b234b1ba34b7b760991b6044820152606490fd5b60405162461bcd60e51b815260206004820152600c60248201526b139bdd081d5b9b1bd8dad95960a21b6044820152606490fd5b346103b05760403660031901126103b0576024356001600160a01b038116908190036103b0576004356000526003602052604060002090600052602052602060ff604060002054166040519015158152f35b346103b05760003660031901126103b0576040517f00000000000000000000000000000000000000000000000000000000000000006001600160a01b03168152602090f35b346103b05760203660031901126103b05760043560005260026020526020604060002054604051908152f35b346103b05760203660031901126103b057600435600052600160205260406000208054600160a01b60019003918260018201541692600282015416604051808060038501906108cc91611785565b036108d79082611854565b604051806108e88160048701611785565b036108f39082611854565b600584015490600685015460078601549160405194858060088a019061091891611785565b036109239087611854565b600988015497600a0154966040519a8b9a8b5260208b015260408a01526101a08060608b015289016109549161170b565b88810360808a01526109659161170b565b9260a088015260c087015260ff8116151560e087015260081c60ff16151561010086015284810361012086015261099b9161170b565b916109ad610140850160ff83166116d0565b60081c60ff1615156101608401526101808301520390f35b346103b05760003660031901126103b057602060405166038d7ea4c680008152f35b346103b05760203660031901126103b0576000610180604051610a0981611837565b828152826020820152826040820152606080820152606060808201528260a08201528260c08201528260e08201528261010082015260606101208201528261014082015282610160820152015260043560005260016020526040600020600a60405191610a7583611837565b8054835260018101546001600160a01b03908116602085015260028201541660408085019190915251610ab681610aaf8160038601611785565b0382611854565b6060840152604051610acf81610aaf8160048601611785565b6080840152600581015460a0840152600681015460c084015260ff6007820154818116151560e086015260081c161515610100840152604051610b1981610aaf8160088601611785565b61012084015260ff6009820154610b3682821661014087016118cc565b60081c16151561016084015201546101808201526040518091602082528051602083015260018060a01b03602082015116604083015260018060a01b036040820151166060830152610180610c01610b9f60608401516101a060808701526101c086019061170b565b610bbb608085015191601f1992838883030160a089015261170b565b9060a085015160c087015260c085015160e087015260e085015115156101008701526101008501511515610120870152610120850151908683030161014087015261170b565b91610c166101408201516101608601906116d0565b61016081015115158285015201516101a08301520390f35b60e03660031901126103b0576004356001600160a01b03811690036103b05760443567ffffffffffffffff81116103b057610c6d9036906004016116dd565b9060643567ffffffffffffffff81116103b057610c8e9036906004016116dd565b929060843567ffffffffffffffff81116103b057610cb09036906004016116dd565b600960a43510156103b05760c4359586151587036103b057610cd0611936565b4260243511156111ae57841561117a57610d6e93610d4591610d3960045498610cf88a611876565b6004908155356001600160a01b03166111715733985b60405199610d1b8b611837565b8b8b523360208c01526001600160a01b031660408b01523691611885565b60608801523691611885565b608085015260243560a08501523460c0850152600060e085015260006101008501523691611885565b610120820152610d8460a43561014083016118cc565b8215156101608201526000610180820152816000526001602052604060002090805182556001820160018060a01b03602083015116906bffffffffffffffffffffffff60a01b9182825416179055600283019060018060a01b0360408401511690825416179055606081015180519067ffffffffffffffff8211611061578190610e1e82610e15600388015461174b565b600388016118ef565b602090601f83116001146110ff576000926110f4575b50508160011b916000199060031b1c19161760038301555b608081015180519067ffffffffffffffff8211611061578190610e7f82610e76600488015461174b565b600488016118ef565b602090601f831160011461108257600092611077575b50508160011b916000199060031b1c19161760048301555b60a0810151600583015560c08101516006830155610f0060078301610ee460e08401511515829060ff801983541691151516179055565b610100830151815461ff00191690151560081b61ff0016179055565b61012081015180519067ffffffffffffffff8211611061578190610f3482610f2b600888015461174b565b600888016118ef565b602090601f8311600114610fef57600092610fe4575b50508160011b916000199060031b1c19161760088301555b6009820161014082015191600983101561065e57815461016082015161ff0090151560081b1660ff9490941661ffff1990911617929092179055600a906101800151910155604051916024358352151560208301527ff72b5f29d907c4cdb318378fca996a1404acf683c3add631b8c4abf1f319226560403393a36001600055005b015190508680610f4a565b9250600885016000526020600020906000935b601f1984168510611046576001945083601f1981161061102d575b505050811b016008830155610f62565b015160001960f88460031b161c1916905586808061101d565b81810151835560209485019460019093019290910190611002565b634e487b7160e01b600052604160045260246000fd5b015190508680610e95565b9250600485016000526020600020906000935b601f19841685106110d9576001945083601f198116106110c0575b505050811b016004830155610ead565b015160001960f88460031b161c191690558680806110b0565b81810151835560209485019460019093019290910190611095565b015190508680610e34565b9250600385016000526020600020906000935b601f1984168510611156576001945083601f1981161061113d575b505050811b016003830155610e4c565b015160001960f88460031b161c1916905586808061112d565b81810151835560209485019460019093019290910190611112565b60043598610d0e565b60405162461bcd60e51b815260206004820152600c60248201526b10d251081c995c5d5a5c995960a21b6044820152606490fd5b60405162461bcd60e51b815260206004820152601660248201527554696d65206d75737420626520696e2066757475726560501b6044820152606490fd5b346103b0576020806003193601126103b0576004359061120a611936565b81600052600191828252604060002060018060a01b0390818582015416611232811515611959565b330361143f578061124c60ff6007600694015416156119d0565b0154928260005284600292838352604060002090826000905b6113cd575b5050505082600052848152604060002091600083556000868401556000818401556000600a60039461129d868201611a0f565b600481016112ab815461174b565b9081611392575b50508260058201558260068201558260078201556112d260088201611a0f565b8260098201550155836000528082526040600020918254926000815583611356575b505050505033907fb3b81ecf84aacbe9d91ae268652677f6c35fb924934e461744004cfd6cd2ab14600080a380158015611330575b6000839055005b60008080938193829061134d575b3390f11561056b578180611329565b506108fc61133e565b83850293858504036105ce57600052600020918201915b82811061137a57806112f4565b8060008592556000888201556000838201550161136d565b81601f8693116001146113a95750555b89806112b2565b8183528783209183916113c690601f0160051c8401848f016118d8565b55556113a2565b825481101561143a57836113e18285611991565b5001546113f8575b6113f290611876565b83611265565b925060008080808461140a8888611991565b5054168c6114188989611991565b50015490828215611431575bf11561056b5787926113e9565b506108fc611424565b61126a565b60405162461bcd60e51b815260048101859052600c60248201526b27b7363c9031b932b0ba37b960a11b6044820152606490fd5b346103b05760203660031901126103b05760043561148f611936565b80600052600160205260406000209060018060a01b0391826001820154166114b8811515611959565b600582015442106115db57331480156115cc575b1561159857600781018054926114e560ff8516156119d0565b600160ff198516179081835560ff6009850154169061150760405180936116d0565b7f94b202b76e66f9b1a5a934d9335701186b3b52632f9a4da8763da9ef4d2854f460203393a360068301549081159081159081611589575b5061154c575b6001600055005b6000956002879695879695610101889761ffff1916179055015416908390611580575bf11561056b57808080808080611545565b506108fc61156f565b60ff915060081c16158761153f565b60405162461bcd60e51b815260206004820152600c60248201526b155b985d5d1a1bdc9a5e995960a21b6044820152606490fd5b508260028201541633146114cc565b60405162461bcd60e51b8152602060048201526007602482015266139bdd081e595d60ca1b6044820152606490fd5b346103b05760403660031901126103b05760608161162960009361181b565b8281528260208201528260408201520152600435600052600260205260806116576024356040600020611991565b50604051906116658261181b565b80546001600160a01b03808216845291906116c090602085019061168f9060a01c60ff16826118cc565b60ff6002600185015494604088019586520154169360608601941515855260405195511685525160208501906116d0565b5160408301525115156060820152f35b90600982101561065e5752565b9181601f840112156103b05782359167ffffffffffffffff83116103b057602083818601950101116103b057565b919082519283825260005b848110611737575050826000602080949584010152601f8019910116010190565b602081830181015184830182015201611716565b90600182811c9216801561177b575b602083101461176557565b634e487b7160e01b600052602260045260246000fd5b91607f169161175a565b90600092918054916117968361174b565b9182825260019384811690816000146117f857506001146117b8575b50505050565b90919394506000526020928360002092846000945b8386106117e45750505050010190388080806117b2565b8054858701830152940193859082016117cd565b9294505050602093945060ff191683830152151560051b010190388080806117b2565b6080810190811067ffffffffffffffff82111761106157604052565b6101a0810190811067ffffffffffffffff82111761106157604052565b90601f8019910116810190811067ffffffffffffffff82111761106157604052565b60001981146105ce5760010190565b92919267ffffffffffffffff821161106157604051916118af601f8201601f191660200184611854565b8294818452818301116103b0578281602093846000960137010152565b600982101561065e5752565b8181106118e3575050565b600081556001016118d8565b9190601f81116118fe57505050565b61192a926000526020600020906020601f840160051c8301931061192c575b601f0160051c01906118d8565b565b909150819061191d565b600260005414611947576002600055565b604051633ee5aeb560e01b8152600490fd5b1561196057565b60405162461bcd60e51b8152602060048201526009602482015268139bdd08199bdd5b9960ba1b6044820152606490fd5b80548210156119ad576000526003602060002091020190600090565b634e487b7160e01b600052603260045260246000fd5b919082018092116105ce57565b156119d757565b60405162461bcd60e51b815260206004820152601060248201526f105b1c9958591e481d5b9b1bd8dad95960821b6044820152606490fd5b611a19815461174b565b9081611a23575050565b81601f60009311600114611a35575055565b908083918252611a54601f60208420940160051c8401600185016118d8565b555556fea2646970667358221220404c469d2e9bf8ec70c455810e1ec4d5152f73c41e8843542698ace45b6edc0264736f6c63430008140033","opcodes":"PUSH1 0xA0 CALLVALUE PUSH2 0xAD JUMPI PUSH1 0x1F PUSH2 0x1B57 CODESIZE DUP2 SWAP1 SUB SWAP2 DUP3 ADD PUSH1 0x1F NOT AND DUP4 ADD SWAP2 PUSH1 0x1 PUSH1 0x1 PUSH1 0x40 SHL SUB DUP4 GT DUP5 DUP5 LT OR PUSH2 0xB2 JUMPI DUP1 DUP5 SWAP3 PUSH1 0x20 SWAP5 PUSH1 0x40 MSTORE DUP4 CODECOPY DUP2 ADD SUB SLT PUSH2 0xAD JUMPI MLOAD PUSH1 0x1 PUSH1 0x1 PUSH1 0xA0 SHL SUB DUP2 AND DUP1 DUP3 SUB PUSH2 0xAD JUMPI PUSH1 0x1 PUSH1 0x0 SSTORE ISZERO PUSH2 0x75 JUMPI PUSH1 0x80 MSTORE PUSH1 0x40 MLOAD PUSH2 0x1A8E SWAP1 DUP2 PUSH2 0xC9 DUP3 CODECOPY PUSH1 0x80 MLOAD DUP2 PUSH2 0x823 ADD MSTORE RETURN JUMPDEST PUSH1 0x40 MLOAD PUSH3 0x461BCD PUSH1 0xE5 SHL DUP2 MSTORE PUSH1 0x20 PUSH1 0x4 DUP3 ADD MSTORE PUSH1 0x10 PUSH1 0x24 DUP3 ADD MSTORE PUSH16 0x496E76616C6964205472656173757279 PUSH1 0x80 SHL PUSH1 0x44 DUP3 ADD MSTORE PUSH1 0x64 SWAP1 REVERT JUMPDEST PUSH1 0x0 DUP1 REVERT JUMPDEST PUSH4 0x4E487B71 PUSH1 0xE0 SHL PUSH1 0x0 MSTORE PUSH1 0x41 PUSH1 0x4 MSTORE PUSH1 0x24 PUSH1 0x0 REVERT INVALID PUSH1 0x80 DUP1 PUSH1 0x40 MSTORE PUSH1 0x4 CALLDATASIZE LT ISZERO PUSH2 0x13 JUMPI PUSH1 0x0 DUP1 REVERT JUMPDEST PUSH1 0x0 CALLDATALOAD PUSH1 0xE0 SHR SWAP1 DUP2 PUSH4 0x1B0A102C EQ PUSH2 0x160A JUMPI POP DUP1 PUSH4 0x2178C0A2 EQ PUSH2 0x1473 JUMPI DUP1 PUSH4 0x29D72336 EQ PUSH2 0x11EC JUMPI DUP1 PUSH4 0x2C76D395 EQ PUSH2 0xC2E JUMPI DUP1 PUSH4 0x3AAC3858 EQ PUSH2 0x9E7 JUMPI DUP1 PUSH4 0x4A098C77 EQ PUSH2 0x9C5 JUMPI DUP1 PUSH4 0x517BBF46 EQ PUSH2 0x87E JUMPI DUP1 PUSH4 0x5D45DCF5 EQ PUSH2 0x852 JUMPI DUP1 PUSH4 0x79022A9F EQ PUSH2 0x80D JUMPI DUP1 PUSH4 0x85D6B426 EQ PUSH2 0x7BB JUMPI DUP1 PUSH4 0xAE169A50 EQ PUSH2 0x3F2 JUMPI DUP1 PUSH4 0xAE3CFAED EQ PUSH2 0x3D4 JUMPI DUP1 PUSH4 0xC1A287E2 EQ PUSH2 0x3B5 JUMPI PUSH4 0xEC3BC06B EQ PUSH2 0xB9 JUMPI PUSH1 0x0 DUP1 REVERT JUMPDEST PUSH1 0x40 CALLDATASIZE PUSH1 0x3 NOT ADD SLT PUSH2 0x3B0 JUMPI PUSH1 0x24 DUP1 CALLDATALOAD PUSH1 0x4 CALLDATALOAD PUSH1 0x9 DUP3 LT ISZERO PUSH2 0x3B0 JUMPI PUSH2 0xDD PUSH2 0x1936 JUMP JUMPDEST DUP1 PUSH1 0x0 MSTORE PUSH1 0x1 SWAP3 PUSH1 0x20 SWAP1 DUP5 DUP3 MSTORE PUSH1 0x40 PUSH1 0x0 KECCAK256 SWAP1 PUSH1 0x1 DUP1 PUSH1 0xA0 SHL SUB PUSH2 0x107 DUP2 DUP9 DUP6 ADD SLOAD AND ISZERO ISZERO PUSH2 0x1959 JUMP JUMPDEST PUSH1 0xFF PUSH1 0x9 DUP5 ADD SLOAD PUSH1 0x8 SHR AND DUP1 PUSH2 0x3A1 JUMPI JUMPDEST ISZERO PUSH2 0x36C JUMPI PUSH1 0x5 DUP4 ADD SLOAD TIMESTAMP LT ISZERO PUSH2 0x33D JUMPI DUP5 PUSH1 0x0 MSTORE PUSH1 0x3 DUP5 MSTORE PUSH1 0x40 PUSH1 0x0 KECCAK256 CALLER PUSH1 0x0 MSTORE DUP5 MSTORE PUSH1 0xFF PUSH1 0x40 PUSH1 0x0 KECCAK256 SLOAD AND PUSH2 0x305 JUMPI PUSH7 0x38D7EA4C68000 CALLVALUE LT PUSH2 0x2D1 JUMPI DUP5 PUSH1 0x0 MSTORE PUSH1 0x2 DUP5 MSTORE PUSH1 0x40 PUSH1 0x0 KECCAK256 SWAP1 PUSH1 0x40 MLOAD SWAP3 PUSH2 0x172 DUP5 PUSH2 0x181B JUMP JUMPDEST CALLER DUP5 MSTORE DUP6 DUP5 ADD SWAP1 PUSH2 0x183 DUP10 DUP4 PUSH2 0x18CC JUMP JUMPDEST PUSH1 0x40 DUP6 ADD SWAP3 CALLVALUE DUP5 MSTORE PUSH1 0x60 DUP7 ADD SWAP5 PUSH1 0x0 DUP7 MSTORE DUP1 SLOAD SWAP1 PUSH9 0x10000000000000000 DUP3 LT ISZERO PUSH2 0x2BC JUMPI SWAP1 PUSH2 0x1B7 SWAP2 DUP14 DUP3 ADD DUP2 SSTORE PUSH2 0x1991 JUMP JUMPDEST SWAP7 SWAP1 SWAP7 PUSH2 0x2A7 JUMPI MLOAD AND SWAP1 DUP6 SLOAD SWAP3 DUP3 PUSH12 0xFFFFFFFFFFFFFFFFFFFFFFFF PUSH1 0xA0 SHL DUP6 AND OR DUP8 SSTORE MLOAD SWAP1 PUSH1 0x9 DUP3 LT ISZERO PUSH2 0x293 JUMPI POP PUSH1 0x1 PUSH1 0x1 PUSH1 0xA8 SHL SUB NOT SWAP1 SWAP3 AND OR PUSH1 0xA0 SWAP2 SWAP1 SWAP2 SHL PUSH1 0xFF PUSH1 0xA0 SHL AND OR DUP4 SSTORE MLOAD DUP8 DUP4 ADD SSTORE MLOAD PUSH1 0x2 SWAP2 SWAP1 SWAP2 ADD DUP1 SLOAD SWAP2 ISZERO ISZERO PUSH1 0xFF AND PUSH1 0xFF NOT SWAP3 SWAP1 SWAP3 AND SWAP2 SWAP1 SWAP2 OR SWAP1 SSTORE PUSH1 0xA SWAP1 DUP4 PUSH1 0x0 MSTORE PUSH1 0x3 DUP4 MSTORE PUSH1 0x40 PUSH1 0x0 KECCAK256 CALLER PUSH1 0x0 MSTORE DUP4 MSTORE PUSH1 0x40 PUSH1 0x0 KECCAK256 DUP7 PUSH1 0xFF NOT DUP3 SLOAD AND OR SWAP1 SSTORE ADD PUSH2 0x254 CALLVALUE DUP3 SLOAD PUSH2 0x19C3 JUMP JUMPDEST SWAP1 SSTORE PUSH2 0x263 PUSH1 0x40 MLOAD DUP1 SWAP5 PUSH2 0x16D0 JUMP JUMPDEST CALLVALUE SWAP1 DUP4 ADD MSTORE PUSH32 0xDA30F73A3E960B5AC088351F9267CABE93697FA1626149956FB9A54BC6D07B95 PUSH1 0x40 CALLER SWAP4 LOG3 PUSH1 0x0 SSTORE STOP JUMPDEST PUSH4 0x4E487B71 PUSH1 0xE0 SHL PUSH1 0x0 SWAP1 DUP2 MSTORE PUSH1 0x21 PUSH1 0x4 MSTORE REVERT JUMPDEST DUP3 PUSH4 0x4E487B71 PUSH1 0xE0 SHL PUSH1 0x0 MSTORE PUSH1 0x0 PUSH1 0x4 MSTORE PUSH1 0x0 REVERT JUMPDEST DUP4 PUSH4 0x4E487B71 PUSH1 0xE0 SHL PUSH1 0x0 MSTORE PUSH1 0x41 PUSH1 0x4 MSTORE PUSH1 0x0 REVERT JUMPDEST PUSH1 0x40 MLOAD PUSH3 0x461BCD PUSH1 0xE5 SHL DUP2 MSTORE PUSH1 0x4 DUP2 ADD DUP6 SWAP1 MSTORE PUSH1 0xD DUP2 DUP5 ADD MSTORE PUSH13 0x5374616B6520746F6F206C6F77 PUSH1 0x98 SHL PUSH1 0x44 DUP3 ADD MSTORE PUSH1 0x64 SWAP1 REVERT JUMPDEST PUSH1 0x40 MLOAD PUSH3 0x461BCD PUSH1 0xE5 SHL DUP2 MSTORE PUSH1 0x4 DUP2 ADD DUP6 SWAP1 MSTORE PUSH1 0x11 DUP2 DUP5 ADD MSTORE PUSH17 0x105B1C9958591E481C1C99591A58DD1959 PUSH1 0x7A SHL PUSH1 0x44 DUP3 ADD MSTORE PUSH1 0x64 SWAP1 REVERT JUMPDEST PUSH1 0x40 MLOAD PUSH3 0x461BCD PUSH1 0xE5 SHL DUP2 MSTORE PUSH1 0x4 DUP2 ADD DUP6 SWAP1 MSTORE PUSH1 0x8 DUP2 DUP5 ADD MSTORE PUSH8 0x546F6F206C617465 PUSH1 0xC0 SHL PUSH1 0x44 DUP3 ADD MSTORE PUSH1 0x64 SWAP1 REVERT JUMPDEST PUSH1 0x40 MLOAD PUSH3 0x461BCD PUSH1 0xE5 SHL DUP2 MSTORE PUSH1 0x4 DUP2 ADD DUP6 SWAP1 MSTORE PUSH1 0xE DUP2 DUP5 ADD MSTORE PUSH14 0x10D85B9B9BDD081C1C99591A58DD PUSH1 0x92 SHL PUSH1 0x44 DUP3 ADD MSTORE PUSH1 0x64 SWAP1 REVERT JUMPDEST POP PUSH1 0xFF PUSH1 0x7 DUP5 ADD SLOAD AND ISZERO PUSH2 0x118 JUMP JUMPDEST PUSH1 0x0 DUP1 REVERT JUMPDEST CALLVALUE PUSH2 0x3B0 JUMPI PUSH1 0x0 CALLDATASIZE PUSH1 0x3 NOT ADD SLT PUSH2 0x3B0 JUMPI PUSH1 0x20 PUSH1 0x40 MLOAD PUSH4 0x1E13380 DUP2 MSTORE RETURN JUMPDEST CALLVALUE PUSH2 0x3B0 JUMPI PUSH1 0x0 CALLDATASIZE PUSH1 0x3 NOT ADD SLT PUSH2 0x3B0 JUMPI PUSH1 0x20 PUSH1 0x4 SLOAD PUSH1 0x40 MLOAD SWAP1 DUP2 MSTORE RETURN JUMPDEST CALLVALUE PUSH2 0x3B0 JUMPI PUSH1 0x20 CALLDATASIZE PUSH1 0x3 NOT ADD SLT PUSH2 0x3B0 JUMPI PUSH2 0x40B PUSH2 0x1936 JUMP JUMPDEST PUSH1 0x4 CALLDATALOAD PUSH1 0x0 MSTORE PUSH1 0x1 PUSH1 0x20 MSTORE PUSH1 0x40 PUSH1 0x0 KECCAK256 PUSH1 0xFF PUSH1 0x7 DUP3 ADD SLOAD AND ISZERO PUSH2 0x787 JUMPI PUSH1 0x4 CALLDATALOAD PUSH1 0x0 MSTORE PUSH1 0x3 PUSH1 0x20 MSTORE PUSH1 0x40 PUSH1 0x0 KECCAK256 CALLER PUSH1 0x0 MSTORE PUSH1 0x20 MSTORE PUSH1 0xFF PUSH1 0x40 PUSH1 0x0 KECCAK256 SLOAD AND ISZERO PUSH2 0x752 JUMPI PUSH1 0x4 CALLDATALOAD PUSH1 0x0 MSTORE PUSH1 0x2 PUSH1 0x20 MSTORE PUSH1 0x40 PUSH1 0x0 KECCAK256 PUSH1 0x0 SWAP1 PUSH1 0x0 DUP1 DUP3 SLOAD SWAP1 JUMPDEST DUP2 DUP2 LT PUSH2 0x71A JUMPI JUMPDEST POP POP ISZERO PUSH2 0x6DE JUMPI PUSH1 0xFF PUSH1 0x2 PUSH2 0x484 DUP5 DUP5 PUSH2 0x1991 JUMP JUMPDEST POP ADD SLOAD AND PUSH2 0x6A7 JUMPI PUSH1 0x9 PUSH1 0xFF PUSH2 0x49A DUP5 DUP5 PUSH2 0x1991 JUMP JUMPDEST POP SLOAD PUSH1 0xA0 SHR AND SWAP4 ADD SWAP3 PUSH1 0xFF DUP5 SLOAD AND SWAP1 PUSH1 0x9 DUP3 LT ISZERO PUSH2 0x65E JUMPI PUSH1 0x9 DUP2 LT ISZERO PUSH2 0x65E JUMPI SUB PUSH2 0x674 JUMPI PUSH1 0x2 PUSH2 0x4CC DUP4 DUP4 PUSH2 0x1991 JUMP JUMPDEST POP ADD PUSH1 0x1 PUSH1 0xFF NOT DUP3 SLOAD AND OR SWAP1 SSTORE PUSH1 0x0 SWAP1 PUSH1 0x0 SWAP4 PUSH1 0x0 SWAP1 PUSH1 0xFF DUP4 SLOAD SWAP2 SLOAD AND SWAP1 JUMPDEST DUP1 DUP4 LT PUSH2 0x5ED JUMPI POP POP POP PUSH1 0x1 PUSH2 0x501 DUP5 DUP4 PUSH2 0x1991 JUMP JUMPDEST POP ADD SLOAD SWAP3 DUP3 ISZERO SWAP2 DUP3 ISZERO DUP1 PUSH2 0x5E4 JUMPI JUMPDEST PUSH2 0x580 JUMPI JUMPDEST POP POP POP POP DUP1 SWAP2 POP PUSH1 0x0 DUP2 ISZERO PUSH2 0x577 JUMPI JUMPDEST PUSH1 0x0 DUP1 DUP1 SWAP4 DUP2 SWAP4 CALLER SWAP1 CALL ISZERO PUSH2 0x56B JUMPI PUSH1 0x40 MLOAD SWAP1 DUP2 MSTORE CALLER SWAP1 PUSH32 0x24B5EFA61DD1CFC659205A97FB8ED868F3CB8C81922BAB2B96423E5DE1DE2CB7 PUSH1 0x20 PUSH1 0x4 CALLDATALOAD SWAP3 LOG3 PUSH1 0x1 PUSH1 0x0 SSTORE STOP JUMPDEST PUSH1 0x40 MLOAD RETURNDATASIZE PUSH1 0x0 DUP3 RETURNDATACOPY RETURNDATASIZE SWAP1 REVERT JUMPDEST POP PUSH2 0x8FC PUSH2 0x525 JUMP JUMPDEST PUSH1 0x1 SWAP2 PUSH2 0x58C SWAP2 PUSH2 0x1991 JUMP JUMPDEST POP ADD SLOAD DUP5 DUP2 MUL SWAP5 DUP2 DUP7 DIV EQ SWAP1 ISZERO OR ISZERO PUSH2 0x5CE JUMPI PUSH2 0x5B8 JUMPI PUSH2 0x5AE SWAP3 DIV SWAP1 PUSH2 0x19C3 JUMP JUMPDEST DUP1 DUP3 DUP1 DUP1 DUP1 PUSH2 0x515 JUMP JUMPDEST PUSH4 0x4E487B71 PUSH1 0xE0 SHL PUSH1 0x0 MSTORE PUSH1 0x12 PUSH1 0x4 MSTORE PUSH1 0x24 PUSH1 0x0 REVERT JUMPDEST PUSH4 0x4E487B71 PUSH1 0xE0 SHL PUSH1 0x0 MSTORE PUSH1 0x11 PUSH1 0x4 MSTORE PUSH1 0x24 PUSH1 0x0 REVERT JUMPDEST POP DUP6 ISZERO ISZERO PUSH2 0x510 JUMP JUMPDEST SWAP1 SWAP2 SWAP4 PUSH1 0xFF PUSH2 0x5FC DUP7 DUP7 PUSH2 0x1991 JUMP JUMPDEST POP SLOAD PUSH1 0xA0 SHR AND PUSH1 0x9 DUP5 LT ISZERO PUSH2 0x65E JUMPI PUSH1 0x9 DUP2 LT ISZERO PUSH2 0x65E JUMPI DUP4 SUB PUSH2 0x643 JUMPI PUSH2 0x636 PUSH2 0x63C SWAP2 PUSH1 0x1 PUSH2 0x62D DUP9 DUP9 PUSH2 0x1991 JUMP JUMPDEST POP ADD SLOAD SWAP1 PUSH2 0x19C3 JUMP JUMPDEST SWAP5 PUSH2 0x1876 JUMP JUMPDEST SWAP2 SWAP1 PUSH2 0x4EB JUMP JUMPDEST SWAP4 SWAP6 PUSH2 0x658 PUSH2 0x63C SWAP2 PUSH1 0x1 PUSH2 0x62D DUP11 DUP9 PUSH2 0x1991 JUMP JUMPDEST SWAP7 PUSH2 0x1876 JUMP JUMPDEST PUSH4 0x4E487B71 PUSH1 0xE0 SHL PUSH1 0x0 MSTORE PUSH1 0x21 PUSH1 0x4 MSTORE PUSH1 0x24 PUSH1 0x0 REVERT JUMPDEST PUSH1 0x40 MLOAD PUSH3 0x461BCD PUSH1 0xE5 SHL DUP2 MSTORE PUSH1 0x20 PUSH1 0x4 DUP3 ADD MSTORE PUSH1 0xB PUSH1 0x24 DUP3 ADD MSTORE PUSH11 0x57726F6E67206775657373 PUSH1 0xA8 SHL PUSH1 0x44 DUP3 ADD MSTORE PUSH1 0x64 SWAP1 REVERT JUMPDEST PUSH1 0x40 MLOAD PUSH3 0x461BCD PUSH1 0xE5 SHL DUP2 MSTORE PUSH1 0x20 PUSH1 0x4 DUP3 ADD MSTORE PUSH1 0xF PUSH1 0x24 DUP3 ADD MSTORE PUSH15 0x105B1C9958591E4818DB185A5B5959 PUSH1 0x8A SHL PUSH1 0x44 DUP3 ADD MSTORE PUSH1 0x64 SWAP1 REVERT JUMPDEST PUSH1 0x40 MLOAD PUSH3 0x461BCD PUSH1 0xE5 SHL DUP2 MSTORE PUSH1 0x20 PUSH1 0x4 DUP3 ADD MSTORE PUSH1 0x14 PUSH1 0x24 DUP3 ADD MSTORE PUSH20 0x141C99591A58DD1A5BDB881B9BDD08199BDD5B99 PUSH1 0x62 SHL PUSH1 0x44 DUP3 ADD MSTORE PUSH1 0x64 SWAP1 REVERT JUMPDEST PUSH2 0x724 DUP2 DUP6 PUSH2 0x1991 JUMP JUMPDEST POP SLOAD PUSH1 0x1 PUSH1 0x1 PUSH1 0xA0 SHL SUB AND CALLER EQ PUSH2 0x743 JUMPI PUSH2 0x73E SWAP1 PUSH2 0x1876 JUMP JUMPDEST PUSH2 0x467 JUMP JUMPDEST SWAP3 SWAP4 POP POP POP SWAP1 PUSH1 0x1 DUP5 DUP1 PUSH2 0x46F JUMP JUMPDEST PUSH1 0x40 MLOAD PUSH3 0x461BCD PUSH1 0xE5 SHL DUP2 MSTORE PUSH1 0x20 PUSH1 0x4 DUP3 ADD MSTORE PUSH1 0xD PUSH1 0x24 DUP3 ADD MSTORE PUSH13 0x273790383932B234B1BA34B7B7 PUSH1 0x99 SHL PUSH1 0x44 DUP3 ADD MSTORE PUSH1 0x64 SWAP1 REVERT JUMPDEST PUSH1 0x40 MLOAD PUSH3 0x461BCD PUSH1 0xE5 SHL DUP2 MSTORE PUSH1 0x20 PUSH1 0x4 DUP3 ADD MSTORE PUSH1 0xC PUSH1 0x24 DUP3 ADD MSTORE PUSH12 0x139BDD081D5B9B1BD8DAD959 PUSH1 0xA2 SHL PUSH1 0x44 DUP3 ADD MSTORE PUSH1 0x64 SWAP1 REVERT JUMPDEST CALLVALUE PUSH2 0x3B0 JUMPI PUSH1 0x40 CALLDATASIZE PUSH1 0x3 NOT ADD SLT PUSH2 0x3B0 JUMPI PUSH1 0x24 CALLDATALOAD PUSH1 0x1 PUSH1 0x1 PUSH1 0xA0 SHL SUB DUP2 AND SWAP1 DUP2 SWAP1 SUB PUSH2 0x3B0 JUMPI PUSH1 0x4 CALLDATALOAD PUSH1 0x0 MSTORE PUSH1 0x3 PUSH1 0x20 MSTORE PUSH1 0x40 PUSH1 0x0 KECCAK256 SWAP1 PUSH1 0x0 MSTORE PUSH1 0x20 MSTORE PUSH1 0x20 PUSH1 0xFF PUSH1 0x40 PUSH1 0x0 KECCAK256 SLOAD AND PUSH1 0x40 MLOAD SWAP1 ISZERO ISZERO DUP2 MSTORE RETURN JUMPDEST CALLVALUE PUSH2 0x3B0 JUMPI PUSH1 0x0 CALLDATASIZE PUSH1 0x3 NOT ADD SLT PUSH2 0x3B0 JUMPI PUSH1 0x40 MLOAD PUSH32 0x0 PUSH1 0x1 PUSH1 0x1 PUSH1 0xA0 SHL SUB AND DUP2 MSTORE PUSH1 0x20 SWAP1 RETURN JUMPDEST CALLVALUE PUSH2 0x3B0 JUMPI PUSH1 0x20 CALLDATASIZE PUSH1 0x3 NOT ADD SLT PUSH2 0x3B0 JUMPI PUSH1 0x4 CALLDATALOAD PUSH1 0x0 MSTORE PUSH1 0x2 PUSH1 0x20 MSTORE PUSH1 0x20 PUSH1 0x40 PUSH1 0x0 KECCAK256 SLOAD PUSH1 0x40 MLOAD SWAP1 DUP2 MSTORE RETURN JUMPDEST CALLVALUE PUSH2 0x3B0 JUMPI PUSH1 0x20 CALLDATASIZE PUSH1 0x3 NOT ADD SLT PUSH2 0x3B0 JUMPI PUSH1 0x4 CALLDATALOAD PUSH1 0x0 MSTORE PUSH1 0x1 PUSH1 0x20 MSTORE PUSH1 0x40 PUSH1 0x0 KECCAK256 DUP1 SLOAD PUSH1 0x1 PUSH1 0xA0 SHL PUSH1 0x1 SWAP1 SUB SWAP2 DUP3 PUSH1 0x1 DUP3 ADD SLOAD AND SWAP3 PUSH1 0x2 DUP3 ADD SLOAD AND PUSH1 0x40 MLOAD DUP1 DUP1 PUSH1 0x3 DUP6 ADD SWAP1 PUSH2 0x8CC SWAP2 PUSH2 0x1785 JUMP JUMPDEST SUB PUSH2 0x8D7 SWAP1 DUP3 PUSH2 0x1854 JUMP JUMPDEST PUSH1 0x40 MLOAD DUP1 PUSH2 0x8E8 DUP2 PUSH1 0x4 DUP8 ADD PUSH2 0x1785 JUMP JUMPDEST SUB PUSH2 0x8F3 SWAP1 DUP3 PUSH2 0x1854 JUMP JUMPDEST PUSH1 0x5 DUP5 ADD SLOAD SWAP1 PUSH1 0x6 DUP6 ADD SLOAD PUSH1 0x7 DUP7 ADD SLOAD SWAP2 PUSH1 0x40 MLOAD SWAP5 DUP6 DUP1 PUSH1 0x8 DUP11 ADD SWAP1 PUSH2 0x918 SWAP2 PUSH2 0x1785 JUMP JUMPDEST SUB PUSH2 0x923 SWAP1 DUP8 PUSH2 0x1854 JUMP JUMPDEST PUSH1 0x9 DUP9 ADD SLOAD SWAP8 PUSH1 0xA ADD SLOAD SWAP7 PUSH1 0x40 MLOAD SWAP11 DUP12 SWAP11 DUP12 MSTORE PUSH1 0x20 DUP12 ADD MSTORE PUSH1 0x40 DUP11 ADD MSTORE PUSH2 0x1A0 DUP1 PUSH1 0x60 DUP12 ADD MSTORE DUP10 ADD PUSH2 0x954 SWAP2 PUSH2 0x170B JUMP JUMPDEST DUP9 DUP2 SUB PUSH1 0x80 DUP11 ADD MSTORE PUSH2 0x965 SWAP2 PUSH2 0x170B JUMP JUMPDEST SWAP3 PUSH1 0xA0 DUP9 ADD MSTORE PUSH1 0xC0 DUP8 ADD MSTORE PUSH1 0xFF DUP2 AND ISZERO ISZERO PUSH1 0xE0 DUP8 ADD MSTORE PUSH1 0x8 SHR PUSH1 0xFF AND ISZERO ISZERO PUSH2 0x100 DUP7 ADD MSTORE DUP5 DUP2 SUB PUSH2 0x120 DUP7 ADD MSTORE PUSH2 0x99B SWAP2 PUSH2 0x170B JUMP JUMPDEST SWAP2 PUSH2 0x9AD PUSH2 0x140 DUP6 ADD PUSH1 0xFF DUP4 AND PUSH2 0x16D0 JUMP JUMPDEST PUSH1 0x8 SHR PUSH1 0xFF AND ISZERO ISZERO PUSH2 0x160 DUP5 ADD MSTORE PUSH2 0x180 DUP4 ADD MSTORE SUB SWAP1 RETURN JUMPDEST CALLVALUE PUSH2 0x3B0 JUMPI PUSH1 0x0 CALLDATASIZE PUSH1 0x3 NOT ADD SLT PUSH2 0x3B0 JUMPI PUSH1 0x20 PUSH1 0x40 MLOAD PUSH7 0x38D7EA4C68000 DUP2 MSTORE RETURN JUMPDEST CALLVALUE PUSH2 0x3B0 JUMPI PUSH1 0x20 CALLDATASIZE PUSH1 0x3 NOT ADD SLT PUSH2 0x3B0 JUMPI PUSH1 0x0 PUSH2 0x180 PUSH1 0x40 MLOAD PUSH2 0xA09 DUP2 PUSH2 0x1837 JUMP JUMPDEST DUP3 DUP2 MSTORE DUP3 PUSH1 0x20 DUP3 ADD MSTORE DUP3 PUSH1 0x40 DUP3 ADD MSTORE PUSH1 0x60 DUP1 DUP3 ADD MSTORE PUSH1 0x60 PUSH1 0x80 DUP3 ADD MSTORE DUP3 PUSH1 0xA0 DUP3 ADD MSTORE DUP3 PUSH1 0xC0 DUP3 ADD MSTORE DUP3 PUSH1 0xE0 DUP3 ADD MSTORE DUP3 PUSH2 0x100 DUP3 ADD MSTORE PUSH1 0x60 PUSH2 0x120 DUP3 ADD MSTORE DUP3 PUSH2 0x140 DUP3 ADD MSTORE DUP3 PUSH2 0x160 DUP3 ADD MSTORE ADD MSTORE PUSH1 0x4 CALLDATALOAD PUSH1 0x0 MSTORE PUSH1 0x1 PUSH1 0x20 MSTORE PUSH1 0x40 PUSH1 0x0 KECCAK256 PUSH1 0xA PUSH1 0x40 MLOAD SWAP2 PUSH2 0xA75 DUP4 PUSH2 0x1837 JUMP JUMPDEST DUP1 SLOAD DUP4 MSTORE PUSH1 0x1 DUP2 ADD SLOAD PUSH1 0x1 PUSH1 0x1 PUSH1 0xA0 SHL SUB SWAP1 DUP2 AND PUSH1 0x20 DUP6 ADD MSTORE PUSH1 0x2 DUP3 ADD SLOAD AND PUSH1 0x40 DUP1 DUP6 ADD SWAP2 SWAP1 SWAP2 MSTORE MLOAD PUSH2 0xAB6 DUP2 PUSH2 0xAAF DUP2 PUSH1 0x3 DUP7 ADD PUSH2 0x1785 JUMP JUMPDEST SUB DUP3 PUSH2 0x1854 JUMP JUMPDEST PUSH1 0x60 DUP5 ADD MSTORE PUSH1 0x40 MLOAD PUSH2 0xACF DUP2 PUSH2 0xAAF DUP2 PUSH1 0x4 DUP7 ADD PUSH2 0x1785 JUMP JUMPDEST PUSH1 0x80 DUP5 ADD MSTORE PUSH1 0x5 DUP2 ADD SLOAD PUSH1 0xA0 DUP5 ADD MSTORE PUSH1 0x6 DUP2 ADD SLOAD PUSH1 0xC0 DUP5 ADD MSTORE PUSH1 0xFF PUSH1 0x7 DUP3 ADD SLOAD DUP2 DUP2 AND ISZERO ISZERO PUSH1 0xE0 DUP7 ADD MSTORE PUSH1 0x8 SHR AND ISZERO ISZERO PUSH2 0x100 DUP5 ADD MSTORE PUSH1 0x40 MLOAD PUSH2 0xB19 DUP2 PUSH2 0xAAF DUP2 PUSH1 0x8 DUP7 ADD PUSH2 0x1785 JUMP JUMPDEST PUSH2 0x120 DUP5 ADD MSTORE PUSH1 0xFF PUSH1 0x9 DUP3 ADD SLOAD PUSH2 0xB36 DUP3 DUP3 AND PUSH2 0x140 DUP8 ADD PUSH2 0x18CC JUMP JUMPDEST PUSH1 0x8 SHR AND ISZERO ISZERO PUSH2 0x160 DUP5 ADD MSTORE ADD SLOAD PUSH2 0x180 DUP3 ADD MSTORE PUSH1 0x40 MLOAD DUP1 SWAP2 PUSH1 0x20 DUP3 MSTORE DUP1 MLOAD PUSH1 0x20 DUP4 ADD MSTORE PUSH1 0x1 DUP1 PUSH1 0xA0 SHL SUB PUSH1 0x20 DUP3 ADD MLOAD AND PUSH1 0x40 DUP4 ADD MSTORE PUSH1 0x1 DUP1 PUSH1 0xA0 SHL SUB PUSH1 0x40 DUP3 ADD MLOAD AND PUSH1 0x60 DUP4 ADD MSTORE PUSH2 0x180 PUSH2 0xC01 PUSH2 0xB9F PUSH1 0x60 DUP5 ADD MLOAD PUSH2 0x1A0 PUSH1 0x80 DUP8 ADD MSTORE PUSH2 0x1C0 DUP7 ADD SWAP1 PUSH2 0x170B JUMP JUMPDEST PUSH2 0xBBB PUSH1 0x80 DUP6 ADD MLOAD SWAP2 PUSH1 0x1F NOT SWAP3 DUP4 DUP9 DUP4 SUB ADD PUSH1 0xA0 DUP10 ADD MSTORE PUSH2 0x170B JUMP JUMPDEST SWAP1 PUSH1 0xA0 DUP6 ADD MLOAD PUSH1 0xC0 DUP8 ADD MSTORE PUSH1 0xC0 DUP6 ADD MLOAD PUSH1 0xE0 DUP8 ADD MSTORE PUSH1 0xE0 DUP6 ADD MLOAD ISZERO ISZERO PUSH2 0x100 DUP8 ADD MSTORE PUSH2 0x100 DUP6 ADD MLOAD ISZERO ISZERO PUSH2 0x120 DUP8 ADD MSTORE PUSH2 0x120 DUP6 ADD MLOAD SWAP1 DUP7 DUP4 SUB ADD PUSH2 0x140 DUP8 ADD MSTORE PUSH2 0x170B JUMP JUMPDEST SWAP2 PUSH2 0xC16 PUSH2 0x140 DUP3 ADD MLOAD PUSH2 0x160 DUP7 ADD SWAP1 PUSH2 0x16D0 JUMP JUMPDEST PUSH2 0x160 DUP2 ADD MLOAD ISZERO ISZERO DUP3 DUP6 ADD MSTORE ADD MLOAD PUSH2 0x1A0 DUP4 ADD MSTORE SUB SWAP1 RETURN JUMPDEST PUSH1 0xE0 CALLDATASIZE PUSH1 0x3 NOT ADD SLT PUSH2 0x3B0 JUMPI PUSH1 0x4 CALLDATALOAD PUSH1 0x1 PUSH1 0x1 PUSH1 0xA0 SHL SUB DUP2 AND SWAP1 SUB PUSH2 0x3B0 JUMPI PUSH1 0x44 CALLDATALOAD PUSH8 0xFFFFFFFFFFFFFFFF DUP2 GT PUSH2 0x3B0 JUMPI PUSH2 0xC6D SWAP1 CALLDATASIZE SWAP1 PUSH1 0x4 ADD PUSH2 0x16DD JUMP JUMPDEST SWAP1 PUSH1 0x64 CALLDATALOAD PUSH8 0xFFFFFFFFFFFFFFFF DUP2 GT PUSH2 0x3B0 JUMPI PUSH2 0xC8E SWAP1 CALLDATASIZE SWAP1 PUSH1 0x4 ADD PUSH2 0x16DD JUMP JUMPDEST SWAP3 SWAP1 PUSH1 0x84 CALLDATALOAD PUSH8 0xFFFFFFFFFFFFFFFF DUP2 GT PUSH2 0x3B0 JUMPI PUSH2 0xCB0 SWAP1 CALLDATASIZE SWAP1 PUSH1 0x4 ADD PUSH2 0x16DD JUMP JUMPDEST PUSH1 0x9 PUSH1 0xA4 CALLDATALOAD LT ISZERO PUSH2 0x3B0 JUMPI PUSH1 0xC4 CALLDATALOAD SWAP6 DUP7 ISZERO ISZERO DUP8 SUB PUSH2 0x3B0 JUMPI PUSH2 0xCD0 PUSH2 0x1936 JUMP JUMPDEST TIMESTAMP PUSH1 0x24 CALLDATALOAD GT ISZERO PUSH2 0x11AE JUMPI DUP5 ISZERO PUSH2 0x117A JUMPI PUSH2 0xD6E SWAP4 PUSH2 0xD45 SWAP2 PUSH2 0xD39 PUSH1 0x4 SLOAD SWAP9 PUSH2 0xCF8 DUP11 PUSH2 0x1876 JUMP JUMPDEST PUSH1 0x4 SWAP1 DUP2 SSTORE CALLDATALOAD PUSH1 0x1 PUSH1 0x1 PUSH1 0xA0 SHL SUB AND PUSH2 0x1171 JUMPI CALLER SWAP9 JUMPDEST PUSH1 0x40 MLOAD SWAP10 PUSH2 0xD1B DUP12 PUSH2 0x1837 JUMP JUMPDEST DUP12 DUP12 MSTORE CALLER PUSH1 0x20 DUP13 ADD MSTORE PUSH1 0x1 PUSH1 0x1 PUSH1 0xA0 SHL SUB AND PUSH1 0x40 DUP12 ADD MSTORE CALLDATASIZE SWAP2 PUSH2 0x1885 JUMP JUMPDEST PUSH1 0x60 DUP9 ADD MSTORE CALLDATASIZE SWAP2 PUSH2 0x1885 JUMP JUMPDEST PUSH1 0x80 DUP6 ADD MSTORE PUSH1 0x24 CALLDATALOAD PUSH1 0xA0 DUP6 ADD MSTORE CALLVALUE PUSH1 0xC0 DUP6 ADD MSTORE PUSH1 0x0 PUSH1 0xE0 DUP6 ADD MSTORE PUSH1 0x0 PUSH2 0x100 DUP6 ADD MSTORE CALLDATASIZE SWAP2 PUSH2 0x1885 JUMP JUMPDEST PUSH2 0x120 DUP3 ADD MSTORE PUSH2 0xD84 PUSH1 0xA4 CALLDATALOAD PUSH2 0x140 DUP4 ADD PUSH2 0x18CC JUMP JUMPDEST DUP3 ISZERO ISZERO PUSH2 0x160 DUP3 ADD MSTORE PUSH1 0x0 PUSH2 0x180 DUP3 ADD MSTORE DUP2 PUSH1 0x0 MSTORE PUSH1 0x1 PUSH1 0x20 MSTORE PUSH1 0x40 PUSH1 0x0 KECCAK256 SWAP1 DUP1 MLOAD DUP3 SSTORE PUSH1 0x1 DUP3 ADD PUSH1 0x1 DUP1 PUSH1 0xA0 SHL SUB PUSH1 0x20 DUP4 ADD MLOAD AND SWAP1 PUSH12 0xFFFFFFFFFFFFFFFFFFFFFFFF PUSH1 0xA0 SHL SWAP2 DUP3 DUP3 SLOAD AND OR SWAP1 SSTORE PUSH1 0x2 DUP4 ADD SWAP1 PUSH1 0x1 DUP1 PUSH1 0xA0 SHL SUB PUSH1 0x40 DUP5 ADD MLOAD AND SWAP1 DUP3 SLOAD AND OR SWAP1 SSTORE PUSH1 0x60 DUP2 ADD MLOAD DUP1 MLOAD SWAP1 PUSH8 0xFFFFFFFFFFFFFFFF DUP3 GT PUSH2 0x1061 JUMPI DUP2 SWAP1 PUSH2 0xE1E DUP3 PUSH2 0xE15 PUSH1 0x3 DUP9 ADD SLOAD PUSH2 0x174B JUMP JUMPDEST PUSH1 0x3 DUP9 ADD PUSH2 0x18EF JUMP JUMPDEST PUSH1 0x20 SWAP1 PUSH1 0x1F DUP4 GT PUSH1 0x1 EQ PUSH2 0x10FF JUMPI PUSH1 0x0 SWAP3 PUSH2 0x10F4 JUMPI JUMPDEST POP POP DUP2 PUSH1 0x1 SHL SWAP2 PUSH1 0x0 NOT SWAP1 PUSH1 0x3 SHL SHR NOT AND OR PUSH1 0x3 DUP4 ADD SSTORE JUMPDEST PUSH1 0x80 DUP2 ADD MLOAD DUP1 MLOAD SWAP1 PUSH8 0xFFFFFFFFFFFFFFFF DUP3 GT PUSH2 0x1061 JUMPI DUP2 SWAP1 PUSH2 0xE7F DUP3 PUSH2 0xE76 PUSH1 0x4 DUP9 ADD SLOAD PUSH2 0x174B JUMP JUMPDEST PUSH1 0x4 DUP9 ADD PUSH2 0x18EF JUMP JUMPDEST PUSH1 0x20 SWAP1 PUSH1 0x1F DUP4 GT PUSH1 0x1 EQ PUSH2 0x1082 JUMPI PUSH1 0x0 SWAP3 PUSH2 0x1077 JUMPI JUMPDEST POP POP DUP2 PUSH1 0x1 SHL SWAP2 PUSH1 0x0 NOT SWAP1 PUSH1 0x3 SHL SHR NOT AND OR PUSH1 0x4 DUP4 ADD SSTORE JUMPDEST PUSH1 0xA0 DUP2 ADD MLOAD PUSH1 0x5 DUP4 ADD SSTORE PUSH1 0xC0 DUP2 ADD MLOAD PUSH1 0x6 DUP4 ADD SSTORE PUSH2 0xF00 PUSH1 0x7 DUP4 ADD PUSH2 0xEE4 PUSH1 0xE0 DUP5 ADD MLOAD ISZERO ISZERO DUP3 SWAP1 PUSH1 0xFF DUP1 NOT DUP4 SLOAD AND SWAP2 ISZERO ISZERO AND OR SWAP1 SSTORE JUMP JUMPDEST PUSH2 0x100 DUP4 ADD MLOAD DUP2 SLOAD PUSH2 0xFF00 NOT AND SWAP1 ISZERO ISZERO PUSH1 0x8 SHL PUSH2 0xFF00 AND OR SWAP1 SSTORE JUMP JUMPDEST PUSH2 0x120 DUP2 ADD MLOAD DUP1 MLOAD SWAP1 PUSH8 0xFFFFFFFFFFFFFFFF DUP3 GT PUSH2 0x1061 JUMPI DUP2 SWAP1 PUSH2 0xF34 DUP3 PUSH2 0xF2B PUSH1 0x8 DUP9 ADD SLOAD PUSH2 0x174B JUMP JUMPDEST PUSH1 0x8 DUP9 ADD PUSH2 0x18EF JUMP JUMPDEST PUSH1 0x20 SWAP1 PUSH1 0x1F DUP4 GT PUSH1 0x1 EQ PUSH2 0xFEF JUMPI PUSH1 0x0 SWAP3 PUSH2 0xFE4 JUMPI JUMPDEST POP POP DUP2 PUSH1 0x1 SHL SWAP2 PUSH1 0x0 NOT SWAP1 PUSH1 0x3 SHL SHR NOT AND OR PUSH1 0x8 DUP4 ADD SSTORE JUMPDEST PUSH1 0x9 DUP3 ADD PUSH2 0x140 DUP3 ADD MLOAD SWAP2 PUSH1 0x9 DUP4 LT ISZERO PUSH2 0x65E JUMPI DUP2 SLOAD PUSH2 0x160 DUP3 ADD MLOAD PUSH2 0xFF00 SWAP1 ISZERO ISZERO PUSH1 0x8 SHL AND PUSH1 0xFF SWAP5 SWAP1 SWAP5 AND PUSH2 0xFFFF NOT SWAP1 SWAP2 AND OR SWAP3 SWAP1 SWAP3 OR SWAP1 SSTORE PUSH1 0xA SWAP1 PUSH2 0x180 ADD MLOAD SWAP2 ADD SSTORE PUSH1 0x40 MLOAD SWAP2 PUSH1 0x24 CALLDATALOAD DUP4 MSTORE ISZERO ISZERO PUSH1 0x20 DUP4 ADD MSTORE PUSH32 0xF72B5F29D907C4CDB318378FCA996A1404ACF683C3ADD631B8C4ABF1F3192265 PUSH1 0x40 CALLER SWAP4 LOG3 PUSH1 0x1 PUSH1 0x0 SSTORE STOP JUMPDEST ADD MLOAD SWAP1 POP DUP7 DUP1 PUSH2 0xF4A JUMP JUMPDEST SWAP3 POP PUSH1 0x8 DUP6 ADD PUSH1 0x0 MSTORE PUSH1 0x20 PUSH1 0x0 KECCAK256 SWAP1 PUSH1 0x0 SWAP4 JUMPDEST PUSH1 0x1F NOT DUP5 AND DUP6 LT PUSH2 0x1046 JUMPI PUSH1 0x1 SWAP5 POP DUP4 PUSH1 0x1F NOT DUP2 AND LT PUSH2 0x102D JUMPI JUMPDEST POP POP POP DUP2 SHL ADD PUSH1 0x8 DUP4 ADD SSTORE PUSH2 0xF62 JUMP JUMPDEST ADD MLOAD PUSH1 0x0 NOT PUSH1 0xF8 DUP5 PUSH1 0x3 SHL AND SHR NOT AND SWAP1 SSTORE DUP7 DUP1 DUP1 PUSH2 0x101D JUMP JUMPDEST DUP2 DUP2 ADD MLOAD DUP4 SSTORE PUSH1 0x20 SWAP5 DUP6 ADD SWAP5 PUSH1 0x1 SWAP1 SWAP4 ADD SWAP3 SWAP1 SWAP2 ADD SWAP1 PUSH2 0x1002 JUMP JUMPDEST PUSH4 0x4E487B71 PUSH1 0xE0 SHL PUSH1 0x0 MSTORE PUSH1 0x41 PUSH1 0x4 MSTORE PUSH1 0x24 PUSH1 0x0 REVERT JUMPDEST ADD MLOAD SWAP1 POP DUP7 DUP1 PUSH2 0xE95 JUMP JUMPDEST SWAP3 POP PUSH1 0x4 DUP6 ADD PUSH1 0x0 MSTORE PUSH1 0x20 PUSH1 0x0 KECCAK256 SWAP1 PUSH1 0x0 SWAP4 JUMPDEST PUSH1 0x1F NOT DUP5 AND DUP6 LT PUSH2 0x10D9 JUMPI PUSH1 0x1 SWAP5 POP DUP4 PUSH1 0x1F NOT DUP2 AND LT PUSH2 0x10C0 JUMPI JUMPDEST POP POP POP DUP2 SHL ADD PUSH1 0x4 DUP4 ADD SSTORE PUSH2 0xEAD JUMP JUMPDEST ADD MLOAD PUSH1 0x0 NOT PUSH1 0xF8 DUP5 PUSH1 0x3 SHL AND SHR NOT AND SWAP1 SSTORE DUP7 DUP1 DUP1 PUSH2 0x10B0 JUMP JUMPDEST DUP2 DUP2 ADD MLOAD DUP4 SSTORE PUSH1 0x20 SWAP5 DUP6 ADD SWAP5 PUSH1 0x1 SWAP1 SWAP4 ADD SWAP3 SWAP1 SWAP2 ADD SWAP1 PUSH2 0x1095 JUMP JUMPDEST ADD MLOAD SWAP1 POP DUP7 DUP1 PUSH2 0xE34 JUMP JUMPDEST SWAP3 POP PUSH1 0x3 DUP6 ADD PUSH1 0x0 MSTORE PUSH1 0x20 PUSH1 0x0 KECCAK256 SWAP1 PUSH1 0x0 SWAP4 JUMPDEST PUSH1 0x1F NOT DUP5 AND DUP6 LT PUSH2 0x1156 JUMPI PUSH1 0x1 SWAP5 POP DUP4 PUSH1 0x1F NOT DUP2 AND LT PUSH2 0x113D JUMPI JUMPDEST POP POP POP DUP2 SHL ADD PUSH1 0x3 DUP4 ADD SSTORE PUSH2 0xE4C JUMP JUMPDEST ADD MLOAD PUSH1 0x0 NOT PUSH1 0xF8 DUP5 PUSH1 0x3 SHL AND SHR NOT AND SWAP1 SSTORE DUP7 DUP1 DUP1 PUSH2 0x112D JUMP JUMPDEST DUP2 DUP2 ADD MLOAD DUP4 SSTORE PUSH1 0x20 SWAP5 DUP6 ADD SWAP5 PUSH1 0x1 SWAP1 SWAP4 ADD SWAP3 SWAP1 SWAP2 ADD SWAP1 PUSH2 0x1112 JUMP JUMPDEST PUSH1 0x4 CALLDATALOAD SWAP9 PUSH2 0xD0E JUMP JUMPDEST PUSH1 0x40 MLOAD PUSH3 0x461BCD PUSH1 0xE5 SHL DUP2 MSTORE PUSH1 0x20 PUSH1 0x4 DUP3 ADD MSTORE PUSH1 0xC PUSH1 0x24 DUP3 ADD MSTORE PUSH12 0x10D251081C995C5D5A5C9959 PUSH1 0xA2 SHL PUSH1 0x44 DUP3 ADD MSTORE PUSH1 0x64 SWAP1 REVERT JUMPDEST PUSH1 0x40 MLOAD PUSH3 0x461BCD PUSH1 0xE5 SHL DUP2 MSTORE PUSH1 0x20 PUSH1 0x4 DUP3 ADD MSTORE PUSH1 0x16 PUSH1 0x24 DUP3 ADD MSTORE PUSH22 0x54696D65206D75737420626520696E20667574757265 PUSH1 0x50 SHL PUSH1 0x44 DUP3 ADD MSTORE PUSH1 0x64 SWAP1 REVERT JUMPDEST CALLVALUE PUSH2 0x3B0 JUMPI PUSH1 0x20 DUP1 PUSH1 0x3 NOT CALLDATASIZE ADD SLT PUSH2 0x3B0 JUMPI PUSH1 0x4 CALLDATALOAD SWAP1 PUSH2 0x120A PUSH2 0x1936 JUMP JUMPDEST DUP2 PUSH1 0x0 MSTORE PUSH1 0x1 SWAP2 DUP3 DUP3 MSTORE PUSH1 0x40 PUSH1 0x0 KECCAK256 PUSH1 0x1 DUP1 PUSH1 0xA0 SHL SUB SWAP1 DUP2 DUP6 DUP3 ADD SLOAD AND PUSH2 0x1232 DUP2 ISZERO ISZERO PUSH2 0x1959 JUMP JUMPDEST CALLER SUB PUSH2 0x143F JUMPI DUP1 PUSH2 0x124C PUSH1 0xFF PUSH1 0x7 PUSH1 0x6 SWAP5 ADD SLOAD AND ISZERO PUSH2 0x19D0 JUMP JUMPDEST ADD SLOAD SWAP3 DUP3 PUSH1 0x0 MSTORE DUP5 PUSH1 0x2 SWAP3 DUP4 DUP4 MSTORE PUSH1 0x40 PUSH1 0x0 KECCAK256 SWAP1 DUP3 PUSH1 0x0 SWAP1 JUMPDEST PUSH2 0x13CD JUMPI JUMPDEST POP POP POP POP DUP3 PUSH1 0x0 MSTORE DUP5 DUP2 MSTORE PUSH1 0x40 PUSH1 0x0 KECCAK256 SWAP2 PUSH1 0x0 DUP4 SSTORE PUSH1 0x0 DUP7 DUP5 ADD SSTORE PUSH1 0x0 DUP2 DUP5 ADD SSTORE PUSH1 0x0 PUSH1 0xA PUSH1 0x3 SWAP5 PUSH2 0x129D DUP7 DUP3 ADD PUSH2 0x1A0F JUMP JUMPDEST PUSH1 0x4 DUP2 ADD PUSH2 0x12AB DUP2 SLOAD PUSH2 0x174B JUMP JUMPDEST SWAP1 DUP2 PUSH2 0x1392 JUMPI JUMPDEST POP POP DUP3 PUSH1 0x5 DUP3 ADD SSTORE DUP3 PUSH1 0x6 DUP3 ADD SSTORE DUP3 PUSH1 0x7 DUP3 ADD SSTORE PUSH2 0x12D2 PUSH1 0x8 DUP3 ADD PUSH2 0x1A0F JUMP JUMPDEST DUP3 PUSH1 0x9 DUP3 ADD SSTORE ADD SSTORE DUP4 PUSH1 0x0 MSTORE DUP1 DUP3 MSTORE PUSH1 0x40 PUSH1 0x0 KECCAK256 SWAP2 DUP3 SLOAD SWAP3 PUSH1 0x0 DUP2 SSTORE DUP4 PUSH2 0x1356 JUMPI JUMPDEST POP POP POP POP POP CALLER SWAP1 PUSH32 0xB3B81ECF84AACBE9D91AE268652677F6C35FB924934E461744004CFD6CD2AB14 PUSH1 0x0 DUP1 LOG3 DUP1 ISZERO DUP1 ISZERO PUSH2 0x1330 JUMPI JUMPDEST PUSH1 0x0 DUP4 SWAP1 SSTORE STOP JUMPDEST PUSH1 0x0 DUP1 DUP1 SWAP4 DUP2 SWAP4 DUP3 SWAP1 PUSH2 0x134D JUMPI JUMPDEST CALLER SWAP1 CALL ISZERO PUSH2 0x56B JUMPI DUP2 DUP1 PUSH2 0x1329 JUMP JUMPDEST POP PUSH2 0x8FC PUSH2 0x133E JUMP JUMPDEST DUP4 DUP6 MUL SWAP4 DUP6 DUP6 DIV SUB PUSH2 0x5CE JUMPI PUSH1 0x0 MSTORE PUSH1 0x0 KECCAK256 SWAP2 DUP3 ADD SWAP2 JUMPDEST DUP3 DUP2 LT PUSH2 0x137A JUMPI DUP1 PUSH2 0x12F4 JUMP JUMPDEST DUP1 PUSH1 0x0 DUP6 SWAP3 SSTORE PUSH1 0x0 DUP9 DUP3 ADD SSTORE PUSH1 0x0 DUP4 DUP3 ADD SSTORE ADD PUSH2 0x136D JUMP JUMPDEST DUP2 PUSH1 0x1F DUP7 SWAP4 GT PUSH1 0x1 EQ PUSH2 0x13A9 JUMPI POP SSTORE JUMPDEST DUP10 DUP1 PUSH2 0x12B2 JUMP JUMPDEST DUP2 DUP4 MSTORE DUP8 DUP4 KECCAK256 SWAP2 DUP4 SWAP2 PUSH2 0x13C6 SWAP1 PUSH1 0x1F ADD PUSH1 0x5 SHR DUP5 ADD DUP5 DUP16 ADD PUSH2 0x18D8 JUMP JUMPDEST SSTORE SSTORE PUSH2 0x13A2 JUMP JUMPDEST DUP3 SLOAD DUP2 LT ISZERO PUSH2 0x143A JUMPI DUP4 PUSH2 0x13E1 DUP3 DUP6 PUSH2 0x1991 JUMP JUMPDEST POP ADD SLOAD PUSH2 0x13F8 JUMPI JUMPDEST PUSH2 0x13F2 SWAP1 PUSH2 0x1876 JUMP JUMPDEST DUP4 PUSH2 0x1265 JUMP JUMPDEST SWAP3 POP PUSH1 0x0 DUP1 DUP1 DUP1 DUP5 PUSH2 0x140A DUP9 DUP9 PUSH2 0x1991 JUMP JUMPDEST POP SLOAD AND DUP13 PUSH2 0x1418 DUP10 DUP10 PUSH2 0x1991 JUMP JUMPDEST POP ADD SLOAD SWAP1 DUP3 DUP3 ISZERO PUSH2 0x1431 JUMPI JUMPDEST CALL ISZERO PUSH2 0x56B JUMPI DUP8 SWAP3 PUSH2 0x13E9 JUMP JUMPDEST POP PUSH2 0x8FC PUSH2 0x1424 JUMP JUMPDEST PUSH2 0x126A JUMP JUMPDEST PUSH1 0x40 MLOAD PUSH3 0x461BCD PUSH1 0xE5 SHL DUP2 MSTORE PUSH1 0x4 DUP2 ADD DUP6 SWAP1 MSTORE PUSH1 0xC PUSH1 0x24 DUP3 ADD MSTORE PUSH12 0x27B7363C9031B932B0BA37B9 PUSH1 0xA1 SHL PUSH1 0x44 DUP3 ADD MSTORE PUSH1 0x64 SWAP1 REVERT JUMPDEST CALLVALUE PUSH2 0x3B0 JUMPI PUSH1 0x20 CALLDATASIZE PUSH1 0x3 NOT ADD SLT PUSH2 0x3B0 JUMPI PUSH1 0x4 CALLDATALOAD PUSH2 0x148F PUSH2 0x1936 JUMP JUMPDEST DUP1 PUSH1 0x0 MSTORE PUSH1 0x1 PUSH1 0x20 MSTORE PUSH1 0x40 PUSH1 0x0 KECCAK256 SWAP1 PUSH1 0x1 DUP1 PUSH1 0xA0 SHL SUB SWAP2 DUP3 PUSH1 0x1 DUP3 ADD SLOAD AND PUSH2 0x14B8 DUP2 ISZERO ISZERO PUSH2 0x1959 JUMP JUMPDEST PUSH1 0x5 DUP3 ADD SLOAD TIMESTAMP LT PUSH2 0x15DB JUMPI CALLER EQ DUP1 ISZERO PUSH2 0x15CC JUMPI JUMPDEST ISZERO PUSH2 0x1598 JUMPI PUSH1 0x7 DUP2 ADD DUP1 SLOAD SWAP3 PUSH2 0x14E5 PUSH1 0xFF DUP6 AND ISZERO PUSH2 0x19D0 JUMP JUMPDEST PUSH1 0x1 PUSH1 0xFF NOT DUP6 AND OR SWAP1 DUP2 DUP4 SSTORE PUSH1 0xFF PUSH1 0x9 DUP6 ADD SLOAD AND SWAP1 PUSH2 0x1507 PUSH1 0x40 MLOAD DUP1 SWAP4 PUSH2 0x16D0 JUMP JUMPDEST PUSH32 0x94B202B76E66F9B1A5A934D9335701186B3B52632F9A4DA8763DA9EF4D2854F4 PUSH1 0x20 CALLER SWAP4 LOG3 PUSH1 0x6 DUP4 ADD SLOAD SWAP1 DUP2 ISZERO SWAP1 DUP2 ISZERO SWAP1 DUP2 PUSH2 0x1589 JUMPI JUMPDEST POP PUSH2 0x154C JUMPI JUMPDEST PUSH1 0x1 PUSH1 0x0 SSTORE STOP JUMPDEST PUSH1 0x0 SWAP6 PUSH1 0x2 DUP8 SWAP7 SWAP6 DUP8 SWAP7 SWAP6 PUSH2 0x101 DUP9 SWAP8 PUSH2 0xFFFF NOT AND OR SWAP1 SSTORE ADD SLOAD AND SWAP1 DUP4 SWAP1 PUSH2 0x1580 JUMPI JUMPDEST CALL ISZERO PUSH2 0x56B JUMPI DUP1 DUP1 DUP1 DUP1 DUP1 DUP1 PUSH2 0x1545 JUMP JUMPDEST POP PUSH2 0x8FC PUSH2 0x156F JUMP JUMPDEST PUSH1 0xFF SWAP2 POP PUSH1 0x8 SHR AND ISZERO DUP8 PUSH2 0x153F JUMP JUMPDEST PUSH1 0x40 MLOAD PUSH3 0x461BCD PUSH1 0xE5 SHL DUP2 MSTORE PUSH1 0x20 PUSH1 0x4 DUP3 ADD MSTORE PUSH1 0xC PUSH1 0x24 DUP3 ADD MSTORE PUSH12 0x155B985D5D1A1BDC9A5E9959 PUSH1 0xA2 SHL PUSH1 0x44 DUP3 ADD MSTORE PUSH1 0x64 SWAP1 REVERT JUMPDEST POP DUP3 PUSH1 0x2 DUP3 ADD SLOAD AND CALLER EQ PUSH2 0x14CC JUMP JUMPDEST PUSH1 0x40 MLOAD PUSH3 0x461BCD PUSH1 0xE5 SHL DUP2 MSTORE PUSH1 0x20 PUSH1 0x4 DUP3 ADD MSTORE PUSH1 0x7 PUSH1 0x24 DUP3 ADD MSTORE PUSH7 0x139BDD081E595D PUSH1 0xCA SHL PUSH1 0x44 DUP3 ADD MSTORE PUSH1 0x64 SWAP1 REVERT JUMPDEST CALLVALUE PUSH2 0x3B0 JUMPI PUSH1 0x40 CALLDATASIZE PUSH1 0x3 NOT ADD SLT PUSH2 0x3B0 JUMPI PUSH1 0x60 DUP2 PUSH2 0x1629 PUSH1 0x0 SWAP4 PUSH2 0x181B JUMP JUMPDEST DUP3 DUP2 MSTORE DUP3 PUSH1 0x20 DUP3 ADD MSTORE DUP3 PUSH1 0x40 DUP3 ADD MSTORE ADD MSTORE PUSH1 0x4 CALLDATALOAD PUSH1 0x0 MSTORE PUSH1 0x2 PUSH1 0x20 MSTORE PUSH1 0x80 PUSH2 0x1657 PUSH1 0x24 CALLDATALOAD PUSH1 0x40 PUSH1 0x0 KECCAK256 PUSH2 0x1991 JUMP JUMPDEST POP PUSH1 0x40 MLOAD SWAP1 PUSH2 0x1665 DUP3 PUSH2 0x181B JUMP JUMPDEST DUP1 SLOAD PUSH1 0x1 PUSH1 0x1 PUSH1 0xA0 SHL SUB DUP1 DUP3 AND DUP5 MSTORE SWAP2 SWAP1 PUSH2 0x16C0 SWAP1 PUSH1 0x20 DUP6 ADD SWAP1 PUSH2 0x168F SWAP1 PUSH1 0xA0 SHR PUSH1 0xFF AND DUP3 PUSH2 0x18CC JUMP JUMPDEST PUSH1 0xFF PUSH1 0x2 PUSH1 0x1 DUP6 ADD SLOAD SWAP5 PUSH1 0x40 DUP9 ADD SWAP6 DUP7 MSTORE ADD SLOAD AND SWAP4 PUSH1 0x60 DUP7 ADD SWAP5 ISZERO ISZERO DUP6 MSTORE PUSH1 0x40 MLOAD SWAP6 MLOAD AND DUP6 MSTORE MLOAD PUSH1 0x20 DUP6 ADD SWAP1 PUSH2 0x16D0 JUMP JUMPDEST MLOAD PUSH1 0x40 DUP4 ADD MSTORE MLOAD ISZERO ISZERO PUSH1 0x60 DUP3 ADD MSTORE RETURN JUMPDEST SWAP1 PUSH1 0x9 DUP3 LT ISZERO PUSH2 0x65E JUMPI MSTORE JUMP JUMPDEST SWAP2 DUP2 PUSH1 0x1F DUP5 ADD SLT ISZERO PUSH2 0x3B0 JUMPI DUP3 CALLDATALOAD SWAP2 PUSH8 0xFFFFFFFFFFFFFFFF DUP4 GT PUSH2 0x3B0 JUMPI PUSH1 0x20 DUP4 DUP2 DUP7 ADD SWAP6 ADD ADD GT PUSH2 0x3B0 JUMPI JUMP JUMPDEST SWAP2 SWAP1 DUP3 MLOAD SWAP3 DUP4 DUP3 MSTORE PUSH1 0x0 JUMPDEST DUP5 DUP2 LT PUSH2 0x1737 JUMPI POP POP DUP3 PUSH1 0x0 PUSH1 0x20 DUP1 SWAP5 SWAP6 DUP5 ADD ADD MSTORE PUSH1 0x1F DUP1 NOT SWAP2 ADD AND ADD ADD SWAP1 JUMP JUMPDEST PUSH1 0x20 DUP2 DUP4 ADD DUP2 ADD MLOAD DUP5 DUP4 ADD DUP3 ADD MSTORE ADD PUSH2 0x1716 JUMP JUMPDEST SWAP1 PUSH1 0x1 DUP3 DUP2 SHR SWAP3 AND DUP1 ISZERO PUSH2 0x177B JUMPI JUMPDEST PUSH1 0x20 DUP4 LT EQ PUSH2 0x1765 JUMPI JUMP JUMPDEST PUSH4 0x4E487B71 PUSH1 0xE0 SHL PUSH1 0x0 MSTORE PUSH1 0x22 PUSH1 0x4 MSTORE PUSH1 0x24 PUSH1 0x0 REVERT JUMPDEST SWAP2 PUSH1 0x7F AND SWAP2 PUSH2 0x175A JUMP JUMPDEST SWAP1 PUSH1 0x0 SWAP3 SWAP2 DUP1 SLOAD SWAP2 PUSH2 0x1796 DUP4 PUSH2 0x174B JUMP JUMPDEST SWAP2 DUP3 DUP3 MSTORE PUSH1 0x1 SWAP4 DUP5 DUP2 AND SWAP1 DUP2 PUSH1 0x0 EQ PUSH2 0x17F8 JUMPI POP PUSH1 0x1 EQ PUSH2 0x17B8 JUMPI JUMPDEST POP POP POP POP JUMP JUMPDEST SWAP1 SWAP2 SWAP4 SWAP5 POP PUSH1 0x0 MSTORE PUSH1 0x20 SWAP3 DUP4 PUSH1 0x0 KECCAK256 SWAP3 DUP5 PUSH1 0x0 SWAP5 JUMPDEST DUP4 DUP7 LT PUSH2 0x17E4 JUMPI POP POP POP POP ADD ADD SWAP1 CODESIZE DUP1 DUP1 DUP1 PUSH2 0x17B2 JUMP JUMPDEST DUP1 SLOAD DUP6 DUP8 ADD DUP4 ADD MSTORE SWAP5 ADD SWAP4 DUP6 SWAP1 DUP3 ADD PUSH2 0x17CD JUMP JUMPDEST SWAP3 SWAP5 POP POP POP PUSH1 0x20 SWAP4 SWAP5 POP PUSH1 0xFF NOT AND DUP4 DUP4 ADD MSTORE ISZERO ISZERO PUSH1 0x5 SHL ADD ADD SWAP1 CODESIZE DUP1 DUP1 DUP1 PUSH2 0x17B2 JUMP JUMPDEST PUSH1 0x80 DUP2 ADD SWAP1 DUP2 LT PUSH8 0xFFFFFFFFFFFFFFFF DUP3 GT OR PUSH2 0x1061 JUMPI PUSH1 0x40 MSTORE JUMP JUMPDEST PUSH2 0x1A0 DUP2 ADD SWAP1 DUP2 LT PUSH8 0xFFFFFFFFFFFFFFFF DUP3 GT OR PUSH2 0x1061 JUMPI PUSH1 0x40 MSTORE JUMP JUMPDEST SWAP1 PUSH1 0x1F DUP1 NOT SWAP2 ADD AND DUP2 ADD SWAP1 DUP2 LT PUSH8 0xFFFFFFFFFFFFFFFF DUP3 GT OR PUSH2 0x1061 JUMPI PUSH1 0x40 MSTORE JUMP JUMPDEST PUSH1 0x0 NOT DUP2 EQ PUSH2 0x5CE JUMPI PUSH1 0x1 ADD SWAP1 JUMP JUMPDEST SWAP3 SWAP2 SWAP3 PUSH8 0xFFFFFFFFFFFFFFFF DUP3 GT PUSH2 0x1061 JUMPI PUSH1 0x40 MLOAD SWAP2 PUSH2 0x18AF PUSH1 0x1F DUP3 ADD PUSH1 0x1F NOT AND PUSH1 0x20 ADD DUP5 PUSH2 0x1854 JUMP JUMPDEST DUP3 SWAP5 DUP2 DUP5 MSTORE DUP2 DUP4 ADD GT PUSH2 0x3B0 JUMPI DUP3 DUP2 PUSH1 0x20 SWAP4 DUP5 PUSH1 0x0 SWAP7 ADD CALLDATACOPY ADD ADD MSTORE JUMP JUMPDEST PUSH1 0x9 DUP3 LT ISZERO PUSH2 0x65E JUMPI MSTORE JUMP JUMPDEST DUP2 DUP2 LT PUSH2 0x18E3 JUMPI POP POP JUMP JUMPDEST PUSH1 0x0 DUP2 SSTORE PUSH1 0x1 ADD PUSH2 0x18D8 JUMP JUMPDEST SWAP2 SWAP1 PUSH1 0x1F DUP2 GT PUSH2 0x18FE JUMPI POP POP POP JUMP JUMPDEST PUSH2 0x192A SWAP3 PUSH1 0x0 MSTORE PUSH1 0x20 PUSH1 0x0 KECCAK256 SWAP1 PUSH1 0x20 PUSH1 0x1F DUP5 ADD PUSH1 0x5 SHR DUP4 ADD SWAP4 LT PUSH2 0x192C JUMPI JUMPDEST PUSH1 0x1F ADD PUSH1 0x5 SHR ADD SWAP1 PUSH2 0x18D8 JUMP JUMPDEST JUMP JUMPDEST SWAP1 SWAP2 POP DUP2 SWAP1 PUSH2 0x191D JUMP JUMPDEST PUSH1 0x2 PUSH1 0x0 SLOAD EQ PUSH2 0x1947 JUMPI PUSH1 0x2 PUSH1 0x0 SSTORE JUMP JUMPDEST PUSH1 0x40 MLOAD PUSH4 0x3EE5AEB5 PUSH1 0xE0 SHL DUP2 MSTORE PUSH1 0x4 SWAP1 REVERT JUMPDEST ISZERO PUSH2 0x1960 JUMPI JUMP JUMPDEST PUSH1 0x40 MLOAD PUSH3 0x461BCD PUSH1 0xE5 SHL DUP2 MSTORE PUSH1 0x20 PUSH1 0x4 DUP3 ADD MSTORE PUSH1 0x9 PUSH1 0x24 DUP3 ADD MSTORE PUSH9 0x139BDD08199BDD5B99 PUSH1 0xBA SHL PUSH1 0x44 DUP3 ADD MSTORE PUSH1 0x64 SWAP1 REVERT JUMPDEST DUP1 SLOAD DUP3 LT ISZERO PUSH2 0x19AD JUMPI PUSH1 0x0 MSTORE PUSH1 0x3 PUSH1 0x20 PUSH1 0x0 KECCAK256 SWAP2 MUL ADD SWAP1 PUSH1 0x0 SWAP1 JUMP JUMPDEST PUSH4 0x4E487B71 PUSH1 0xE0 SHL PUSH1 0x0 MSTORE PUSH1 0x32 PUSH1 0x4 MSTORE PUSH1 0x24 PUSH1 0x0 REVERT JUMPDEST SWAP2 SWAP1 DUP3 ADD DUP1 SWAP3 GT PUSH2 0x5CE JUMPI JUMP JUMPDEST ISZERO PUSH2 0x19D7 JUMPI JUMP JUMPDEST PUSH1 0x40 MLOAD PUSH3 0x461BCD PUSH1 0xE5 SHL DUP2 MSTORE PUSH1 0x20 PUSH1 0x4 DUP3 ADD MSTORE PUSH1 0x10 PUSH1 0x24 DUP3 ADD MSTORE PUSH16 0x105B1C9958591E481D5B9B1BD8DAD959 PUSH1 0x82 SHL PUSH1 0x44 DUP3 ADD MSTORE PUSH1 0x64 SWAP1 REVERT JUMPDEST PUSH2 0x1A19 DUP2 SLOAD PUSH2 0x174B JUMP JUMPDEST SWAP1 DUP2 PUSH2 0x1A23 JUMPI POP POP JUMP JUMPDEST DUP2 PUSH1 0x1F PUSH1 0x0 SWAP4 GT PUSH1 0x1 EQ PUSH2 0x1A35 JUMPI POP SSTORE JUMP JUMPDEST SWAP1 DUP1 DUP4 SWAP2 DUP3 MSTORE PUSH2 0x1A54 PUSH1 0x1F PUSH1 0x20 DUP5 KECCAK256 SWAP5 ADD PUSH1 0x5 SHR DUP5 ADD PUSH1 0x1 DUP6 ADD PUSH2 0x18D8 JUMP JUMPDEST SSTORE SSTORE JUMP INVALID LOG2 PUSH5 0x6970667358 0x22 SLT KECCAK256 BLOCKHASH 0x4C CHAINID SWAP14 0x2E SWAP12 0xF8 0xEC PUSH17 0xC455810E1EC4D5152F73C41E8843542698 0xAC 0xE4 JUMPDEST PUSH15 0xDC0264736F6C634300081400330000 "},"methodIdentifiers":{"GRACE_PERIOD()":"c1a287e2","MIN_PREDICTION_STAKE()":"4a098c77","capsules(uint256)":"517bbf46","claimReward(uint256)":"ae169a50","createCapsule(address,uint256,string,bytes,string,uint8,bool)":"2c76d395","daoTreasury()":"79022a9f","deleteCapsule(uint256)":"29d72336","getCapsule(uint256)":"3aac3858","getPrediction(uint256,uint256)":"1b0a102c","getPredictionCount(uint256)":"5d45dcf5","hasPredicted(uint256,address)":"85d6b426","makePrediction(uint256,uint8)":"ec3bc06b","nextCapsuleId()":"ae3cfaed","unlockCapsule(uint256)":"2178c0a2"}}}}}