{
  "_format": "hh-sol-artifact-1",
  "contractName": "TimeCapsule",
  "sourceName": "contracts/TimeCapsule.sol",
  "abi": [
    {
      "inputs": [
        {
          "internalType": "address",
          "name": "_daoTreasury",
          "type": "address"
        }
      ],
      "stateMutability": "nonpayable",
      "type": "constructor"
    },
    {
      "inputs": [],
      "name": "ReentrancyGuardReentrantCall",
      "type": "error"
    },
    {
      "anonymous": false,
      "inputs": [
        {
          "indexed": true,
          "internalType": "uint256",
          "name": "id",
          "type": "uint256"
        },
        {
          "indexed": true,
          "internalType": "address",
          "name": "creator",
          "type": "address"
        },
        {
          "indexed": false,
          "internalType": "uint256",
          "name": "unlockTime",
          "type": "uint256"
        },
        {
          "indexed": false,
          "internalType": "bool",
          "name": "isPublic",
          "type": "bool"
        }
      ],
      "name": "CapsuleCreated",
      "type": "event"
    },
    {
      "anonymous": false,
      "inputs": [
        {
          "indexed": true,
          "internalType": "uint256",
          "name": "id",
          "type": "uint256"
        },
        {
          "indexed": true,
          "internalType": "address",
          "name": "creator",
          "type": "address"
        }
      ],
      "name": "CapsuleDeleted",
      "type": "event"
    },
    {
      "anonymous": false,
      "inputs": [
        {
          "indexed": true,
          "internalType": "uint256",
          "name": "id",
          "type": "uint256"
        },
        {
          "indexed": true,
          "internalType": "address",
          "name": "unlocker",
          "type": "address"
        },
        {
          "indexed": false,
          "internalType": "enum TimeCapsule.Category",
          "name": "actualCategory",
          "type": "uint8"
        }
      ],
      "name": "CapsuleUnlocked",
      "type": "event"
    },
    {
      "anonymous": false,
      "inputs": [
        {
          "indexed": true,
          "internalType": "uint256",
          "name": "capsuleId",
          "type": "uint256"
        },
        {
          "indexed": true,
          "internalType": "address",
          "name": "predictor",
          "type": "address"
        },
        {
          "indexed": false,
          "internalType": "enum TimeCapsule.Category",
          "name": "guess",
          "type": "uint8"
        },
        {
          "indexed": false,
          "internalType": "uint256",
          "name": "stakeAmount",
          "type": "uint256"
        }
      ],
      "name": "PredictionMade",
      "type": "event"
    },
    {
      "anonymous": false,
      "inputs": [
        {
          "indexed": true,
          "internalType": "uint256",
          "name": "capsuleId",
          "type": "uint256"
        },
        {
          "indexed": true,
          "internalType": "address",
          "name": "predictor",
          "type": "address"
        },
        {
          "indexed": false,
          "internalType": "uint256",
          "name": "reward",
          "type": "uint256"
        }
      ],
      "name": "RewardClaimed",
      "type": "event"
    },
    {
      "inputs": [],
      "name": "GRACE_PERIOD",
      "outputs": [
        {
          "internalType": "uint256",
          "name": "",
          "type": "uint256"
        }
      ],
      "stateMutability": "view",
      "type": "function"
    },
    {
      "inputs": [],
      "name": "MIN_PREDICTION_STAKE",
      "outputs": [
        {
          "internalType": "uint256",
          "name": "",
          "type": "uint256"
        }
      ],
      "stateMutability": "view",
      "type": "function"
    },
    {
      "inputs": [
        {
          "internalType": "uint256",
          "name": "",
          "type": "uint256"
        }
      ],
      "name": "capsules",
      "outputs": [
        {
          "internalType": "uint256",
          "name": "id",
          "type": "uint256"
        },
        {
          "internalType": "address",
          "name": "creator",
          "type": "address"
        },
        {
          "internalType": "address",
          "name": "recipient",
          "type": "address"
        },
        {
          "internalType": "string",
          "name": "ipfsCID",
          "type": "string"
        },
        {
          "internalType": "bytes",
          "name": "encryptedKey",
          "type": "bytes"
        },
        {
          "internalType": "uint256",
          "name": "unlockTime",
          "type": "uint256"
        },
        {
          "internalType": "uint256",
          "name": "stakeAmount",
          "type": "uint256"
        },
        {
          "internalType": "bool",
          "name": "isUnlocked",
          "type": "bool"
        },
        {
          "internalType": "bool",
          "name": "stakeReleased",
          "type": "bool"
        },
        {
          "internalType": "string",
          "name": "hint",
          "type": "string"
        },
        {
          "internalType": "enum TimeCapsule.Category",
          "name": "actualCategory",
          "type": "uint8"
        },
        {
          "internalType": "bool",
          "name": "isPublic",
          "type": "bool"
        },
        {
          "internalType": "uint256",
          "name": "predictionPool",
          "type": "uint256"
        }
      ],
      "stateMutability": "view",
      "type": "function"
    },
    {
      "inputs": [
        {
          "internalType": "uint256",
          "name": "_id",
          "type": "uint256"
        }
      ],
      "name": "claimReward",
      "outputs": [],
      "stateMutability": "nonpayable",
      "type": "function"
    },
    {
      "inputs": [
        {
          "internalType": "address",
          "name": "_recipient",
          "type": "address"
        },
        {
          "internalType": "uint256",
          "name": "_unlockTime",
          "type": "uint256"
        },
        {
          "internalType": "string",
          "name": "_ipfsCid",
          "type": "string"
        },
        {
          "internalType": "bytes",
          "name": "_encryptedKey",
          "type": "bytes"
        },
        {
          "internalType": "string",
          "name": "_hint",
          "type": "string"
        },
        {
          "internalType": "enum TimeCapsule.Category",
          "name": "_category",
          "type": "uint8"
        },
        {
          "internalType": "bool",
          "name": "_isPublic",
          "type": "bool"
        }
      ],
      "name": "createCapsule",
      "outputs": [],
      "stateMutability": "payable",
      "type": "function"
    },
    {
      "inputs": [],
      "name": "daoTreasury",
      "outputs": [
        {
          "internalType": "address",
          "name": "",
          "type": "address"
        }
      ],
      "stateMutability": "view",
      "type": "function"
    },
    {
      "inputs": [
        {
          "internalType": "uint256",
          "name": "_id",
          "type": "uint256"
        }
      ],
      "name": "deleteCapsule",
      "outputs": [],
      "stateMutability": "nonpayable",
      "type": "function"
    },
    {
      "inputs": [
        {
          "internalType": "uint256",
          "name": "_id",
          "type": "uint256"
        }
      ],
      "name": "getCapsule",
      "outputs": [
        {
          "components": [
            {
              "internalType": "uint256",
              "name": "id",
              "type": "uint256"
            },
            {
              "internalType": "address",
              "name": "creator",
              "type": "address"
            },
            {
              "internalType": "address",
              "name": "recipient",
              "type": "address"
            },
            {
              "internalType": "string",
              "name": "ipfsCID",
              "type": "string"
            },
            {
              "internalType": "bytes",
              "name": "encryptedKey",
              "type": "bytes"
            },
            {
              "internalType": "uint256",
              "name": "unlockTime",
              "type": "uint256"
            },
            {
              "internalType": "uint256",
              "name": "stakeAmount",
              "type": "uint256"
            },
            {
              "internalType": "bool",
              "name": "isUnlocked",
              "type": "bool"
            },
            {
              "internalType": "bool",
              "name": "stakeReleased",
              "type": "bool"
            },
            {
              "internalType": "string",
              "name": "hint",
              "type": "string"
            },
            {
              "internalType": "enum TimeCapsule.Category",
              "name": "actualCategory",
              "type": "uint8"
            },
            {
              "internalType": "bool",
              "name": "isPublic",
              "type": "bool"
            },
            {
              "internalType": "uint256",
              "name": "predictionPool",
              "type": "uint256"
            }
          ],
          "internalType": "struct TimeCapsule.Capsule",
          "name": "",
          "type": "tuple"
        }
      ],
      "stateMutability": "view",
      "type": "function"
    },
    {
      "inputs": [
        {
          "internalType": "uint256",
          "name": "_id",
          "type": "uint256"
        },
        {
          "internalType": "uint256",
          "name": "_idx",
          "type": "uint256"
        }
      ],
      "name": "getPrediction",
      "outputs": [
        {
          "components": [
            {
              "internalType": "address",
              "name": "predictor",
              "type": "address"
            },
            {
              "internalType": "enum TimeCapsule.Category",
              "name": "guess",
              "type": "uint8"
            },
            {
              "internalType": "uint256",
              "name": "stakeAmount",
              "type": "uint256"
            },
            {
              "internalType": "bool",
              "name": "claimed",
              "type": "bool"
            }
          ],
          "internalType": "struct TimeCapsule.Prediction",
          "name": "",
          "type": "tuple"
        }
      ],
      "stateMutability": "view",
      "type": "function"
    },
    {
      "inputs": [
        {
          "internalType": "uint256",
          "name": "_id",
          "type": "uint256"
        }
      ],
      "name": "getPredictionCount",
      "outputs": [
        {
          "internalType": "uint256",
          "name": "",
          "type": "uint256"
        }
      ],
      "stateMutability": "view",
      "type": "function"
    },
    {
      "inputs": [
        {
          "internalType": "uint256",
          "name": "",
          "type": "uint256"
        },
        {
          "internalType": "address",
          "name": "",
          "type": "address"
        }
      ],
      "name": "hasPredicted",
      "outputs": [
        {
          "internalType": "bool",
          "name": "",
          "type": "bool"
        }
      ],
      "stateMutability": "view",
      "type": "function"
    },
    {
      "inputs": [
        {
          "internalType": "uint256",
          "name": "_id",
          "type": "uint256"
        },
        {
          "internalType": "enum TimeCapsule.Category",
          "name": "_guess",
          "type": "uint8"
        }
      ],
      "name": "makePrediction",
      "outputs": [],
      "stateMutability": "payable",
      "type": "function"
    },
    {
      "inputs": [],
      "name": "nextCapsuleId",
      "outputs": [
        {
          "internalType": "uint256",
          "name": "",
          "type": "uint256"
        }
      ],
      "stateMutability": "view",
      "type": "function"
    },
    {
      "inputs": [
        {
          "internalType": "uint256",
          "name": "_id",
          "type": "uint256"
        }
      ],
      "name": "unlockCapsule",
      "outputs": [],
      "stateMutability": "nonpayable",
      "type": "function"
    }
  ],
  "bytecode": "0x60a0346100ad57601f611b5738819003918201601f19168301916001600160401b038311848410176100b2578084926020946040528339810103126100ad57516001600160a01b0381168082036100ad5760016000551561007557608052604051611a8e90816100c98239608051816108230152f35b60405162461bcd60e51b815260206004820152601060248201526f496e76616c696420547265617375727960801b6044820152606490fd5b600080fd5b634e487b7160e01b600052604160045260246000fdfe608080604052600436101561001357600080fd5b60003560e01c9081631b0a102c1461160a575080632178c0a21461147357806329d72336146111ec5780632c76d39514610c2e5780633aac3858146109e75780634a098c77146109c5578063517bbf461461087e5780635d45dcf51461085257806379022a9f1461080d57806385d6b426146107bb578063ae169a50146103f2578063ae3cfaed146103d4578063c1a287e2146103b55763ec3bc06b146100b957600080fd5b60403660031901126103b0576024803560043560098210156103b0576100dd611936565b8060005260019260209084825260406000209060018060a01b036101078188850154161515611959565b60ff600984015460081c16806103a1575b1561036c57600583015442101561033d578460005260038452604060002033600052845260ff604060002054166103055766038d7ea4c6800034106102d1578460005260028452604060002090604051926101728461181b565b3384528584019061018389836118cc565b6040850192348452606086019460008652805490680100000000000000008210156102bc57906101b7918d82018155611991565b9690966102a757511690855492826bffffffffffffffffffffffff60a01b85161787555190600982101561029357506001600160a81b03199092161760a09190911b60ff60a01b16178355518783015551600291909101805491151560ff1660ff1992909216919091179055600a908360005260038352604060002033600052835260406000208660ff19825416179055016102543482546119c3565b905561026360405180946116d0565b34908301527fda30f73a3e960b5ac088351f9267cabe93697fa1626149956fb9a54bc6d07b9560403393a3600055005b634e487b7160e01b60009081526021600452fd5b82634e487b7160e01b60005260006004526000fd5b83634e487b7160e01b60005260416004526000fd5b60405162461bcd60e51b815260048101859052600d818401526c5374616b6520746f6f206c6f7760981b6044820152606490fd5b60405162461bcd60e51b81526004810185905260118184015270105b1c9958591e481c1c99591a58dd1959607a1b6044820152606490fd5b60405162461bcd60e51b81526004810185905260088184015267546f6f206c61746560c01b6044820152606490fd5b60405162461bcd60e51b815260048101859052600e818401526d10d85b9b9bdd081c1c99591a58dd60921b6044820152606490fd5b5060ff60078401541615610118565b600080fd5b346103b05760003660031901126103b05760206040516301e133808152f35b346103b05760003660031901126103b0576020600454604051908152f35b346103b05760203660031901126103b05761040b611936565b6004356000526001602052604060002060ff6007820154161561078757600435600052600360205260406000203360005260205260ff604060002054161561075257600435600052600260205260406000206000906000808254905b81811061071a575b5050156106de5760ff60026104848484611991565b500154166106a757600960ff61049a8484611991565b505460a01c1693019260ff84541690600982101561065e57600981101561065e57036106745760026104cc8383611991565b5001600160ff1982541617905560009060009360009060ff8354915416905b8083106105ed5750505060016105018483611991565b500154928215918215806105e4575b610580575b5050505080915060008115610577575b600080809381933390f11561056b5760405190815233907f24b5efa61dd1cfc659205a97fb8ed868f3cb8c81922bab2b96423e5de1de2cb7602060043592a36001600055005b6040513d6000823e3d90fd5b506108fc610525565b60019161058c91611991565b5001548481029481860414901517156105ce576105b8576105ae9204906119c3565b8082808080610515565b634e487b7160e01b600052601260045260246000fd5b634e487b7160e01b600052601160045260246000fd5b50851515610510565b90919360ff6105fc8686611991565b505460a01c16600984101561065e57600981101561065e5783036106435761063661063c91600161062d8888611991565b500154906119c3565b94611876565b91906104eb565b939561065861063c91600161062d8a88611991565b96611876565b634e487b7160e01b600052602160045260246000fd5b60405162461bcd60e51b815260206004820152600b60248201526a57726f6e6720677565737360a81b6044820152606490fd5b60405162461bcd60e51b815260206004820152600f60248201526e105b1c9958591e4818db185a5b5959608a1b6044820152606490fd5b60405162461bcd60e51b8152602060048201526014602482015273141c99591a58dd1a5bdb881b9bdd08199bdd5b9960621b6044820152606490fd5b6107248185611991565b50546001600160a01b031633146107435761073e90611876565b610467565b9293505050906001848061046f565b60405162461bcd60e51b815260206004820152600d60248201526c273790383932b234b1ba34b7b760991b6044820152606490fd5b60405162461bcd60e51b815260206004820152600c60248201526b139bdd081d5b9b1bd8dad95960a21b6044820152606490fd5b346103b05760403660031901126103b0576024356001600160a01b038116908190036103b0576004356000526003602052604060002090600052602052602060ff604060002054166040519015158152f35b346103b05760003660031901126103b0576040517f00000000000000000000000000000000000000000000000000000000000000006001600160a01b03168152602090f35b346103b05760203660031901126103b05760043560005260026020526020604060002054604051908152f35b346103b05760203660031901126103b057600435600052600160205260406000208054600160a01b60019003918260018201541692600282015416604051808060038501906108cc91611785565b036108d79082611854565b604051806108e88160048701611785565b036108f39082611854565b600584015490600685015460078601549160405194858060088a019061091891611785565b036109239087611854565b600988015497600a0154966040519a8b9a8b5260208b015260408a01526101a08060608b015289016109549161170b565b88810360808a01526109659161170b565b9260a088015260c087015260ff8116151560e087015260081c60ff16151561010086015284810361012086015261099b9161170b565b916109ad610140850160ff83166116d0565b60081c60ff1615156101608401526101808301520390f35b346103b05760003660031901126103b057602060405166038d7ea4c680008152f35b346103b05760203660031901126103b0576000610180604051610a0981611837565b828152826020820152826040820152606080820152606060808201528260a08201528260c08201528260e08201528261010082015260606101208201528261014082015282610160820152015260043560005260016020526040600020600a60405191610a7583611837565b8054835260018101546001600160a01b03908116602085015260028201541660408085019190915251610ab681610aaf8160038601611785565b0382611854565b6060840152604051610acf81610aaf8160048601611785565b6080840152600581015460a0840152600681015460c084015260ff6007820154818116151560e086015260081c161515610100840152604051610b1981610aaf8160088601611785565b61012084015260ff6009820154610b3682821661014087016118cc565b60081c16151561016084015201546101808201526040518091602082528051602083015260018060a01b03602082015116604083015260018060a01b036040820151166060830152610180610c01610b9f60608401516101a060808701526101c086019061170b565b610bbb608085015191601f1992838883030160a089015261170b565b9060a085015160c087015260c085015160e087015260e085015115156101008701526101008501511515610120870152610120850151908683030161014087015261170b565b91610c166101408201516101608601906116d0565b61016081015115158285015201516101a08301520390f35b60e03660031901126103b0576004356001600160a01b03811690036103b05760443567ffffffffffffffff81116103b057610c6d9036906004016116dd565b9060643567ffffffffffffffff81116103b057610c8e9036906004016116dd565b929060843567ffffffffffffffff81116103b057610cb09036906004016116dd565b600960a43510156103b05760c4359586151587036103b057610cd0611936565b4260243511156111ae57841561117a57610d6e93610d4591610d3960045498610cf88a611876565b6004908155356001600160a01b03166111715733985b60405199610d1b8b611837565b8b8b523360208c01526001600160a01b031660408b01523691611885565b60608801523691611885565b608085015260243560a08501523460c0850152600060e085015260006101008501523691611885565b610120820152610d8460a43561014083016118cc565b8215156101608201526000610180820152816000526001602052604060002090805182556001820160018060a01b03602083015116906bffffffffffffffffffffffff60a01b9182825416179055600283019060018060a01b0360408401511690825416179055606081015180519067ffffffffffffffff8211611061578190610e1e82610e15600388015461174b565b600388016118ef565b602090601f83116001146110ff576000926110f4575b50508160011b916000199060031b1c19161760038301555b608081015180519067ffffffffffffffff8211611061578190610e7f82610e76600488015461174b565b600488016118ef565b602090601f831160011461108257600092611077575b50508160011b916000199060031b1c19161760048301555b60a0810151600583015560c08101516006830155610f0060078301610ee460e08401511515829060ff801983541691151516179055565b610100830151815461ff00191690151560081b61ff0016179055565b61012081015180519067ffffffffffffffff8211611061578190610f3482610f2b600888015461174b565b600888016118ef565b602090601f8311600114610fef57600092610fe4575b50508160011b916000199060031b1c19161760088301555b6009820161014082015191600983101561065e57815461016082015161ff0090151560081b1660ff9490941661ffff1990911617929092179055600a906101800151910155604051916024358352151560208301527ff72b5f29d907c4cdb318378fca996a1404acf683c3add631b8c4abf1f319226560403393a36001600055005b015190508680610f4a565b9250600885016000526020600020906000935b601f1984168510611046576001945083601f1981161061102d575b505050811b016008830155610f62565b015160001960f88460031b161c1916905586808061101d565b81810151835560209485019460019093019290910190611002565b634e487b7160e01b600052604160045260246000fd5b015190508680610e95565b9250600485016000526020600020906000935b601f19841685106110d9576001945083601f198116106110c0575b505050811b016004830155610ead565b015160001960f88460031b161c191690558680806110b0565b81810151835560209485019460019093019290910190611095565b015190508680610e34565b9250600385016000526020600020906000935b601f1984168510611156576001945083601f1981161061113d575b505050811b016003830155610e4c565b015160001960f88460031b161c1916905586808061112d565b81810151835560209485019460019093019290910190611112565b60043598610d0e565b60405162461bcd60e51b815260206004820152600c60248201526b10d251081c995c5d5a5c995960a21b6044820152606490fd5b60405162461bcd60e51b815260206004820152601660248201527554696d65206d75737420626520696e2066757475726560501b6044820152606490fd5b346103b0576020806003193601126103b0576004359061120a611936565b81600052600191828252604060002060018060a01b0390818582015416611232811515611959565b330361143f578061124c60ff6007600694015416156119d0565b0154928260005284600292838352604060002090826000905b6113cd575b5050505082600052848152604060002091600083556000868401556000818401556000600a60039461129d868201611a0f565b600481016112ab815461174b565b9081611392575b50508260058201558260068201558260078201556112d260088201611a0f565b8260098201550155836000528082526040600020918254926000815583611356575b505050505033907fb3b81ecf84aacbe9d91ae268652677f6c35fb924934e461744004cfd6cd2ab14600080a380158015611330575b6000839055005b60008080938193829061134d575b3390f11561056b578180611329565b506108fc61133e565b83850293858504036105ce57600052600020918201915b82811061137a57806112f4565b8060008592556000888201556000838201550161136d565b81601f8693116001146113a95750555b89806112b2565b8183528783209183916113c690601f0160051c8401848f016118d8565b55556113a2565b825481101561143a57836113e18285611991565b5001546113f8575b6113f290611876565b83611265565b925060008080808461140a8888611991565b5054168c6114188989611991565b50015490828215611431575bf11561056b5787926113e9565b506108fc611424565b61126a565b60405162461bcd60e51b815260048101859052600c60248201526b27b7363c9031b932b0ba37b960a11b6044820152606490fd5b346103b05760203660031901126103b05760043561148f611936565b80600052600160205260406000209060018060a01b0391826001820154166114b8811515611959565b600582015442106115db57331480156115cc575b1561159857600781018054926114e560ff8516156119d0565b600160ff198516179081835560ff6009850154169061150760405180936116d0565b7f94b202b76e66f9b1a5a934d9335701186b3b52632f9a4da8763da9ef4d2854f460203393a360068301549081159081159081611589575b5061154c575b6001600055005b6000956002879695879695610101889761ffff1916179055015416908390611580575bf11561056b57808080808080611545565b506108fc61156f565b60ff915060081c16158761153f565b60405162461bcd60e51b815260206004820152600c60248201526b155b985d5d1a1bdc9a5e995960a21b6044820152606490fd5b508260028201541633146114cc565b60405162461bcd60e51b8152602060048201526007602482015266139bdd081e595d60ca1b6044820152606490fd5b346103b05760403660031901126103b05760608161162960009361181b565b8281528260208201528260408201520152600435600052600260205260806116576024356040600020611991565b50604051906116658261181b565b80546001600160a01b03808216845291906116c090602085019061168f9060a01c60ff16826118cc565b60ff6002600185015494604088019586520154169360608601941515855260405195511685525160208501906116d0565b5160408301525115156060820152f35b90600982101561065e5752565b9181601f840112156103b05782359167ffffffffffffffff83116103b057602083818601950101116103b057565b919082519283825260005b848110611737575050826000602080949584010152601f8019910116010190565b602081830181015184830182015201611716565b90600182811c9216801561177b575b602083101461176557565b634e487b7160e01b600052602260045260246000fd5b91607f169161175a565b90600092918054916117968361174b565b9182825260019384811690816000146117f857506001146117b8575b50505050565b90919394506000526020928360002092846000945b8386106117e45750505050010190388080806117b2565b8054858701830152940193859082016117cd565b9294505050602093945060ff191683830152151560051b010190388080806117b2565b6080810190811067ffffffffffffffff82111761106157604052565b6101a0810190811067ffffffffffffffff82111761106157604052565b90601f8019910116810190811067ffffffffffffffff82111761106157604052565b60001981146105ce5760010190565b92919267ffffffffffffffff821161106157604051916118af601f8201601f191660200184611854565b8294818452818301116103b0578281602093846000960137010152565b600982101561065e5752565b8181106118e3575050565b600081556001016118d8565b9190601f81116118fe57505050565b61192a926000526020600020906020601f840160051c8301931061192c575b601f0160051c01906118d8565b565b909150819061191d565b600260005414611947576002600055565b604051633ee5aeb560e01b8152600490fd5b1561196057565b60405162461bcd60e51b8152602060048201526009602482015268139bdd08199bdd5b9960ba1b6044820152606490fd5b80548210156119ad576000526003602060002091020190600090565b634e487b7160e01b600052603260045260246000fd5b919082018092116105ce57565b156119d757565b60405162461bcd60e51b815260206004820152601060248201526f105b1c9958591e481d5b9b1bd8dad95960821b6044820152606490fd5b611a19815461174b565b9081611a23575050565b81601f60009311600114611a35575055565b908083918252611a54601f60208420940160051c8401600185016118d8565b555556fea2646970667358221220404c469d2e9bf8ec70c455810e1ec4d5152f73c41e8843542698ace45b6edc0264736f6c63430008140033",
  "linkReferences": {},
  "deployedLinkReferences": {}
}