{
  "_format": "hh-sol-artifact-1",
  "contractName": "TimeCapsule",
  "sourceName": "contracts/TimeCapsule.sol",
  "abi": [
    {
      "inputs": [
        {
          "internalType": "address",
          "name": "_daoTreasury",
          "type": "address"
        }
      ],
      "stateMutability": "nonpayable",
      "type": "constructor"
    },
    {
      "inputs": [],
      "name": "ReentrancyGuardReentrantCall",
      "type": "error"
    },
    {
      "anonymous": false,
      "inputs": [
        {
          "indexed": true,
          "internalType": "uint256",
          "name": "id",
          "type": "uint256"
        },
        {
          "indexed": true,
          "internalType": "address",
          "name": "creator",
          "type": "address"
        },
        {
          "indexed": false,
          "internalType": "uint256",
          "name": "unlockTime",
          "type": "uint256"
        },
        {
          "indexed": false,
          "internalType": "bool",
          "name": "isPublic",
          "type": "bool"
        }
      ],
      "name": "CapsuleCreated",
      "type": "event"
    },
    {
      "anonymous": false,
      "inputs": [
        {
          "indexed": true,
          "internalType": "uint256",
          "name": "id",
          "type": "uint256"
        },
        {
          "indexed": true,
          "internalType": "address",
          "name": "creator",
          "type": "address"
        }
      ],
      "name": "CapsuleDeleted",
      "type": "event"
    },
    {
      "anonymous": false,
      "inputs": [
        {
          "indexed": true,
          "internalType": "uint256",
          "name": "capsuleId",
          "type": "uint256"
        },
        {
          "indexed": true,
          "internalType": "address",
          "name": "liker",
          "type": "address"
        }
      ],
      "name": "CapsuleLiked",
      "type": "event"
    },
    {
      "anonymous": false,
      "inputs": [
        {
          "indexed": true,
          "internalType": "uint256",
          "name": "capsuleId",
          "type": "uint256"
        },
        {
          "indexed": true,
          "internalType": "address",
          "name": "unliker",
          "type": "address"
        }
      ],
      "name": "CapsuleUnliked",
      "type": "event"
    },
    {
      "anonymous": false,
      "inputs": [
        {
          "indexed": true,
          "internalType": "uint256",
          "name": "id",
          "type": "uint256"
        },
        {
          "indexed": true,
          "internalType": "address",
          "name": "unlocker",
          "type": "address"
        },
        {
          "indexed": false,
          "internalType": "enum TimeCapsule.Category",
          "name": "actualCategory",
          "type": "uint8"
        }
      ],
      "name": "CapsuleUnlocked",
      "type": "event"
    },
    {
      "anonymous": false,
      "inputs": [
        {
          "indexed": true,
          "internalType": "uint256",
          "name": "capsuleId",
          "type": "uint256"
        },
        {
          "indexed": true,
          "internalType": "address",
          "name": "predictor",
          "type": "address"
        },
        {
          "indexed": false,
          "internalType": "enum TimeCapsule.Category",
          "name": "guess",
          "type": "uint8"
        },
        {
          "indexed": false,
          "internalType": "uint256",
          "name": "stakeAmount",
          "type": "uint256"
        }
      ],
      "name": "PredictionMade",
      "type": "event"
    },
    {
      "anonymous": false,
      "inputs": [
        {
          "indexed": true,
          "internalType": "uint256",
          "name": "capsuleId",
          "type": "uint256"
        },
        {
          "indexed": true,
          "internalType": "address",
          "name": "predictor",
          "type": "address"
        },
        {
          "indexed": false,
          "internalType": "uint256",
          "name": "reward",
          "type": "uint256"
        }
      ],
      "name": "RewardClaimed",
      "type": "event"
    },
    {
      "anonymous": false,
      "inputs": [
        {
          "indexed": true,
          "internalType": "address",
          "name": "user",
          "type": "address"
        },
        {
          "indexed": true,
          "internalType": "address",
          "name": "starrer",
          "type": "address"
        }
      ],
      "name": "UserStarred",
      "type": "event"
    },
    {
      "anonymous": false,
      "inputs": [
        {
          "indexed": true,
          "internalType": "address",
          "name": "user",
          "type": "address"
        },
        {
          "indexed": true,
          "internalType": "address",
          "name": "unstarrer",
          "type": "address"
        }
      ],
      "name": "UserUnstarred",
      "type": "event"
    },
    {
      "inputs": [],
      "name": "GRACE_PERIOD",
      "outputs": [
        {
          "internalType": "uint256",
          "name": "",
          "type": "uint256"
        }
      ],
      "stateMutability": "view",
      "type": "function"
    },
    {
      "inputs": [],
      "name": "MIN_PREDICTION_STAKE",
      "outputs": [
        {
          "internalType": "uint256",
          "name": "",
          "type": "uint256"
        }
      ],
      "stateMutability": "view",
      "type": "function"
    },
    {
      "inputs": [
        {
          "internalType": "uint256",
          "name": "",
          "type": "uint256"
        }
      ],
      "name": "capsuleLikes",
      "outputs": [
        {
          "internalType": "uint256",
          "name": "",
          "type": "uint256"
        }
      ],
      "stateMutability": "view",
      "type": "function"
    },
    {
      "inputs": [
        {
          "internalType": "uint256",
          "name": "",
          "type": "uint256"
        }
      ],
      "name": "capsules",
      "outputs": [
        {
          "internalType": "uint256",
          "name": "id",
          "type": "uint256"
        },
        {
          "internalType": "address",
          "name": "creator",
          "type": "address"
        },
        {
          "internalType": "address",
          "name": "recipient",
          "type": "address"
        },
        {
          "internalType": "string",
          "name": "ipfsCID",
          "type": "string"
        },
        {
          "internalType": "bytes",
          "name": "encryptedKey",
          "type": "bytes"
        },
        {
          "internalType": "uint256",
          "name": "unlockTime",
          "type": "uint256"
        },
        {
          "internalType": "uint256",
          "name": "stakeAmount",
          "type": "uint256"
        },
        {
          "internalType": "bool",
          "name": "isUnlocked",
          "type": "bool"
        },
        {
          "internalType": "bool",
          "name": "stakeReleased",
          "type": "bool"
        },
        {
          "internalType": "string",
          "name": "hint",
          "type": "string"
        },
        {
          "internalType": "enum TimeCapsule.Category",
          "name": "actualCategory",
          "type": "uint8"
        },
        {
          "internalType": "bool",
          "name": "isPublic",
          "type": "bool"
        },
        {
          "internalType": "uint256",
          "name": "predictionPool",
          "type": "uint256"
        }
      ],
      "stateMutability": "view",
      "type": "function"
    },
    {
      "inputs": [
        {
          "internalType": "uint256",
          "name": "_id",
          "type": "uint256"
        }
      ],
      "name": "claimReward",
      "outputs": [],
      "stateMutability": "nonpayable",
      "type": "function"
    },
    {
      "inputs": [
        {
          "internalType": "address",
          "name": "_recipient",
          "type": "address"
        },
        {
          "internalType": "uint256",
          "name": "_unlockTime",
          "type": "uint256"
        },
        {
          "internalType": "string",
          "name": "_ipfsCid",
          "type": "string"
        },
        {
          "internalType": "bytes",
          "name": "_encryptedKey",
          "type": "bytes"
        },
        {
          "internalType": "string",
          "name": "_hint",
          "type": "string"
        },
        {
          "internalType": "enum TimeCapsule.Category",
          "name": "_category",
          "type": "uint8"
        },
        {
          "internalType": "bool",
          "name": "_isPublic",
          "type": "bool"
        }
      ],
      "name": "createCapsule",
      "outputs": [],
      "stateMutability": "payable",
      "type": "function"
    },
    {
      "inputs": [],
      "name": "daoTreasury",
      "outputs": [
        {
          "internalType": "address",
          "name": "",
          "type": "address"
        }
      ],
      "stateMutability": "view",
      "type": "function"
    },
    {
      "inputs": [
        {
          "internalType": "uint256",
          "name": "_id",
          "type": "uint256"
        }
      ],
      "name": "deleteCapsule",
      "outputs": [],
      "stateMutability": "nonpayable",
      "type": "function"
    },
    {
      "inputs": [
        {
          "internalType": "uint256",
          "name": "_id",
          "type": "uint256"
        }
      ],
      "name": "getCapsule",
      "outputs": [
        {
          "components": [
            {
              "internalType": "uint256",
              "name": "id",
              "type": "uint256"
            },
            {
              "internalType": "address",
              "name": "creator",
              "type": "address"
            },
            {
              "internalType": "address",
              "name": "recipient",
              "type": "address"
            },
            {
              "internalType": "string",
              "name": "ipfsCID",
              "type": "string"
            },
            {
              "internalType": "bytes",
              "name": "encryptedKey",
              "type": "bytes"
            },
            {
              "internalType": "uint256",
              "name": "unlockTime",
              "type": "uint256"
            },
            {
              "internalType": "uint256",
              "name": "stakeAmount",
              "type": "uint256"
            },
            {
              "internalType": "bool",
              "name": "isUnlocked",
              "type": "bool"
            },
            {
              "internalType": "bool",
              "name": "stakeReleased",
              "type": "bool"
            },
            {
              "internalType": "string",
              "name": "hint",
              "type": "string"
            },
            {
              "internalType": "enum TimeCapsule.Category",
              "name": "actualCategory",
              "type": "uint8"
            },
            {
              "internalType": "bool",
              "name": "isPublic",
              "type": "bool"
            },
            {
              "internalType": "uint256",
              "name": "predictionPool",
              "type": "uint256"
            }
          ],
          "internalType": "struct TimeCapsule.Capsule",
          "name": "",
          "type": "tuple"
        }
      ],
      "stateMutability": "view",
      "type": "function"
    },
    {
      "inputs": [
        {
          "internalType": "uint256",
          "name": "_id",
          "type": "uint256"
        }
      ],
      "name": "getCapsuleLikes",
      "outputs": [
        {
          "internalType": "uint256",
          "name": "",
          "type": "uint256"
        }
      ],
      "stateMutability": "view",
      "type": "function"
    },
    {
      "inputs": [
        {
          "internalType": "uint256",
          "name": "_id",
          "type": "uint256"
        },
        {
          "internalType": "uint256",
          "name": "_idx",
          "type": "uint256"
        }
      ],
      "name": "getPrediction",
      "outputs": [
        {
          "components": [
            {
              "internalType": "address",
              "name": "predictor",
              "type": "address"
            },
            {
              "internalType": "enum TimeCapsule.Category",
              "name": "guess",
              "type": "uint8"
            },
            {
              "internalType": "uint256",
              "name": "stakeAmount",
              "type": "uint256"
            },
            {
              "internalType": "bool",
              "name": "claimed",
              "type": "bool"
            }
          ],
          "internalType": "struct TimeCapsule.Prediction",
          "name": "",
          "type": "tuple"
        }
      ],
      "stateMutability": "view",
      "type": "function"
    },
    {
      "inputs": [
        {
          "internalType": "uint256",
          "name": "_id",
          "type": "uint256"
        }
      ],
      "name": "getPredictionCount",
      "outputs": [
        {
          "internalType": "uint256",
          "name": "",
          "type": "uint256"
        }
      ],
      "stateMutability": "view",
      "type": "function"
    },
    {
      "inputs": [
        {
          "internalType": "address",
          "name": "_user",
          "type": "address"
        }
      ],
      "name": "getUserStars",
      "outputs": [
        {
          "internalType": "uint256",
          "name": "",
          "type": "uint256"
        }
      ],
      "stateMutability": "view",
      "type": "function"
    },
    {
      "inputs": [
        {
          "internalType": "uint256",
          "name": "",
          "type": "uint256"
        },
        {
          "internalType": "address",
          "name": "",
          "type": "address"
        }
      ],
      "name": "hasLikedCapsule",
      "outputs": [
        {
          "internalType": "bool",
          "name": "",
          "type": "bool"
        }
      ],
      "stateMutability": "view",
      "type": "function"
    },
    {
      "inputs": [
        {
          "internalType": "uint256",
          "name": "",
          "type": "uint256"
        },
        {
          "internalType": "address",
          "name": "",
          "type": "address"
        }
      ],
      "name": "hasPredicted",
      "outputs": [
        {
          "internalType": "bool",
          "name": "",
          "type": "bool"
        }
      ],
      "stateMutability": "view",
      "type": "function"
    },
    {
      "inputs": [
        {
          "internalType": "address",
          "name": "",
          "type": "address"
        },
        {
          "internalType": "address",
          "name": "",
          "type": "address"
        }
      ],
      "name": "hasStarredUser",
      "outputs": [
        {
          "internalType": "bool",
          "name": "",
          "type": "bool"
        }
      ],
      "stateMutability": "view",
      "type": "function"
    },
    {
      "inputs": [
        {
          "internalType": "uint256",
          "name": "_id",
          "type": "uint256"
        }
      ],
      "name": "likeCapsule",
      "outputs": [],
      "stateMutability": "nonpayable",
      "type": "function"
    },
    {
      "inputs": [
        {
          "internalType": "uint256",
          "name": "_id",
          "type": "uint256"
        },
        {
          "internalType": "enum TimeCapsule.Category",
          "name": "_guess",
          "type": "uint8"
        }
      ],
      "name": "makePrediction",
      "outputs": [],
      "stateMutability": "payable",
      "type": "function"
    },
    {
      "inputs": [],
      "name": "nextCapsuleId",
      "outputs": [
        {
          "internalType": "uint256",
          "name": "",
          "type": "uint256"
        }
      ],
      "stateMutability": "view",
      "type": "function"
    },
    {
      "inputs": [
        {
          "internalType": "address",
          "name": "_user",
          "type": "address"
        }
      ],
      "name": "starUser",
      "outputs": [],
      "stateMutability": "nonpayable",
      "type": "function"
    },
    {
      "inputs": [
        {
          "internalType": "uint256",
          "name": "_id",
          "type": "uint256"
        }
      ],
      "name": "unlikeCapsule",
      "outputs": [],
      "stateMutability": "nonpayable",
      "type": "function"
    },
    {
      "inputs": [
        {
          "internalType": "uint256",
          "name": "_id",
          "type": "uint256"
        }
      ],
      "name": "unlockCapsule",
      "outputs": [],
      "stateMutability": "nonpayable",
      "type": "function"
    },
    {
      "inputs": [
        {
          "internalType": "address",
          "name": "_user",
          "type": "address"
        }
      ],
      "name": "unstarUser",
      "outputs": [],
      "stateMutability": "nonpayable",
      "type": "function"
    },
    {
      "inputs": [
        {
          "internalType": "address",
          "name": "",
          "type": "address"
        }
      ],
      "name": "userStars",
      "outputs": [
        {
          "internalType": "uint256",
          "name": "",
          "type": "uint256"
        }
      ],
      "stateMutability": "view",
      "type": "function"
    }
  ],
  "bytecode": "0x60a0346100ad57601f6120e738819003918201601f19168301916001600160401b038311848410176100b2578084926020946040528339810103126100ad57516001600160a01b0381168082036100ad576001600055156100755760805260405161201e90816100c9823960805181610a3a0152f35b60405162461bcd60e51b815260206004820152601060248201526f496e76616c696420547265617375727960801b6044820152606490fd5b600080fd5b634e487b7160e01b600052604160045260246000fdfe608080604052600436101561001357600080fd5b60003560e01c908163105d714714611b61575080631b0a102c14611a995780631e2bb883146101275780632178c0a21461190257806329d723361461167b5780632c76d395146110c85780633103a99b14610f6b5780633aac385814610d245780634924796914610cd75780634983555614610bfe5780634a098c7714610bdc578063517bbf4614610a955780635d45dcf514610a695780636e7b8cea1461016657806379022a9f14610a2457806385d6b426146109d7578063ae169a501461060e578063ae3cfaed146105f0578063c1a287e2146105d1578063d53983a51461057b578063ec3bc06b14610284578063f3fca3a914610192578063f6d3f792146101665763fcb9f9461461012757600080fd5b34610161576020366003190112610161576001600160a01b03610148611c34565b1660005260076020526020604060002054604051908152f35b600080fd5b346101615760203660031901126101615760043560005260056020526020604060002054604051908152f35b3461016157602080600319360112610161576004359081600052600181526101cb60018060a01b03600160406000200154161515611edc565b8160005260068152604060002033600052815260ff6040600020541661025057600590826000526006815260406000203360005281526040600020600160ff19825416179055826000525260406000206102258154611df9565b905533907f45e3141c01fa9dcd02b467d7436a3f627d4a7421740e96d996031887ac3d6543600080a3005b6064906040519062461bcd60e51b82526004820152600d60248201526c105b1c9958591e481b1a5ad959609a1b6044820152fd5b604036600319011261016157602480356004356009821015610161576102a8611eb9565b8060005260019260209084825260406000209060018060a01b036102d28188850154161515611edc565b60ff600984015460081c168061056c575b15610537576005830154421015610508578460005260038452604060002033600052845260ff604060002054166104d05766038d7ea4c68000341061049c5784600052600284526040600020906040519261033d84611d9e565b3384528584019061034e8983611e4f565b6040850192348452606086019460008652805490680100000000000000008210156104875790610382918d82018155611f14565b96909661047257511690855492826bffffffffffffffffffffffff60a01b85161787555190600982101561045e57506001600160a81b03199092161760a09190911b60ff60a01b16178355518783015551600291909101805491151560ff1660ff1992909216919091179055600a908360005260038352604060002033600052835260406000208660ff198254161790550161041f348254611f46565b905561042e6040518094611c27565b34908301527fda30f73a3e960b5ac088351f9267cabe93697fa1626149956fb9a54bc6d07b9560403393a3600055005b634e487b7160e01b60009081526021600452fd5b82634e487b7160e01b60005260006004526000fd5b83634e487b7160e01b60005260416004526000fd5b60405162461bcd60e51b815260048101859052600d818401526c5374616b6520746f6f206c6f7760981b6044820152606490fd5b60405162461bcd60e51b81526004810185905260118184015270105b1c9958591e481c1c99591a58dd1959607a1b6044820152606490fd5b60405162461bcd60e51b81526004810185905260088184015267546f6f206c61746560c01b6044820152606490fd5b60405162461bcd60e51b815260048101859052600e818401526d10d85b9b9bdd081c1c99591a58dd60921b6044820152606490fd5b5060ff600784015416156102e3565b3461016157604036600319011261016157610594611c34565b61059c611c4a565b9060018060a01b03809116600052600860205260406000209116600052602052602060ff604060002054166040519015158152f35b346101615760003660031901126101615760206040516301e133808152f35b34610161576000366003190112610161576020600454604051908152f35b3461016157602036600319011261016157610627611eb9565b6004356000526001602052604060002060ff600782015416156109a357600435600052600360205260406000203360005260205260ff604060002054161561096e57600435600052600260205260406000206000906000808254905b818110610936575b5050156108fa5760ff60026106a08484611f14565b500154166108c357600960ff6106b68484611f14565b505460a01c1693019260ff84541690600982101561087a57600981101561087a57036108905760026106e88383611f14565b5001600160ff1982541617905560009060009360009060ff8354915416905b80831061080957505050600161071d8483611f14565b50015492821591821580610800575b61079c575b5050505080915060008115610793575b600080809381933390f1156107875760405190815233907f24b5efa61dd1cfc659205a97fb8ed868f3cb8c81922bab2b96423e5de1de2cb7602060043592a36001600055005b6040513d6000823e3d90fd5b506108fc610741565b6001916107a891611f14565b5001548481029481860414901517156107ea576107d4576107ca920490611f46565b8082808080610731565b634e487b7160e01b600052601260045260246000fd5b634e487b7160e01b600052601160045260246000fd5b5085151561072c565b90919360ff6108188686611f14565b505460a01c16600984101561087a57600981101561087a57830361085f576108526108589160016108498888611f14565b50015490611f46565b94611df9565b9190610707565b93956108746108589160016108498a88611f14565b96611df9565b634e487b7160e01b600052602160045260246000fd5b60405162461bcd60e51b815260206004820152600b60248201526a57726f6e6720677565737360a81b6044820152606490fd5b60405162461bcd60e51b815260206004820152600f60248201526e105b1c9958591e4818db185a5b5959608a1b6044820152606490fd5b60405162461bcd60e51b8152602060048201526014602482015273141c99591a58dd1a5bdb881b9bdd08199bdd5b9960621b6044820152606490fd5b6109408185611f14565b50546001600160a01b0316331461095f5761095a90611df9565b610683565b9293505050906001848061068b565b60405162461bcd60e51b815260206004820152600d60248201526c273790383932b234b1ba34b7b760991b6044820152606490fd5b60405162461bcd60e51b815260206004820152600c60248201526b139bdd081d5b9b1bd8dad95960a21b6044820152606490fd5b34610161576040366003190112610161576109f0611c4a565b600435600052600360205260406000209060018060a01b0316600052602052602060ff604060002054166040519015158152f35b34610161576000366003190112610161576040517f00000000000000000000000000000000000000000000000000000000000000006001600160a01b03168152602090f35b346101615760203660031901126101615760043560005260026020526020604060002054604051908152f35b3461016157602036600319011261016157600435600052600160205260406000208054600160a01b6001900391826001820154169260028201541660405180806003850190610ae391611d08565b03610aee9082611dd7565b60405180610aff8160048701611d08565b03610b0a9082611dd7565b600584015490600685015460078601549160405194858060088a0190610b2f91611d08565b03610b3a9087611dd7565b600988015497600a0154966040519a8b9a8b5260208b015260408a01526101a08060608b01528901610b6b91611c8e565b88810360808a0152610b7c91611c8e565b9260a088015260c087015260ff8116151560e087015260081c60ff161515610100860152848103610120860152610bb291611c8e565b91610bc4610140850160ff8316611c27565b60081c60ff1615156101608401526101808301520390f35b3461016157600036600319011261016157602060405166038d7ea4c680008152f35b3461016157602080600319360112610161576001600160a01b03610c20611c34565b16908160005260088152604060002033600052815260ff6040600020541615610ca55760079082600052600881526040600020336000528152604060002060ff19815416905582600052526040600020610c7a8154611fdb565b905533907f6fe36b50f25d06a77c21991550058df738e1904b6060ed3ef424e50ea364422e600080a3005b6064906040519062461bcd60e51b82526004820152600b60248201526a139bdd081cdd185c9c995960aa1b6044820152fd5b3461016157604036600319011261016157610cf0611c4a565b600435600052600660205260406000209060018060a01b0316600052602052602060ff604060002054166040519015158152f35b34610161576020366003190112610161576000610180604051610d4681611dba565b828152826020820152826040820152606080820152606060808201528260a08201528260c08201528260e08201528261010082015260606101208201528261014082015282610160820152015260043560005260016020526040600020600a60405191610db283611dba565b8054835260018101546001600160a01b03908116602085015260028201541660408085019190915251610df381610dec8160038601611d08565b0382611dd7565b6060840152604051610e0c81610dec8160048601611d08565b6080840152600581015460a0840152600681015460c084015260ff6007820154818116151560e086015260081c161515610100840152604051610e5681610dec8160088601611d08565b61012084015260ff6009820154610e738282166101408701611e4f565b60081c16151561016084015201546101808201526040518091602082528051602083015260018060a01b03602082015116604083015260018060a01b036040820151166060830152610180610f3e610edc60608401516101a060808701526101c0860190611c8e565b610ef8608085015191601f1992838883030160a0890152611c8e565b9060a085015160c087015260c085015160e087015260e0850151151561010087015261010085015115156101208701526101208501519086830301610140870152611c8e565b91610f53610140820151610160860190611c27565b61016081015115158285015201516101a08301520390f35b3461016157602080600319360112610161576001600160a01b03610f8d611c34565b1690811561109257338214611057578160005260088152604060002033600052815260ff6040600020541661102157600790826000526008815260406000203360005281526040600020600160ff1982541617905582600052526040600020610ff68154611df9565b905533907f727adcc4266d04c55484a7e6e856b93fafeab3c6e6186f75eed4f1bbdad53911600080a3005b6064906040519062461bcd60e51b82526004820152600f60248201526e105b1c9958591e481cdd185c9c9959608a1b6044820152fd5b6064906040519062461bcd60e51b82526004820152601460248201527321b0b73737ba1039ba30b9103cb7bab939b2b63360611b6044820152fd5b6064906040519062461bcd60e51b82526004820152600f60248201526e496e76616c6964206164647265737360881b6044820152fd5b60e0366003190112610161576110dc611c34565b60443567ffffffffffffffff8111610161576110fc903690600401611c60565b60649291923567ffffffffffffffff81116101615761111f903690600401611c60565b909360843567ffffffffffffffff811161016157611141903690600401611c60565b9091600960a43510156101615760c43596871515880361016157611163611eb9565b42602435111561163d57851561160957611200946111cb6111d7936004549961118b8b611df9565b6004556001600160a01b038116611603575033985b604051996111ad8b611dba565b8b8b523360208c01526001600160a01b031660408b01523691611e08565b60608801523691611e08565b608085015260243560a08501523460c0850152600060e085015260006101008501523691611e08565b61012082015261121660a4356101408301611e4f565b8215156101608201526000610180820152816000526001602052604060002090805182556001820160018060a01b03602083015116906bffffffffffffffffffffffff60a01b9182825416179055600283019060018060a01b0360408401511690825416179055606081015180519067ffffffffffffffff82116114f35781906112b0826112a76003880154611cce565b60038801611e72565b602090601f831160011461159157600092611586575b50508160011b916000199060031b1c19161760038301555b608081015180519067ffffffffffffffff82116114f3578190611311826113086004880154611cce565b60048801611e72565b602090601f831160011461151457600092611509575b50508160011b916000199060031b1c19161760048301555b60a0810151600583015560c081015160068301556113926007830161137660e08401511515829060ff801983541691151516179055565b610100830151815461ff00191690151560081b61ff0016179055565b61012081015180519067ffffffffffffffff82116114f35781906113c6826113bd6008880154611cce565b60088801611e72565b602090601f831160011461148157600092611476575b50508160011b916000199060031b1c19161760088301555b6009820161014082015191600983101561087a57815461016082015161ff0090151560081b1660ff9490941661ffff1990911617929092179055600a906101800151910155604051916024358352151560208301527ff72b5f29d907c4cdb318378fca996a1404acf683c3add631b8c4abf1f319226560403393a36001600055005b0151905086806113dc565b9250600885016000526020600020906000935b601f19841685106114d8576001945083601f198116106114bf575b505050811b0160088301556113f4565b015160001960f88460031b161c191690558680806114af565b81810151835560209485019460019093019290910190611494565b634e487b7160e01b600052604160045260246000fd5b015190508680611327565b9250600485016000526020600020906000935b601f198416851061156b576001945083601f19811610611552575b505050811b01600483015561133f565b015160001960f88460031b161c19169055868080611542565b81810151835560209485019460019093019290910190611527565b0151905086806112c6565b9250600385016000526020600020906000935b601f19841685106115e8576001945083601f198116106115cf575b505050811b0160038301556112de565b015160001960f88460031b161c191690558680806115bf565b818101518355602094850194600190930192909101906115a4565b986111a0565b60405162461bcd60e51b815260206004820152600c60248201526b10d251081c995c5d5a5c995960a21b6044820152606490fd5b60405162461bcd60e51b815260206004820152601660248201527554696d65206d75737420626520696e2066757475726560501b6044820152606490fd5b34610161576020806003193601126101615760043590611699611eb9565b81600052600191828252604060002060018060a01b03908185820154166116c1811515611edc565b33036118ce57806116db60ff600760069401541615611f53565b0154928260005284600292838352604060002090826000905b61185c575b5050505082600052848152604060002091600083556000868401556000818401556000600a60039461172c868201611f92565b6004810161173a8154611cce565b9081611821575b505082600582015582600682015582600782015561176160088201611f92565b82600982015501558360005280825260406000209182549260008155836117e5575b505050505033907fb3b81ecf84aacbe9d91ae268652677f6c35fb924934e461744004cfd6cd2ab14600080a3801580156117bf575b6000839055005b6000808093819382906117dc575b3390f1156107875781806117b8565b506108fc6117cd565b83850293858504036107ea57600052600020918201915b8281106118095780611783565b806000859255600088820155600083820155016117fc565b81601f8693116001146118385750555b8980611741565b81835287832091839161185590601f0160051c8401848f01611e5b565b5555611831565b82548110156118c957836118708285611f14565b500154611887575b61188190611df9565b836116f4565b92506000808080846118998888611f14565b5054168c6118a78989611f14565b500154908282156118c0575bf115610787578792611878565b506108fc6118b3565b6116f9565b60405162461bcd60e51b815260048101859052600c60248201526b27b7363c9031b932b0ba37b960a11b6044820152606490fd5b346101615760203660031901126101615760043561191e611eb9565b80600052600160205260406000209060018060a01b039182600182015416611947811515611edc565b60058201544210611a6a5733148015611a5b575b15611a27576007810180549261197460ff851615611f53565b600160ff198516179081835560ff600985015416906119966040518093611c27565b7f94b202b76e66f9b1a5a934d9335701186b3b52632f9a4da8763da9ef4d2854f460203393a360068301549081159081159081611a18575b506119db575b6001600055005b6000956002879695879695610101889761ffff1916179055015416908390611a0f575bf115610787578080808080806119d4565b506108fc6119fe565b60ff915060081c1615876119ce565b60405162461bcd60e51b815260206004820152600c60248201526b155b985d5d1a1bdc9a5e995960a21b6044820152606490fd5b5082600282015416331461195b565b60405162461bcd60e51b8152602060048201526007602482015266139bdd081e595d60ca1b6044820152606490fd5b346101615760403660031901126101615760006060604051611aba81611d9e565b828152826020820152826040820152015260043560005260026020526080611ae86024356040600020611f14565b5060405190611af682611d9e565b80546001600160a01b0380821684529190611b51906020850190611b209060a01c60ff1682611e4f565b60ff600260018501549460408801958652015416936060860194151585526040519551168552516020850190611c27565b5160408301525115156060820152f35b346101615760208060031936011261016157600435918260005260068252604060002033600052825260ff6040600020541615611bfb575060059082600052600681526040600020336000528152604060002060ff19815416905582600052526040600020611bd08154611fdb565b905533907f9efef00a3d52ce435093e6bf9b14e560359f0933b71e02b57371663e5e1e5c4b600080a3005b60649162461bcd60e51b825260048201526009602482015268139bdd081b1a5ad95960ba1b6044820152fd5b90600982101561087a5752565b600435906001600160a01b038216820361016157565b602435906001600160a01b038216820361016157565b9181601f840112156101615782359167ffffffffffffffff8311610161576020838186019501011161016157565b919082519283825260005b848110611cba575050826000602080949584010152601f8019910116010190565b602081830181015184830182015201611c99565b90600182811c92168015611cfe575b6020831014611ce857565b634e487b7160e01b600052602260045260246000fd5b91607f1691611cdd565b9060009291805491611d1983611cce565b918282526001938481169081600014611d7b5750600114611d3b575b50505050565b90919394506000526020928360002092846000945b838610611d67575050505001019038808080611d35565b805485870183015294019385908201611d50565b9294505050602093945060ff191683830152151560051b01019038808080611d35565b6080810190811067ffffffffffffffff8211176114f357604052565b6101a0810190811067ffffffffffffffff8211176114f357604052565b90601f8019910116810190811067ffffffffffffffff8211176114f357604052565b60001981146107ea5760010190565b92919267ffffffffffffffff82116114f35760405191611e32601f8201601f191660200184611dd7565b829481845281830111610161578281602093846000960137010152565b600982101561087a5752565b818110611e66575050565b60008155600101611e5b565b9190601f8111611e8157505050565b611ead926000526020600020906020601f840160051c83019310611eaf575b601f0160051c0190611e5b565b565b9091508190611ea0565b600260005414611eca576002600055565b604051633ee5aeb560e01b8152600490fd5b15611ee357565b60405162461bcd60e51b8152602060048201526009602482015268139bdd08199bdd5b9960ba1b6044820152606490fd5b8054821015611f30576000526003602060002091020190600090565b634e487b7160e01b600052603260045260246000fd5b919082018092116107ea57565b15611f5a57565b60405162461bcd60e51b815260206004820152601060248201526f105b1c9958591e481d5b9b1bd8dad95960821b6044820152606490fd5b611f9c8154611cce565b9081611fa6575050565b81601f60009311600114611fb8575055565b908083918252611fd7601f60208420940160051c840160018501611e5b565b5555565b80156107ea57600019019056fea2646970667358221220665ef90061c9ce3526ab67fa94cf2fcd1124d82bacba139cc09c7a3dd96c096d64736f6c63430008140033",
  "linkReferences": {},
  "deployedLinkReferences": {}
}